{"project/contracts/AccessPassNFT.sol":{"AccessPassNFT":{"abi":[{"inputs":[],"stateMutability":"nonpayable","type":"constructor"},{"inputs":[],"name":"AccessControlBadConfirmation","type":"error"},{"inputs":[{"internalType":"address","name":"account","type":"address"},{"internalType":"bytes32","name":"neededRole","type":"bytes32"}],"name":"AccessControlUnauthorizedAccount","type":"error"},{"inputs":[{"internalType":"address","name":"target","type":"address"}],"name":"AddressEmptyCode","type":"error"},{"inputs":[{"internalType":"address","name":"implementation","type":"address"}],"name":"ERC1967InvalidImplementation","type":"error"},{"inputs":[],"name":"ERC1967NonPayable","type":"error"},{"inputs":[{"internalType":"address","name":"sender","type":"address"},{"internalType":"uint256","name":"tokenId","type":"uint256"},{"internalType":"address","name":"owner","type":"address"}],"name":"ERC721IncorrectOwner","type":"error"},{"inputs":[{"internalType":"address","name":"operator","type":"address"},{"internalType":"uint256","name":"tokenId","type":"uint256"}],"name":"ERC721InsufficientApproval","type":"error"},{"inputs":[{"internalType":"address","name":"approver","type":"address"}],"name":"ERC721InvalidApprover","type":"error"},{"inputs":[{"internalType":"address","name":"operator","type":"address"}],"name":"ERC721InvalidOperator","type":"error"},{"inputs":[{"internalType":"address","name":"owner","type":"address"}],"name":"ERC721InvalidOwner","type":"error"},{"inputs":[{"internalType":"address","name":"receiver","type":"address"}],"name":"ERC721InvalidReceiver","type":"error"},{"inputs":[{"internalType":"address","name":"sender","type":"address"}],"name":"ERC721InvalidSender","type":"error"},{"inputs":[{"internalType":"uint256","name":"tokenId","type":"uint256"}],"name":"ERC721NonexistentToken","type":"error"},{"inputs":[],"name":"FailedCall","type":"error"},{"inputs":[],"name":"InvalidInitialization","type":"error"},{"inputs":[],"name":"NotInitializing","type":"error"},{"inputs":[],"name":"UUPSUnauthorizedCallContext","type":"error"},{"inputs":[{"internalType":"bytes32","name":"slot","type":"bytes32"}],"name":"UUPSUnsupportedProxiableUUID","type":"error"},{"anonymous":false,"inputs":[{"indexed":true,"internalType":"address","name":"owner","type":"address"},{"indexed":true,"internalType":"address","name":"approved","type":"address"},{"indexed":true,"internalType":"uint256","name":"tokenId","type":"uint256"}],"name":"Approval","type":"event"},{"anonymous":false,"inputs":[{"indexed":true,"internalType":"address","name":"owner","type":"address"},{"indexed":true,"internalType":"address","name":"operator","type":"address"},{"indexed":false,"internalType":"bool","name":"approved","type":"bool"}],"name":"ApprovalForAll","type":"event"},{"anonymous":false,"inputs":[{"indexed":false,"internalType":"string","name":"newBaseURI","type":"string"}],"name":"BaseURIUpdated","type":"event"},{"anonymous":false,"inputs":[{"indexed":false,"internalType":"uint256","name":"_fromTokenId","type":"uint256"},{"indexed":false,"internalType":"uint256","name":"_toTokenId","type":"uint256"}],"name":"BatchMetadataUpdate","type":"event"},{"anonymous":false,"inputs":[{"indexed":false,"internalType":"uint64","name":"version","type":"uint64"}],"name":"Initialized","type":"event"},{"anonymous":false,"inputs":[{"indexed":false,"internalType":"uint256","name":"_tokenId","type":"uint256"}],"name":"MetadataUpdate","type":"event"},{"anonymous":false,"inputs":[{"indexed":true,"internalType":"uint256","name":"tokenId","type":"uint256"}],"name":"PassDeactivated","type":"event"},{"anonymous":false,"inputs":[{"indexed":true,"internalType":"uint256","name":"tokenId","type":"uint256"},{"indexed":true,"internalType":"address","name":"recipient","type":"address"},{"indexed":false,"internalType":"uint256","name":"passType","type":"uint256"},{"indexed":false,"internalType":"string","name":"productId","type":"string"},{"indexed":false,"internalType":"string","name":"metadataURI","type":"string"}],"name":"PassMinted","type":"event"},{"anonymous":false,"inputs":[{"indexed":true,"internalType":"bytes32","name":"role","type":"bytes32"},{"indexed":true,"internalType":"bytes32","name":"previousAdminRole","type":"bytes32"},{"indexed":true,"internalType":"bytes32","name":"newAdminRole","type":"bytes32"}],"name":"RoleAdminChanged","type":"event"},{"anonymous":false,"inputs":[{"indexed":true,"internalType":"bytes32","name":"role","type":"bytes32"},{"indexed":true,"internalType":"address","name":"account","type":"address"},{"indexed":true,"internalType":"address","name":"sender","type":"address"}],"name":"RoleGranted","type":"event"},{"anonymous":false,"inputs":[{"indexed":true,"internalType":"bytes32","name":"role","type":"bytes32"},{"indexed":true,"internalType":"address","name":"account","type":"address"},{"indexed":true,"internalType":"address","name":"sender","type":"address"}],"name":"RoleRevoked","type":"event"},{"anonymous":false,"inputs":[{"indexed":true,"internalType":"address","name":"from","type":"address"},{"indexed":true,"internalType":"address","name":"to","type":"address"},{"indexed":true,"internalType":"uint256","name":"tokenId","type":"uint256"}],"name":"Transfer","type":"event"},{"anonymous":false,"inputs":[{"indexed":true,"internalType":"address","name":"implementation","type":"address"}],"name":"Upgraded","type":"event"},{"inputs":[],"name":"DEFAULT_ADMIN_ROLE","outputs":[{"internalType":"bytes32","name":"","type":"bytes32"}],"stateMutability":"view","type":"function"},{"inputs":[],"name":"MINTER_ROLE","outputs":[{"internalType":"bytes32","name":"","type":"bytes32"}],"stateMutability":"view","type":"function"},{"inputs":[],"name":"UPGRADE_INTERFACE_VERSION","outputs":[{"internalType":"string","name":"","type":"string"}],"stateMutability":"view","type":"function"},{"inputs":[{"internalType":"address","name":"to","type":"address"},{"internalType":"uint256","name":"tokenId","type":"uint256"}],"name":"approve","outputs":[],"stateMutability":"nonpayable","type":"function"},{"inputs":[{"internalType":"address","name":"owner","type":"address"}],"name":"balanceOf","outputs":[{"internalType":"uint256","name":"","type":"uint256"}],"stateMutability":"view","type":"function"},{"inputs":[{"internalType":"uint256","name":"tokenId","type":"uint256"}],"name":"deactivatePass","outputs":[],"stateMutability":"nonpayable","type":"function"},{"inputs":[{"internalType":"uint256","name":"tokenId","type":"uint256"}],"name":"getApproved","outputs":[{"internalType":"address","name":"","type":"address"}],"stateMutability":"view","type":"function"},{"inputs":[{"internalType":"bytes32","name":"role","type":"bytes32"}],"name":"getRoleAdmin","outputs":[{"internalType":"bytes32","name":"","type":"bytes32"}],"stateMutability":"view","type":"function"},{"inputs":[{"internalType":"address","name":"user","type":"address"}],"name":"getUserPassCount","outputs":[{"internalType":"uint256","name":"","type":"uint256"}],"stateMutability":"view","type":"function"},{"inputs":[{"internalType":"address","name":"user","type":"address"}],"name":"getUserPasses","outputs":[{"internalType":"uint256[]","name":"","type":"uint256[]"}],"stateMutability":"view","type":"function"},{"inputs":[{"internalType":"bytes32","name":"role","type":"bytes32"},{"internalType":"address","name":"account","type":"address"}],"name":"grantRole","outputs":[],"stateMutability":"nonpayable","type":"function"},{"inputs":[{"internalType":"address","name":"user","type":"address"},{"internalType":"uint256","name":"passType","type":"uint256"}],"name":"hasAccess","outputs":[{"internalType":"bool","name":"","type":"bool"}],"stateMutability":"view","type":"function"},{"inputs":[{"internalType":"address","name":"","type":"address"},{"internalType":"uint256","name":"","type":"uint256"}],"name":"hasPassType","outputs":[{"internalType":"bool","name":"","type":"bool"}],"stateMutability":"view","type":"function"},{"inputs":[{"internalType":"bytes32","name":"role","type":"bytes32"},{"internalType":"address","name":"account","type":"address"}],"name":"hasRole","outputs":[{"internalType":"bool","name":"","type":"bool"}],"stateMutability":"view","type":"function"},{"inputs":[{"internalType":"address","name":"defaultAdmin","type":"address"},{"internalType":"address","name":"minter","type":"address"},{"internalType":"string","name":"baseURI","type":"string"}],"name":"initialize","outputs":[],"stateMutability":"nonpayable","type":"function"},{"inputs":[{"internalType":"address","name":"owner","type":"address"},{"internalType":"address","name":"operator","type":"address"}],"name":"isApprovedForAll","outputs":[{"internalType":"bool","name":"","type":"bool"}],"stateMutability":"view","type":"function"},{"inputs":[{"internalType":"address","name":"to","type":"address"},{"internalType":"uint256","name":"passType","type":"uint256"},{"internalType":"string","name":"metadataURI","type":"string"}],"name":"mintPass","outputs":[{"internalType":"uint256","name":"","type":"uint256"}],"stateMutability":"nonpayable","type":"function"},{"inputs":[{"internalType":"address","name":"to","type":"address"},{"internalType":"uint256","name":"passType","type":"uint256"},{"internalType":"string","name":"productId","type":"string"},{"internalType":"string","name":"metadataURI","type":"string"}],"name":"mintPassWithProduct","outputs":[{"internalType":"uint256","name":"","type":"uint256"}],"stateMutability":"nonpayable","type":"function"},{"inputs":[],"name":"name","outputs":[{"internalType":"string","name":"","type":"string"}],"stateMutability":"view","type":"function"},{"inputs":[{"internalType":"uint256","name":"tokenId","type":"uint256"}],"name":"ownerOf","outputs":[{"internalType":"address","name":"","type":"address"}],"stateMutability":"view","type":"function"},{"inputs":[{"internalType":"uint256","name":"","type":"uint256"}],"name":"passMetadata","outputs":[{"internalType":"uint256","name":"passType","type":"uint256"},{"internalType":"string","name":"productId","type":"string"},{"internalType":"uint256","name":"mintedAt","type":"uint256"},{"internalType":"bool","name":"active","type":"bool"}],"stateMutability":"view","type":"function"},{"inputs":[],"name":"proxiableUUID","outputs":[{"internalType":"bytes32","name":"","type":"bytes32"}],"stateMutability":"view","type":"function"},{"inputs":[{"internalType":"bytes32","name":"role","type":"bytes32"},{"internalType":"address","name":"callerConfirmation","type":"address"}],"name":"renounceRole","outputs":[],"stateMutability":"nonpayable","type":"function"},{"inputs":[{"internalType":"bytes32","name":"role","type":"bytes32"},{"internalType":"address","name":"account","type":"address"}],"name":"revokeRole","outputs":[],"stateMutability":"nonpayable","type":"function"},{"inputs":[{"internalType":"address","name":"from","type":"address"},{"internalType":"address","name":"to","type":"address"},{"internalType":"uint256","name":"tokenId","type":"uint256"}],"name":"safeTransferFrom","outputs":[],"stateMutability":"nonpayable","type":"function"},{"inputs":[{"internalType":"address","name":"from","type":"address"},{"internalType":"address","name":"to","type":"address"},{"internalType":"uint256","name":"tokenId","type":"uint256"},{"internalType":"bytes","name":"data","type":"bytes"}],"name":"safeTransferFrom","outputs":[],"stateMutability":"nonpayable","type":"function"},{"inputs":[{"internalType":"address","name":"operator","type":"address"},{"internalType":"bool","name":"approved","type":"bool"}],"name":"setApprovalForAll","outputs":[],"stateMutability":"nonpayable","type":"function"},{"inputs":[{"internalType":"string","name":"newBaseURI","type":"string"}],"name":"setBaseURI","outputs":[],"stateMutability":"nonpayable","type":"function"},{"inputs":[{"internalType":"bytes4","name":"interfaceId","type":"bytes4"}],"name":"supportsInterface","outputs":[{"internalType":"bool","name":"","type":"bool"}],"stateMutability":"view","type":"function"},{"inputs":[],"name":"symbol","outputs":[{"internalType":"string","name":"","type":"string"}],"stateMutability":"view","type":"function"},{"inputs":[{"internalType":"uint256","name":"tokenId","type":"uint256"}],"name":"tokenURI","outputs":[{"internalType":"string","name":"","type":"string"}],"stateMutability":"view","type":"function"},{"inputs":[],"name":"totalSupply","outputs":[{"internalType":"uint256","name":"","type":"uint256"}],"stateMutability":"view","type":"function"},{"inputs":[{"internalType":"address","name":"from","type":"address"},{"internalType":"address","name":"to","type":"address"},{"internalType":"uint256","name":"tokenId","type":"uint256"}],"name":"transferFrom","outputs":[],"stateMutability":"nonpayable","type":"function"},{"inputs":[{"internalType":"address","name":"newImplementation","type":"address"},{"internalType":"bytes","name":"data","type":"bytes"}],"name":"upgradeToAndCall","outputs":[],"stateMutability":"payable","type":"function"},{"inputs":[{"internalType":"address","name":"","type":"address"},{"internalType":"uint256","name":"","type":"uint256"}],"name":"userPasses","outputs":[{"internalType":"uint256","name":"","type":"uint256"}],"stateMutability":"view","type":"function"}],"evm":{"bytecode":{"linkReferences":{},"object":"60a080604052346100c257306080525f516020612fc55f395f51905f525460ff8160401c166100b3576002600160401b03196001600160401b03821601610060575b604051612efe90816100c78239608051818181610d740152610e060152f35b6001600160401b0319166001600160401b039081175f516020612fc55f395f51905f525581527fc7f505b2f371ae2175ee4913f4499e1f2633a7b5936321eed1cdaeb6115181d290602090a15f80610041565b63f92ee8a960e01b5f5260045ffd5b5f80fdfe6080806040526004361015610012575f80fd5b5f3560e01c90816301ffc9a714611b125750806306fdde0314611a68578063081812fc14611a1f578063095ea7b31461193357806318160ddd1461191757806323b872dd14611900578063248a9ca3146118c15780632ba1b5e3146116375780632f2ff15d146115ed57806336568abe146115a957806342842e0e1461157a5780634571e3a614610f825780634f1ef28614610dc857806352d1902d14610d62578063536565c414610cb6578063550989a014610c5e57806355f804b314610a945780636352211e14610a6457806370a0823114610a155780637f1226dc146106f857806390b057a0146106c057806391d148541461066b57806395d89b41146105895780639ba9b29d14610521578063a217fddf14610507578063a22cb4651461044d578063ad3cb1cc14610406578063b88d4fde146103ac578063bc38d48c146102f8578063c6530e411461019d578063c87b56dd146102c1578063d539139314610287578063d547741f14610236578063e985e9c5146101ea5763f1caa2f81461019d575f80fd5b346101e65760403660031901126101e6576001600160a01b036101be611bd5565b165f52600460205260405f206024355f52602052602060ff60405f2054166040519015158152f35b5f80fd5b346101e65760403660031901126101e657610203611bd5565b61021461020e611beb565b91611d0e565b9060018060a01b03165f52602052602060ff60405f2054166040519015158152f35b346101e65760403660031901126101e657610285600435610255611beb565b9061028061027b825f525f516020612de95f395f51905f52602052600160405f20015490565b612290565b6128a8565b005b346101e6575f3660031901126101e65760206040517f9f2df0fed2c77648de5860a4cc508cd0818c85b8b8a1ab4ceeef8d981c8956a68152f35b346101e65760203660031901126101e6576102f46102e0600435612adf565b604051918291602083526020830190611bb1565b0390f35b346101e65760203660031901126101e6576001600160a01b03610319611bd5565b165f52600360205260405f20604051806020835491828152019081935f5260205f20905f5b8181106103965750505081610354910382611c56565b604051918291602083019060208452518091526040830191905f5b81811061037d575050500390f35b825184528594506020938401939092019160010161036f565b825484526020909301926001928301920161033e565b346101e65760803660031901126101e6576103c5611bd5565b6103cd611beb565b90604435606435926001600160401b0384116101e6576103f4610285943690600401611c92565b92610400838383611ee9565b3361297d565b346101e6575f3660031901126101e6576102f4604051610427604082611c56565b60058152640352e302e360dc1b6020820152604051918291602083526020830190611bb1565b346101e65760403660031901126101e657610466611bd5565b60243590811515908183036101e65733156104f4576001600160a01b03169182156104e1576104b39061049833611d0e565b845f5260205260405f209060ff801983541691151516179055565b6040519081527f17307eab39ab6107e8899845ad3d59bd9653f200f220920489ca2b5937696c3160203392a3005b82630b61174360e31b5f5260045260245ffd5b63a9fbf51f60e01b5f525f60045260245ffd5b346101e6575f3660031901126101e65760206040515f8152f35b346101e65760203660031901126101e6576004355f52600260205260405f20805461054e60018301611e4b565b9160ff60036002830154920154166105786040519485948552608060208601526080850190611bb1565b916040840152151560608301520390f35b346101e6575f3660031901126101e6576040515f5f516020612e895f395f51905f52546105b581611d6f565b808452906001811690811561064757506001146105dd575b6102f4836102e081850382611c56565b5f516020612e895f395f51905f525f9081527ff4bad0a69248f59680a4f2b3000328cec71a413447c96781cfe5996daa8c456e939250905b80821061062d575090915081016020016102e06105cd565b919260018160209254838588010152019101909291610615565b60ff191660208086019190915291151560051b840190910191506102e090506105cd565b346101e65760403660031901126101e657610684611beb565b6004355f525f516020612de95f395f51905f5260205260405f209060018060a01b03165f52602052602060ff60405f2054166040519015158152f35b346101e65760203660031901126101e6576001600160a01b036106e1611bd5565b165f526003602052602060405f2054604051908152f35b346101e65760803660031901126101e657610711611bd5565b602435906044356001600160401b0381116101e657610734903690600401611c92565b916064356001600160401b0381116101e657610754903690600401611c92565b61075c6121d2565b6001600160a01b038316916107728315156120c8565b61077d811515612108565b8451156109dc5761079b6107915f54612148565b8095815f556122d6565b6107a58285612504565b604051916107b283611c3b565b8183526020830186815260408401428152606085019160018352875f52600260205260405f20955186556001860190518051906001600160401b0382116109c8576107fd8354611d6f565b601f8111610983575b509160209a9593918a9795938c90601f83116001146108e757935f516020612e295f395f51905f52999a93836003946108d1999894610875985f926108dc575b50508160011b915f1990871b1c19161790555b51600284015551151591019060ff801983541691151516179055565b865f52600389526108898660405f2061216a565b865f526004895260405f20835f52895260405f20600160ff198254161790556108c3604051948594855260608b8601526060850190611bb1565b908382036040850152611bb1565b0390a3604051908152f35b015190505f80610846565b999493929190601f1982169a835f52815f209b5f5b8181106109525750835f516020612e295f395f51905f529c9d6108d19a999794600397946108759a976001951061093b575b505050811b019055610859565b01515f1983891b60f8161c191690555f808061092e565b939597999b509091939597999b8f600181928786015181550195019301908e9b9997959392919c9a9896949c6108fc565b835f5260205f20601f840160051c810191602085106109be575b601f0160051c01905b8181106109b35750610806565b5f81556001016109a6565b909150819061099d565b634e487b7160e01b5f52604160045260245ffd5b60405162461bcd60e51b8152602060048201526011602482015270125b9d985b1a59081c1c9bd91d58dd1259607a1b6044820152606490fd5b346101e65760203660031901126101e657610a2e611bd5565b6001600160a01b03811615610a5157610a48602091611cd6565b54604051908152f35b6322718ad960e21b5f525f60045260245ffd5b346101e65760203660031901126101e6576020610a826004356121a3565b6040516001600160a01b039091168152f35b346101e65760203660031901126101e6576004356001600160401b0381116101e657610ac4903690600401611c92565b610acc612241565b80516001600160401b0381116109c857610ae7600154611d6f565b601f8111610bf6575b506020601f8211600114610b64579181610b54927f6741b2fc379fad678116fe3d4d4b9a1a184ab53ba36b86ad0fa66340b1ab41ad945f91610b59575b508160011b915f199060031b1c191617600155604051918291602083526020830190611bb1565b0390a1005b905082015185610b2d565b601f1982169060015f525f516020612e095f395f51905f52915f5b818110610bde5750927f6741b2fc379fad678116fe3d4d4b9a1a184ab53ba36b86ad0fa66340b1ab41ad949260019282610b549610610bc6575b5050811b016001556102e0565b8401515f1960f88460031b161c191690558580610bb9565b91926020600181928689015181550194019201610b7f565b60015f52601f820160051c5f516020612e095f395f51905f52019060208310610c49575b601f0160051c5f516020612e095f395f51905f5201905b818110610c3e5750610af0565b5f8155600101610c31565b5f516020612e095f395f51905f529150610c1a565b346101e65760403660031901126101e657610c77611bd5565b6001600160a01b03165f908152600360205260409020805460243591908210156101e657602091610ca791611d46565b90549060031b1c604051908152f35b346101e65760203660031901126101e657600435610cd26121d2565b6001600160a01b03610ce382612944565b1615610d2657805f526002602052600360405f200160ff1981541690557f626e480980b0a9ed440b6d5cb0632ba9db896768f3bf78fc167de63b7658cf765f80a2005b60405162461bcd60e51b8152602060048201526014602482015273151bdad95b88191bd95cc81b9bdd08195e1a5cdd60621b6044820152606490fd5b346101e6575f3660031901126101e6577f00000000000000000000000000000000000000000000000000000000000000006001600160a01b03163003610db95760206040515f516020612dc95f395f51905f528152f35b63703e46dd60e11b5f5260045ffd5b60403660031901126101e657610ddc611bd5565b6024356001600160401b0381116101e657610dfb903690600401611c92565b906001600160a01b037f000000000000000000000000000000000000000000000000000000000000000016308114908115610f60575b50610db957610e3e612241565b6040516352d1902d60e01b81526001600160a01b0382169290602081600481875afa5f9181610f2c575b50610e805783634c9c8ce360e01b5f5260045260245ffd5b805f516020612dc95f395f51905f52859203610f1a5750823b15610f08575f516020612dc95f395f51905f5280546001600160a01b031916821790557fbc7cd75a20ee27fd9adebab32041f755214dbc6bffa90cc0225b39da2e5c2d3b5f80a2805115610ef05761028591612d1c565b505034610ef957005b63b398979f60e01b5f5260045ffd5b634c9c8ce360e01b5f5260045260245ffd5b632a87526960e21b5f5260045260245ffd5b9091506020813d602011610f58575b81610f4860209383611c56565b810103126101e657519085610e68565b3d9150610f3b565b5f516020612dc95f395f51905f52546001600160a01b03161415905083610e31565b346101e65760603660031901126101e657610f9b611bd5565b610fa3611beb565b906044356001600160401b0381116101e657610fc3903690600401611c92565b915f516020612e695f395f51905f52549060ff8260401c1615916001600160401b03811680159081611572575b6001149081611568575b15908161155f575b506115505767ffffffffffffffff1981166001175f516020612e695f395f51905f525582611524575b50604092835161103b8582611c56565b6015815274436861696e6c65737320416363657373205061737360581b602082015284519061106a8683611c56565b600382526204341560ec1b6020830152611082612cf1565b61108a612cf1565b8051906001600160401b0382116109c85781906110b45f516020612da95f395f51905f5254611d6f565b601f81116114a6575b50602090601f831160011461141d575f92611412575b50508160011b915f199060031b1c1916175f516020612da95f395f51905f52555b8051906001600160401b0382116109c85761111c5f516020612e895f395f51905f5254611d6f565b601f81116113a3575b50602090601f831160011461131e57918061118395949261117d945f92611313575b50508160011b915f199060031b1c1916175f516020612e895f395f51905f52555b611170612cf1565b611178612cf1565b612689565b50612738565b5082516001600160401b0381116109c85761119f600154611d6f565b601f81116112ab575b506020601f821160011461123d57819293945f92611232575b50508160011b915f199060031b1c1916176001555b6111dc57005b60207fc7f505b2f371ae2175ee4913f4499e1f2633a7b5936321eed1cdaeb6115181d29168ff0000000000000000195f516020612e695f395f51905f5254165f516020612e695f395f51905f52555160018152a1005b0151905084806111c1565b601f1982169060015f525f516020612e095f395f51905f52915f5b8181106112935750958360019596971061127b575b505050811b016001556111d6565b01515f1960f88460031b161c1916905584808061126d565b9192602060018192868b015181550194019201611258565b60015f52601f820160051c5f516020612e095f395f51905f520190602083106112fe575b601f0160051c5f516020612e095f395f51905f5201905b8181106112f357506111a8565b5f81556001016112e6565b5f516020612e095f395f51905f5291506112cf565b015190508980611147565b90601f198316915f516020612e895f395f51905f525f52815f20925f5b81811061138b575092600192859261117d9661118399989610611373575b505050811b015f516020612e895f395f51905f5255611168565b01515f1960f88460031b161c19169055898080611359565b9293602060018192878601518155019501930161133b565b5f516020612e895f395f51905f525f527ff4bad0a69248f59680a4f2b3000328cec71a413447c96781cfe5996daa8c456e601f840160051c81019160208510611408575b601f0160051c01905b8181106113fd5750611125565b5f81556001016113f0565b90915081906113e7565b0151905088806110d3565b5f516020612da95f395f51905f525f9081525f516020612ea95f395f51905f529350601f198516905b81811061148e5750908460019594939210611476575b505050811b015f516020612da95f395f51905f52556110f4565b01515f1960f88460031b161c1916905588808061145c565b92936020600181928786015181550195019301611446565b9091505f516020612da95f395f51905f525f52601f830160051c5f516020612ea95f395f51905f5201906020841061150f575b90601f8493920160051c5f516020612ea95f395f51905f5201905b81811061150157506110bd565b5f81558493506001016114f4565b5f516020612ea95f395f51905f5291506114d9565b68ffffffffffffffffff191668010000000000000001175f516020612e695f395f51905f52558461102b565b63f92ee8a960e01b5f5260045ffd5b90501586611002565b303b159150610ffa565b849150610ff0565b346101e65761028561158b36611c01565b906040519261159b602085611c56565b5f8452610400838383611ee9565b346101e65760403660031901126101e6576115c2611beb565b336001600160a01b038216036115de57610285906004356128a8565b63334bd91960e11b5f5260045ffd5b346101e65760403660031901126101e65761028560043561160c611beb565b9061163261027b825f525f516020612de95f395f51905f52602052600160405f20015490565b612804565b346101e65760603660031901126101e657611650611bd5565b602435906044356001600160401b0381116101e657611673903690600401611c92565b9061167c6121d2565b6001600160a01b0381166116918115156120c8565b61169c841515612108565b6116b36116a95f54612148565b8093815f556122d6565b6116bd8383612504565b6040516116c981611c3b565b848152602093604051956116dd8688611c56565b5f87528583019687526040830192428452606081019360018552865f526002885260405f20915182556001820198519889516001600160401b0381116109c8576117278254611d6f565b9a601f8c1161187e575b899a9b505f99979899508b90601f83116001146117fe5792825f516020612e295f395f51905f52999a936117989796936003965f926117f35750508160011b915f1990871b1c191617905551600284015551151591019060ff801983541691151516179055565b845f52600387526117ac8460405f2061216a565b845f526004875260405f20815f52875260405f20600160ff198254161790556108d160405192839283526060898401525f6060840152608060408401526080830190611bb1565b015190508f80610846565b5f8481528d8120929190601f198516908f5b8282106118625750509361179897969360039693600193835f516020612e295f395f51905f529e9f981061184b57505050811b019055610859565b01515f1983891b60f8161c191690558f808061092e565b8484015186558f9c506001909501949384019390810190611810565b825f528a5f20601f830160051c81019c8c84106118b7575b601f0160051c019b5b8c81106118ac5750611731565b5f815560010161189f565b909c508c90611896565b346101e65760203660031901126101e65760206118f86004355f525f516020612de95f395f51905f52602052600160405f20015490565b604051908152f35b346101e65761028561191136611c01565b91611ee9565b346101e6575f3660031901126101e65760205f54604051908152f35b346101e65760403660031901126101e65761194c611bd5565b602435611958816121a3565b33151580611a0c575b806119e9575b6119d65781906001600160a01b0384811691167f8c5be1e5ebec7d5bd14f71427d1e84f3dd0314c0f7b2291e5b200ac8c7c3b9255f80a45f9081525f516020612e495f395f51905f526020526040902080546001600160a01b0319166001600160a01b03909216919091179055005b63a9fbf51f60e01b5f523360045260245ffd5b506119f381611d0e565b335f908152602091909152604090205460ff1615611967565b506001600160a01b038116331415611961565b346101e65760203660031901126101e6576020610a82600435611a41816121a3565b505f9081525f516020612e495f395f51905f5260205260409020546001600160a01b031690565b346101e6575f3660031901126101e6576040515f5f516020612da95f395f51905f5254611a9481611d6f565b80845290600181169081156106475750600114611abb576102f4836102e081850382611c56565b5f516020612da95f395f51905f525f9081525f516020612ea95f395f51905f52939250905b808210611af8575090915081016020016102e06105cd565b919260018160209254838588010152019101909291611ae0565b346101e65760203660031901126101e6576004359063ffffffff60e01b82168092036101e657602091637965db0b60e01b8114908115611b54575b5015158152f35b632483248360e11b811491508115611b6e575b5083611b4d565b6380ac58cd60e01b811491508115611ba0575b8115611b8f575b5083611b67565b6301ffc9a760e01b14905083611b88565b635b5e139f60e01b81149150611b81565b805180835260209291819084018484015e5f828201840152601f01601f1916010190565b600435906001600160a01b03821682036101e657565b602435906001600160a01b03821682036101e657565b60609060031901126101e6576004356001600160a01b03811681036101e657906024356001600160a01b03811681036101e6579060443590565b608081019081106001600160401b038211176109c857604052565b90601f801991011681019081106001600160401b038211176109c857604052565b6001600160401b0381116109c857601f01601f191660200190565b81601f820112156101e657602081359101611cac82611c77565b92611cba6040519485611c56565b828452828201116101e657815f92602092838601378301015290565b6001600160a01b03165f9081527f80bb2b638cc20bc4d0a60d66940f3ab4a00c1d7b313497ca82fb0b4ab00793036020526040902090565b6001600160a01b03165f9081527f80bb2b638cc20bc4d0a60d66940f3ab4a00c1d7b313497ca82fb0b4ab00793056020526040902090565b8054821015611d5b575f5260205f2001905f90565b634e487b7160e01b5f52603260045260245ffd5b90600182811c92168015611d9d575b6020831014611d8957565b634e487b7160e01b5f52602260045260245ffd5b91607f1691611d7e565b604051905f8260015491611dba83611d6f565b8083529260018116908115611e2c5750600114611de0575b611dde92500383611c56565b565b5060015f90815290915f516020612e095f395f51905f525b818310611e10575050906020611dde92820101611dd2565b6020919350806001915483858901015201910190918492611df8565b60209250611dde94915060ff191682840152151560051b820101611dd2565b9060405191825f825492611e5e84611d6f565b8084529360018116908115611ec75750600114611e83575b50611dde92500383611c56565b90505f9291925260205f20905f915b818310611eab575050906020611dde928201015f611e76565b6020919350806001915483858901015201910190918492611e92565b905060209250611dde94915060ff191682840152151560051b8201015f611e76565b9091906001600160a01b03831680156120b55782611f0681612944565b9133151580612002575b506001600160a01b03831695611f2a9087611fc657611cd6565b60018154019055815f527f80bb2b638cc20bc4d0a60d66940f3ab4a00c1d7b313497ca82fb0b4ab007930260205260405f20816bffffffffffffffffffffffff60a01b825416179055857fddf252ad1be2c89b69c2b068fc378daa952ba7f163c4a11628f55a4df523b3ef5f80a4506001600160a01b0316808303611fae57505050565b6364283d7b60e01b5f5260045260245260445260645ffd5b5f8481525f516020612e495f395f51905f526020526040902080546001600160a01b0319169055611ff685611cd6565b80545f19019055611cd6565b9091508061204f575b156120185783905f611f10565b836001600160a01b03831661203957637e27328960e01b5f5260045260245ffd5b63177e802f60e01b5f523360045260245260445ffd5b506001600160a01b03821633148015612093575b8061200b57505f8481525f516020612e495f395f51905f5260205260409020546001600160a01b0316331461200b565b5061209d82611d0e565b335f908152602091909152604090205460ff16612063565b633250574960e11b5f525f60045260245ffd5b156120cf57565b60405162461bcd60e51b8152602060048201526011602482015270125b9d985b1a59081c9958da5c1a595b9d607a1b6044820152606490fd5b1561210f57565b60405162461bcd60e51b8152602060048201526011602482015270496e76616c69642070617373207479706560781b6044820152606490fd5b5f1981146121565760010190565b634e487b7160e01b5f52601160045260245ffd5b8054680100000000000000008110156109c85761218c91600182018155611d46565b819291549060031b91821b915f19901b1916179055565b6121ac81612944565b906001600160a01b038216156121c0575090565b637e27328960e01b5f5260045260245ffd5b335f9081527f549fe2656c81d2947b3b913f0a53b9ea86c71e049f3a1b8aa23c09a8a05cb8d4602052604090205460ff161561220a57565b63e2517d3f60e01b5f52336004527f9f2df0fed2c77648de5860a4cc508cd0818c85b8b8a1ab4ceeef8d981c8956a660245260445ffd5b335f9081527fb7db2dd08fcb62d0c9e08c51941cae53c267786a0b75803fb7960902fc8ef97d602052604090205460ff161561227957565b63e2517d3f60e01b5f52336004525f60245260445ffd5b5f8181525f516020612de95f395f51905f526020908152604080832033845290915290205460ff16156122c05750565b63e2517d3f60e01b5f523360045260245260445ffd5b90602090604051906122e88383611c56565b5f82526001600160a01b0384169384156120b55761230582612944565b6001600160a01b038116801515919084908890846124c8575b61232786611cd6565b805460010190555f8381527f80bb2b638cc20bc4d0a60d66940f3ab4a00c1d7b313497ca82fb0b4ab00793028a526040812080546001600160a01b031916841790557fddf252ad1be2c89b69c2b068fc378daa952ba7f163c4a11628f55a4df523b3ef9080a4506124b5573b61239e575b50505050565b916123db91819495936040519384928392630a85bd0160e11b84523360048501525f60248501526044840152608060648401526084830190611bb1565b03815f885af15f9181612475575b5061243e5750503d15612436573d9061240182611c77565b9161240f6040519384611c56565b82523d5f8284013e5b815191826124335783633250574960e11b5f5260045260245ffd5b01fd5b606090612418565b909291506001600160e01b03191663757a42ff60e11b0161246357505f808080612398565b633250574960e11b5f5260045260245ffd5b9091508381813d83116124ae575b61248d8183611c56565b810103126101e657516001600160e01b0319811681036101e657905f6123e9565b503d612483565b6339e3563760e11b5f525f60045260245ffd5b5f8381525f516020612e495f395f51905f526020526040902080546001600160a01b03191690556124f884611cd6565b80545f1901905561231e565b919091805f527f0542a41881ee128a365a727b282c86fa859579490b9bb45aab8503648c8e790060205260405f2083516001600160401b0381116109c85761254c8254611d6f565b601f8111612644575b506020601f82116001146125bc57908060209493927ff8e1a15aba9398e019f0b49df1a4fde98ee17ae345cb5f6b5e2c27f5033e8ce796975f926125b1575b50508160011b915f199060031b1c19161790555b604051908152a1565b015190505f80612594565b601f19821695835f52815f20965f5b81811061262c575096600192849260209796957ff8e1a15aba9398e019f0b49df1a4fde98ee17ae345cb5f6b5e2c27f5033e8ce7999a10612614575b505050811b0190556125a8565b01515f1960f88460031b161c191690555f8080612607565b838301518955600190980197602093840193016125cb565b825f5260205f20601f830160051c8101916020841061267f575b601f0160051c01905b8181106126745750612555565b5f8155600101612667565b909150819061265e565b6001600160a01b0381165f9081527fb7db2dd08fcb62d0c9e08c51941cae53c267786a0b75803fb7960902fc8ef97d602052604090205460ff16612733576001600160a01b03165f8181527fb7db2dd08fcb62d0c9e08c51941cae53c267786a0b75803fb7960902fc8ef97d60205260408120805460ff191660011790553391907f2f8788117e7eff1d82e926ec794901d17c78024a50270940304540a733656f0d8180a4600190565b505f90565b6001600160a01b0381165f9081527f549fe2656c81d2947b3b913f0a53b9ea86c71e049f3a1b8aa23c09a8a05cb8d4602052604090205460ff16612733576001600160a01b03165f8181527f549fe2656c81d2947b3b913f0a53b9ea86c71e049f3a1b8aa23c09a8a05cb8d460205260408120805460ff191660011790553391907f9f2df0fed2c77648de5860a4cc508cd0818c85b8b8a1ab4ceeef8d981c8956a6907f2f8788117e7eff1d82e926ec794901d17c78024a50270940304540a733656f0d9080a4600190565b5f8181525f516020612de95f395f51905f52602090815260408083206001600160a01b038616845290915290205460ff166128a2575f8181525f516020612de95f395f51905f52602090815260408083206001600160a01b0395909516808452949091528120805460ff19166001179055339291907f2f8788117e7eff1d82e926ec794901d17c78024a50270940304540a733656f0d9080a4600190565b50505f90565b5f8181525f516020612de95f395f51905f52602090815260408083206001600160a01b038616845290915290205460ff16156128a2575f8181525f516020612de95f395f51905f52602090815260408083206001600160a01b0395909516808452949091528120805460ff19169055339291907ff6391f5c32d9c69d2a47ea670b442974b53935d1edc7fd64eb21e047a839171b9080a4600190565b5f9081527f80bb2b638cc20bc4d0a60d66940f3ab4a00c1d7b313497ca82fb0b4ab007930260205260409020546001600160a01b031690565b823b61298b575b5050505050565b604051630a85bd0160e11b81526001600160a01b0391821660048201529181166024830152604482019390935260806064820152911691602090829081906129d7906084830190611bb1565b03815f865af15f9181612a5c575b50612a3a57503d15612a33573d6129fb81611c77565b90612a096040519283611c56565b81523d5f602083013e5b80519081612a2e5782633250574960e11b5f5260045260245ffd5b602001fd5b6060612a13565b6001600160e01b03191663757a42ff60e11b0161246357505f80808080612984565b9091506020813d602011612a99575b81612a7860209383611c56565b810103126101e657516001600160e01b0319811681036101e657905f6129e5565b3d9150612a6b565b611dde906020808095946040519684889551918291018487015e8401908282015f8152815193849201905e01015f815203601f198101845283611c56565b612ae8816121a3565b50612af1611da7565b815f527f0542a41881ee128a365a727b282c86fa859579490b9bb45aab8503648c8e7900602052612b2460405f20611e4b565b90805115612ceb578151612ce1575050612b3d816121a3565b50612b46611da7565b805190919015612ccb5780815f9272184f03e93ff9f4daa797ed6e38ed64bf6a1f0160401b811015612ca5575b50806d04ee2d6d415b85acef8100000000600a921015612c8a575b662386f26fc10000811015612c76575b6305f5e100811015612c65575b612710811015612c56575b6064811015612c48575b1015612c3d575b600a60216001840193612bd985611c77565b94612be76040519687611c56565b808652612bf6601f1991611c77565b013660208701378401015b5f1901916f181899199a1a9b1b9c1cb0b131b232b360811b8282061a835304908115612c2f57600a90612c01565b5050612c3a91612aa1565b90565b600190910190612bc7565b606460029104930192612bc0565b61271060049104930192612bb6565b6305f5e10060089104930192612bab565b662386f26fc1000060109104930192612b9e565b6d04ee2d6d415b85acef810000000060209104930192612b8e565b6040935072184f03e93ff9f4daa797ed6e38ed64bf6a1f0160401b90049050600a612b73565b5050604051612cdb602082611c56565b5f815290565b612c3a9250612aa1565b50905090565b60ff5f516020612e695f395f51905f525460401c1615612d0d57565b631afcd79f60e31b5f5260045ffd5b905f8091602081519101845af48080612d95575b15612d505750506040513d81523d5f602083013e60203d82010160405290565b15612d7557639996b31560e01b5f9081526001600160a01b0391909116600452602490fd5b3d15612d86576040513d5f823e3d90fd5b63d6bda27560e01b5f5260045ffd5b503d151580612d305750813b1515612d3056fe80bb2b638cc20bc4d0a60d66940f3ab4a00c1d7b313497ca82fb0b4ab0079300360894a13ba1a3210667c828492db98dca3e2076cc3735a920a3ca505d382bbc02dd7bc7dec4dceedda775e58dd541e08a116c6c53815c0bd028192f7b626800b10e2d527612073b26eecdfd717e6a320cf44b4afac2b0732d9fcbe2b7fa0cf6f2e23d0b2e0f1fed13bd95c077635dcbf4fe0d3d37aacc93669f4512b61ca87d80bb2b638cc20bc4d0a60d66940f3ab4a00c1d7b313497ca82fb0b4ab0079304f0c57e16840df040f15088dc2f81fe391c3923bec73e23a9662efc9c229c6a0080bb2b638cc20bc4d0a60d66940f3ab4a00c1d7b313497ca82fb0b4ab007930137c58c799b6609234b945e882912ee9ad34948a1dfaa20a97485e1a7752bbf81a264697066735822122026b574c94ab941b31742bb0e730e66ccb280db1fdddbafe9e48ce4039827a33e64736f6c634300081b0033f0c57e16840df040f15088dc2f81fe391c3923bec73e23a9662efc9c229c6a00","opcodes":"PUSH1 0xA0 DUP1 PUSH1 0x40 MSTORE CALLVALUE PUSH2 0xC2 JUMPI ADDRESS PUSH1 0x80 MSTORE PUSH0 MLOAD PUSH1 0x20 PUSH2 0x2FC5 PUSH0 CODECOPY PUSH0 MLOAD SWAP1 PUSH0 MSTORE SLOAD PUSH1 0xFF DUP2 PUSH1 0x40 SHR AND PUSH2 0xB3 JUMPI PUSH1 0x2 PUSH1 0x1 PUSH1 0x40 SHL SUB NOT PUSH1 0x1 PUSH1 0x1 PUSH1 0x40 SHL SUB DUP3 AND ADD PUSH2 0x60 JUMPI JUMPDEST PUSH1 0x40 MLOAD PUSH2 0x2EFE SWAP1 DUP2 PUSH2 0xC7 DUP3 CODECOPY PUSH1 0x80 MLOAD DUP2 DUP2 DUP2 PUSH2 0xD74 ADD MSTORE PUSH2 0xE06 ADD MSTORE RETURN JUMPDEST PUSH1 0x1 PUSH1 0x1 PUSH1 0x40 SHL SUB NOT AND PUSH1 0x1 PUSH1 0x1 PUSH1 0x40 SHL SUB SWAP1 DUP2 OR PUSH0 MLOAD PUSH1 0x20 PUSH2 0x2FC5 PUSH0 CODECOPY PUSH0 MLOAD SWAP1 PUSH0 MSTORE SSTORE DUP2 MSTORE PUSH32 0xC7F505B2F371AE2175EE4913F4499E1F2633A7B5936321EED1CDAEB6115181D2 SWAP1 PUSH1 0x20 SWAP1 LOG1 PUSH0 DUP1 PUSH2 0x41 JUMP JUMPDEST PUSH4 0xF92EE8A9 PUSH1 0xE0 SHL PUSH0 MSTORE PUSH1 0x4 PUSH0 REVERT JUMPDEST PUSH0 DUP1 REVERT INVALID PUSH1 0x80 DUP1 PUSH1 0x40 MSTORE PUSH1 0x4 CALLDATASIZE LT ISZERO PUSH2 0x12 JUMPI PUSH0 DUP1 REVERT JUMPDEST PUSH0 CALLDATALOAD PUSH1 0xE0 SHR SWAP1 DUP2 PUSH4 0x1FFC9A7 EQ PUSH2 0x1B12 JUMPI POP DUP1 PUSH4 0x6FDDE03 EQ PUSH2 0x1A68 JUMPI DUP1 PUSH4 0x81812FC EQ PUSH2 0x1A1F JUMPI DUP1 PUSH4 0x95EA7B3 EQ PUSH2 0x1933 JUMPI DUP1 PUSH4 0x18160DDD EQ PUSH2 0x1917 JUMPI DUP1 PUSH4 0x23B872DD EQ PUSH2 0x1900 JUMPI DUP1 PUSH4 0x248A9CA3 EQ PUSH2 0x18C1 JUMPI DUP1 PUSH4 0x2BA1B5E3 EQ PUSH2 0x1637 JUMPI DUP1 PUSH4 0x2F2FF15D EQ PUSH2 0x15ED JUMPI DUP1 PUSH4 0x36568ABE EQ PUSH2 0x15A9 JUMPI DUP1 PUSH4 0x42842E0E EQ PUSH2 0x157A JUMPI DUP1 PUSH4 0x4571E3A6 EQ PUSH2 0xF82 JUMPI DUP1 PUSH4 0x4F1EF286 EQ PUSH2 0xDC8 JUMPI DUP1 PUSH4 0x52D1902D EQ PUSH2 0xD62 JUMPI DUP1 PUSH4 0x536565C4 EQ PUSH2 0xCB6 JUMPI DUP1 PUSH4 0x550989A0 EQ PUSH2 0xC5E JUMPI DUP1 PUSH4 0x55F804B3 EQ PUSH2 0xA94 JUMPI DUP1 PUSH4 0x6352211E EQ PUSH2 0xA64 JUMPI DUP1 PUSH4 0x70A08231 EQ PUSH2 0xA15 JUMPI DUP1 PUSH4 0x7F1226DC EQ PUSH2 0x6F8 JUMPI DUP1 PUSH4 0x90B057A0 EQ PUSH2 0x6C0 JUMPI DUP1 PUSH4 0x91D14854 EQ PUSH2 0x66B JUMPI DUP1 PUSH4 0x95D89B41 EQ PUSH2 0x589 JUMPI DUP1 PUSH4 0x9BA9B29D EQ PUSH2 0x521 JUMPI DUP1 PUSH4 0xA217FDDF EQ PUSH2 0x507 JUMPI DUP1 PUSH4 0xA22CB465 EQ PUSH2 0x44D JUMPI DUP1 PUSH4 0xAD3CB1CC EQ PUSH2 0x406 JUMPI DUP1 PUSH4 0xB88D4FDE EQ PUSH2 0x3AC JUMPI DUP1 PUSH4 0xBC38D48C EQ PUSH2 0x2F8 JUMPI DUP1 PUSH4 0xC6530E41 EQ PUSH2 0x19D JUMPI DUP1 PUSH4 0xC87B56DD EQ PUSH2 0x2C1 JUMPI DUP1 PUSH4 0xD5391393 EQ PUSH2 0x287 JUMPI DUP1 PUSH4 0xD547741F EQ PUSH2 0x236 JUMPI DUP1 PUSH4 0xE985E9C5 EQ PUSH2 0x1EA JUMPI PUSH4 0xF1CAA2F8 EQ PUSH2 0x19D JUMPI PUSH0 DUP1 REVERT JUMPDEST CALLVALUE PUSH2 0x1E6 JUMPI PUSH1 0x40 CALLDATASIZE PUSH1 0x3 NOT ADD SLT PUSH2 0x1E6 JUMPI PUSH1 0x1 PUSH1 0x1 PUSH1 0xA0 SHL SUB PUSH2 0x1BE PUSH2 0x1BD5 JUMP JUMPDEST AND PUSH0 MSTORE PUSH1 0x4 PUSH1 0x20 MSTORE PUSH1 0x40 PUSH0 KECCAK256 PUSH1 0x24 CALLDATALOAD PUSH0 MSTORE PUSH1 0x20 MSTORE PUSH1 0x20 PUSH1 0xFF PUSH1 0x40 PUSH0 KECCAK256 SLOAD AND PUSH1 0x40 MLOAD SWAP1 ISZERO ISZERO DUP2 MSTORE RETURN JUMPDEST PUSH0 DUP1 REVERT JUMPDEST CALLVALUE PUSH2 0x1E6 JUMPI PUSH1 0x40 CALLDATASIZE PUSH1 0x3 NOT ADD SLT PUSH2 0x1E6 JUMPI PUSH2 0x203 PUSH2 0x1BD5 JUMP JUMPDEST PUSH2 0x214 PUSH2 0x20E PUSH2 0x1BEB JUMP JUMPDEST SWAP2 PUSH2 0x1D0E JUMP JUMPDEST SWAP1 PUSH1 0x1 DUP1 PUSH1 0xA0 SHL SUB AND PUSH0 MSTORE PUSH1 0x20 MSTORE PUSH1 0x20 PUSH1 0xFF PUSH1 0x40 PUSH0 KECCAK256 SLOAD AND PUSH1 0x40 MLOAD SWAP1 ISZERO ISZERO DUP2 MSTORE RETURN JUMPDEST CALLVALUE PUSH2 0x1E6 JUMPI PUSH1 0x40 CALLDATASIZE PUSH1 0x3 NOT ADD SLT PUSH2 0x1E6 JUMPI PUSH2 0x285 PUSH1 0x4 CALLDATALOAD PUSH2 0x255 PUSH2 0x1BEB JUMP JUMPDEST SWAP1 PUSH2 0x280 PUSH2 0x27B DUP3 PUSH0 MSTORE PUSH0 MLOAD PUSH1 0x20 PUSH2 0x2DE9 PUSH0 CODECOPY PUSH0 MLOAD SWAP1 PUSH0 MSTORE PUSH1 0x20 MSTORE PUSH1 0x1 PUSH1 0x40 PUSH0 KECCAK256 ADD SLOAD SWAP1 JUMP JUMPDEST PUSH2 0x2290 JUMP JUMPDEST PUSH2 0x28A8 JUMP JUMPDEST STOP JUMPDEST CALLVALUE PUSH2 0x1E6 JUMPI PUSH0 CALLDATASIZE PUSH1 0x3 NOT ADD SLT PUSH2 0x1E6 JUMPI PUSH1 0x20 PUSH1 0x40 MLOAD PUSH32 0x9F2DF0FED2C77648DE5860A4CC508CD0818C85B8B8A1AB4CEEEF8D981C8956A6 DUP2 MSTORE RETURN JUMPDEST CALLVALUE PUSH2 0x1E6 JUMPI PUSH1 0x20 CALLDATASIZE PUSH1 0x3 NOT ADD SLT PUSH2 0x1E6 JUMPI PUSH2 0x2F4 PUSH2 0x2E0 PUSH1 0x4 CALLDATALOAD PUSH2 0x2ADF JUMP JUMPDEST PUSH1 0x40 MLOAD SWAP2 DUP3 SWAP2 PUSH1 0x20 DUP4 MSTORE PUSH1 0x20 DUP4 ADD SWAP1 PUSH2 0x1BB1 JUMP JUMPDEST SUB SWAP1 RETURN JUMPDEST CALLVALUE PUSH2 0x1E6 JUMPI PUSH1 0x20 CALLDATASIZE PUSH1 0x3 NOT ADD SLT PUSH2 0x1E6 JUMPI PUSH1 0x1 PUSH1 0x1 PUSH1 0xA0 SHL SUB PUSH2 0x319 PUSH2 0x1BD5 JUMP JUMPDEST AND PUSH0 MSTORE PUSH1 0x3 PUSH1 0x20 MSTORE PUSH1 0x40 PUSH0 KECCAK256 PUSH1 0x40 MLOAD DUP1 PUSH1 0x20 DUP4 SLOAD SWAP2 DUP3 DUP2 MSTORE ADD SWAP1 DUP2 SWAP4 PUSH0 MSTORE PUSH1 0x20 PUSH0 KECCAK256 SWAP1 PUSH0 JUMPDEST DUP2 DUP2 LT PUSH2 0x396 JUMPI POP POP POP DUP2 PUSH2 0x354 SWAP2 SUB DUP3 PUSH2 0x1C56 JUMP JUMPDEST PUSH1 0x40 MLOAD SWAP2 DUP3 SWAP2 PUSH1 0x20 DUP4 ADD SWAP1 PUSH1 0x20 DUP5 MSTORE MLOAD DUP1 SWAP2 MSTORE PUSH1 0x40 DUP4 ADD SWAP2 SWAP1 PUSH0 JUMPDEST DUP2 DUP2 LT PUSH2 0x37D JUMPI POP POP POP SUB SWAP1 RETURN JUMPDEST DUP3 MLOAD DUP5 MSTORE DUP6 SWAP5 POP PUSH1 0x20 SWAP4 DUP5 ADD SWAP4 SWAP1 SWAP3 ADD SWAP2 PUSH1 0x1 ADD PUSH2 0x36F JUMP JUMPDEST DUP3 SLOAD DUP5 MSTORE PUSH1 0x20 SWAP1 SWAP4 ADD SWAP3 PUSH1 0x1 SWAP3 DUP4 ADD SWAP3 ADD PUSH2 0x33E JUMP JUMPDEST CALLVALUE PUSH2 0x1E6 JUMPI PUSH1 0x80 CALLDATASIZE PUSH1 0x3 NOT ADD SLT PUSH2 0x1E6 JUMPI PUSH2 0x3C5 PUSH2 0x1BD5 JUMP JUMPDEST PUSH2 0x3CD PUSH2 0x1BEB JUMP JUMPDEST SWAP1 PUSH1 0x44 CALLDATALOAD PUSH1 0x64 CALLDATALOAD SWAP3 PUSH1 0x1 PUSH1 0x1 PUSH1 0x40 SHL SUB DUP5 GT PUSH2 0x1E6 JUMPI PUSH2 0x3F4 PUSH2 0x285 SWAP5 CALLDATASIZE SWAP1 PUSH1 0x4 ADD PUSH2 0x1C92 JUMP JUMPDEST SWAP3 PUSH2 0x400 DUP4 DUP4 DUP4 PUSH2 0x1EE9 JUMP JUMPDEST CALLER PUSH2 0x297D JUMP JUMPDEST CALLVALUE PUSH2 0x1E6 JUMPI PUSH0 CALLDATASIZE PUSH1 0x3 NOT ADD SLT PUSH2 0x1E6 JUMPI PUSH2 0x2F4 PUSH1 0x40 MLOAD PUSH2 0x427 PUSH1 0x40 DUP3 PUSH2 0x1C56 JUMP JUMPDEST PUSH1 0x5 DUP2 MSTORE PUSH5 0x352E302E3 PUSH1 0xDC SHL PUSH1 0x20 DUP3 ADD MSTORE PUSH1 0x40 MLOAD SWAP2 DUP3 SWAP2 PUSH1 0x20 DUP4 MSTORE PUSH1 0x20 DUP4 ADD SWAP1 PUSH2 0x1BB1 JUMP JUMPDEST CALLVALUE PUSH2 0x1E6 JUMPI PUSH1 0x40 CALLDATASIZE PUSH1 0x3 NOT ADD SLT PUSH2 0x1E6 JUMPI PUSH2 0x466 PUSH2 0x1BD5 JUMP JUMPDEST PUSH1 0x24 CALLDATALOAD SWAP1 DUP2 ISZERO ISZERO SWAP1 DUP2 DUP4 SUB PUSH2 0x1E6 JUMPI CALLER ISZERO PUSH2 0x4F4 JUMPI PUSH1 0x1 PUSH1 0x1 PUSH1 0xA0 SHL SUB AND SWAP2 DUP3 ISZERO PUSH2 0x4E1 JUMPI PUSH2 0x4B3 SWAP1 PUSH2 0x498 CALLER PUSH2 0x1D0E JUMP JUMPDEST DUP5 PUSH0 MSTORE PUSH1 0x20 MSTORE PUSH1 0x40 PUSH0 KECCAK256 SWAP1 PUSH1 0xFF DUP1 NOT DUP4 SLOAD AND SWAP2 ISZERO ISZERO AND OR SWAP1 SSTORE JUMP JUMPDEST PUSH1 0x40 MLOAD SWAP1 DUP2 MSTORE PUSH32 0x17307EAB39AB6107E8899845AD3D59BD9653F200F220920489CA2B5937696C31 PUSH1 0x20 CALLER SWAP3 LOG3 STOP JUMPDEST DUP3 PUSH4 0xB611743 PUSH1 0xE3 SHL PUSH0 MSTORE PUSH1 0x4 MSTORE PUSH1 0x24 PUSH0 REVERT JUMPDEST PUSH4 0xA9FBF51F PUSH1 0xE0 SHL PUSH0 MSTORE PUSH0 PUSH1 0x4 MSTORE PUSH1 0x24 PUSH0 REVERT JUMPDEST CALLVALUE PUSH2 0x1E6 JUMPI PUSH0 CALLDATASIZE PUSH1 0x3 NOT ADD SLT PUSH2 0x1E6 JUMPI PUSH1 0x20 PUSH1 0x40 MLOAD PUSH0 DUP2 MSTORE RETURN JUMPDEST CALLVALUE PUSH2 0x1E6 JUMPI PUSH1 0x20 CALLDATASIZE PUSH1 0x3 NOT ADD SLT PUSH2 0x1E6 JUMPI PUSH1 0x4 CALLDATALOAD PUSH0 MSTORE PUSH1 0x2 PUSH1 0x20 MSTORE PUSH1 0x40 PUSH0 KECCAK256 DUP1 SLOAD PUSH2 0x54E PUSH1 0x1 DUP4 ADD PUSH2 0x1E4B JUMP JUMPDEST SWAP2 PUSH1 0xFF PUSH1 0x3 PUSH1 0x2 DUP4 ADD SLOAD SWAP3 ADD SLOAD AND PUSH2 0x578 PUSH1 0x40 MLOAD SWAP5 DUP6 SWAP5 DUP6 MSTORE PUSH1 0x80 PUSH1 0x20 DUP7 ADD MSTORE PUSH1 0x80 DUP6 ADD SWAP1 PUSH2 0x1BB1 JUMP JUMPDEST SWAP2 PUSH1 0x40 DUP5 ADD MSTORE ISZERO ISZERO PUSH1 0x60 DUP4 ADD MSTORE SUB SWAP1 RETURN JUMPDEST CALLVALUE PUSH2 0x1E6 JUMPI PUSH0 CALLDATASIZE PUSH1 0x3 NOT ADD SLT PUSH2 0x1E6 JUMPI PUSH1 0x40 MLOAD PUSH0 PUSH0 MLOAD PUSH1 0x20 PUSH2 0x2E89 PUSH0 CODECOPY PUSH0 MLOAD SWAP1 PUSH0 MSTORE SLOAD PUSH2 0x5B5 DUP2 PUSH2 0x1D6F JUMP JUMPDEST DUP1 DUP5 MSTORE SWAP1 PUSH1 0x1 DUP2 AND SWAP1 DUP2 ISZERO PUSH2 0x647 JUMPI POP PUSH1 0x1 EQ PUSH2 0x5DD JUMPI JUMPDEST PUSH2 0x2F4 DUP4 PUSH2 0x2E0 DUP2 DUP6 SUB DUP3 PUSH2 0x1C56 JUMP JUMPDEST PUSH0 MLOAD PUSH1 0x20 PUSH2 0x2E89 PUSH0 CODECOPY PUSH0 MLOAD SWAP1 PUSH0 MSTORE PUSH0 SWAP1 DUP2 MSTORE PUSH32 0xF4BAD0A69248F59680A4F2B3000328CEC71A413447C96781CFE5996DAA8C456E SWAP4 SWAP3 POP SWAP1 JUMPDEST DUP1 DUP3 LT PUSH2 0x62D JUMPI POP SWAP1 SWAP2 POP DUP2 ADD PUSH1 0x20 ADD PUSH2 0x2E0 PUSH2 0x5CD JUMP JUMPDEST SWAP2 SWAP3 PUSH1 0x1 DUP2 PUSH1 0x20 SWAP3 SLOAD DUP4 DUP6 DUP9 ADD ADD MSTORE ADD SWAP2 ADD SWAP1 SWAP3 SWAP2 PUSH2 0x615 JUMP JUMPDEST PUSH1 0xFF NOT AND PUSH1 0x20 DUP1 DUP7 ADD SWAP2 SWAP1 SWAP2 MSTORE SWAP2 ISZERO ISZERO PUSH1 0x5 SHL DUP5 ADD SWAP1 SWAP2 ADD SWAP2 POP PUSH2 0x2E0 SWAP1 POP PUSH2 0x5CD JUMP JUMPDEST CALLVALUE PUSH2 0x1E6 JUMPI PUSH1 0x40 CALLDATASIZE PUSH1 0x3 NOT ADD SLT PUSH2 0x1E6 JUMPI PUSH2 0x684 PUSH2 0x1BEB JUMP JUMPDEST PUSH1 0x4 CALLDATALOAD PUSH0 MSTORE PUSH0 MLOAD PUSH1 0x20 PUSH2 0x2DE9 PUSH0 CODECOPY PUSH0 MLOAD SWAP1 PUSH0 MSTORE PUSH1 0x20 MSTORE PUSH1 0x40 PUSH0 KECCAK256 SWAP1 PUSH1 0x1 DUP1 PUSH1 0xA0 SHL SUB AND PUSH0 MSTORE PUSH1 0x20 MSTORE PUSH1 0x20 PUSH1 0xFF PUSH1 0x40 PUSH0 KECCAK256 SLOAD AND PUSH1 0x40 MLOAD SWAP1 ISZERO ISZERO DUP2 MSTORE RETURN JUMPDEST CALLVALUE PUSH2 0x1E6 JUMPI PUSH1 0x20 CALLDATASIZE PUSH1 0x3 NOT ADD SLT PUSH2 0x1E6 JUMPI PUSH1 0x1 PUSH1 0x1 PUSH1 0xA0 SHL SUB PUSH2 0x6E1 PUSH2 0x1BD5 JUMP JUMPDEST AND PUSH0 MSTORE PUSH1 0x3 PUSH1 0x20 MSTORE PUSH1 0x20 PUSH1 0x40 PUSH0 KECCAK256 SLOAD PUSH1 0x40 MLOAD SWAP1 DUP2 MSTORE RETURN JUMPDEST CALLVALUE PUSH2 0x1E6 JUMPI PUSH1 0x80 CALLDATASIZE PUSH1 0x3 NOT ADD SLT PUSH2 0x1E6 JUMPI PUSH2 0x711 PUSH2 0x1BD5 JUMP JUMPDEST PUSH1 0x24 CALLDATALOAD SWAP1 PUSH1 0x44 CALLDATALOAD PUSH1 0x1 PUSH1 0x1 PUSH1 0x40 SHL SUB DUP2 GT PUSH2 0x1E6 JUMPI PUSH2 0x734 SWAP1 CALLDATASIZE SWAP1 PUSH1 0x4 ADD PUSH2 0x1C92 JUMP JUMPDEST SWAP2 PUSH1 0x64 CALLDATALOAD PUSH1 0x1 PUSH1 0x1 PUSH1 0x40 SHL SUB DUP2 GT PUSH2 0x1E6 JUMPI PUSH2 0x754 SWAP1 CALLDATASIZE SWAP1 PUSH1 0x4 ADD PUSH2 0x1C92 JUMP JUMPDEST PUSH2 0x75C PUSH2 0x21D2 JUMP JUMPDEST PUSH1 0x1 PUSH1 0x1 PUSH1 0xA0 SHL SUB DUP4 AND SWAP2 PUSH2 0x772 DUP4 ISZERO ISZERO PUSH2 0x20C8 JUMP JUMPDEST PUSH2 0x77D DUP2 ISZERO ISZERO PUSH2 0x2108 JUMP JUMPDEST DUP5 MLOAD ISZERO PUSH2 0x9DC JUMPI PUSH2 0x79B PUSH2 0x791 PUSH0 SLOAD PUSH2 0x2148 JUMP JUMPDEST DUP1 SWAP6 DUP2 PUSH0 SSTORE PUSH2 0x22D6 JUMP JUMPDEST PUSH2 0x7A5 DUP3 DUP6 PUSH2 0x2504 JUMP JUMPDEST PUSH1 0x40 MLOAD SWAP2 PUSH2 0x7B2 DUP4 PUSH2 0x1C3B JUMP JUMPDEST DUP2 DUP4 MSTORE PUSH1 0x20 DUP4 ADD DUP7 DUP2 MSTORE PUSH1 0x40 DUP5 ADD TIMESTAMP DUP2 MSTORE PUSH1 0x60 DUP6 ADD SWAP2 PUSH1 0x1 DUP4 MSTORE DUP8 PUSH0 MSTORE PUSH1 0x2 PUSH1 0x20 MSTORE PUSH1 0x40 PUSH0 KECCAK256 SWAP6 MLOAD DUP7 SSTORE PUSH1 0x1 DUP7 ADD SWAP1 MLOAD DUP1 MLOAD SWAP1 PUSH1 0x1 PUSH1 0x1 PUSH1 0x40 SHL SUB DUP3 GT PUSH2 0x9C8 JUMPI PUSH2 0x7FD DUP4 SLOAD PUSH2 0x1D6F JUMP JUMPDEST PUSH1 0x1F DUP2 GT PUSH2 0x983 JUMPI JUMPDEST POP SWAP2 PUSH1 0x20 SWAP11 SWAP6 SWAP4 SWAP2 DUP11 SWAP8 SWAP6 SWAP4 DUP13 SWAP1 PUSH1 0x1F DUP4 GT PUSH1 0x1 EQ PUSH2 0x8E7 JUMPI SWAP4 PUSH0 MLOAD PUSH1 0x20 PUSH2 0x2E29 PUSH0 CODECOPY PUSH0 MLOAD SWAP1 PUSH0 MSTORE SWAP10 SWAP11 SWAP4 DUP4 PUSH1 0x3 SWAP5 PUSH2 0x8D1 SWAP10 SWAP9 SWAP5 PUSH2 0x875 SWAP9 PUSH0 SWAP3 PUSH2 0x8DC JUMPI JUMPDEST POP POP DUP2 PUSH1 0x1 SHL SWAP2 PUSH0 NOT SWAP1 DUP8 SHL SHR NOT AND OR SWAP1 SSTORE JUMPDEST MLOAD PUSH1 0x2 DUP5 ADD SSTORE MLOAD ISZERO ISZERO SWAP2 ADD SWAP1 PUSH1 0xFF DUP1 NOT DUP4 SLOAD AND SWAP2 ISZERO ISZERO AND OR SWAP1 SSTORE JUMP JUMPDEST DUP7 PUSH0 MSTORE PUSH1 0x3 DUP10 MSTORE PUSH2 0x889 DUP7 PUSH1 0x40 PUSH0 KECCAK256 PUSH2 0x216A JUMP JUMPDEST DUP7 PUSH0 MSTORE PUSH1 0x4 DUP10 MSTORE PUSH1 0x40 PUSH0 KECCAK256 DUP4 PUSH0 MSTORE DUP10 MSTORE PUSH1 0x40 PUSH0 KECCAK256 PUSH1 0x1 PUSH1 0xFF NOT DUP3 SLOAD AND OR SWAP1 SSTORE PUSH2 0x8C3 PUSH1 0x40 MLOAD SWAP5 DUP6 SWAP5 DUP6 MSTORE PUSH1 0x60 DUP12 DUP7 ADD MSTORE PUSH1 0x60 DUP6 ADD SWAP1 PUSH2 0x1BB1 JUMP JUMPDEST SWAP1 DUP4 DUP3 SUB PUSH1 0x40 DUP6 ADD MSTORE PUSH2 0x1BB1 JUMP JUMPDEST SUB SWAP1 LOG3 PUSH1 0x40 MLOAD SWAP1 DUP2 MSTORE RETURN JUMPDEST ADD MLOAD SWAP1 POP PUSH0 DUP1 PUSH2 0x846 JUMP JUMPDEST SWAP10 SWAP5 SWAP4 SWAP3 SWAP2 SWAP1 PUSH1 0x1F NOT DUP3 AND SWAP11 DUP4 PUSH0 MSTORE DUP2 PUSH0 KECCAK256 SWAP12 PUSH0 JUMPDEST DUP2 DUP2 LT PUSH2 0x952 JUMPI POP DUP4 PUSH0 MLOAD PUSH1 0x20 PUSH2 0x2E29 PUSH0 CODECOPY PUSH0 MLOAD SWAP1 PUSH0 MSTORE SWAP13 SWAP14 PUSH2 0x8D1 SWAP11 SWAP10 SWAP8 SWAP5 PUSH1 0x3 SWAP8 SWAP5 PUSH2 0x875 SWAP11 SWAP8 PUSH1 0x1 SWAP6 LT PUSH2 0x93B JUMPI JUMPDEST POP POP POP DUP2 SHL ADD SWAP1 SSTORE PUSH2 0x859 JUMP JUMPDEST ADD MLOAD PUSH0 NOT DUP4 DUP10 SHL PUSH1 0xF8 AND SHR NOT AND SWAP1 SSTORE PUSH0 DUP1 DUP1 PUSH2 0x92E JUMP JUMPDEST SWAP4 SWAP6 SWAP8 SWAP10 SWAP12 POP SWAP1 SWAP2 SWAP4 SWAP6 SWAP8 SWAP10 SWAP12 DUP16 PUSH1 0x1 DUP2 SWAP3 DUP8 DUP7 ADD MLOAD DUP2 SSTORE ADD SWAP6 ADD SWAP4 ADD SWAP1 DUP15 SWAP12 SWAP10 SWAP8 SWAP6 SWAP4 SWAP3 SWAP2 SWAP13 SWAP11 SWAP9 SWAP7 SWAP5 SWAP13 PUSH2 0x8FC JUMP JUMPDEST DUP4 PUSH0 MSTORE PUSH1 0x20 PUSH0 KECCAK256 PUSH1 0x1F DUP5 ADD PUSH1 0x5 SHR DUP2 ADD SWAP2 PUSH1 0x20 DUP6 LT PUSH2 0x9BE JUMPI JUMPDEST PUSH1 0x1F ADD PUSH1 0x5 SHR ADD SWAP1 JUMPDEST DUP2 DUP2 LT PUSH2 0x9B3 JUMPI POP PUSH2 0x806 JUMP JUMPDEST PUSH0 DUP2 SSTORE PUSH1 0x1 ADD PUSH2 0x9A6 JUMP JUMPDEST SWAP1 SWAP2 POP DUP2 SWAP1 PUSH2 0x99D JUMP JUMPDEST PUSH4 0x4E487B71 PUSH1 0xE0 SHL PUSH0 MSTORE PUSH1 0x41 PUSH1 0x4 MSTORE PUSH1 0x24 PUSH0 REVERT JUMPDEST PUSH1 0x40 MLOAD PUSH3 0x461BCD PUSH1 0xE5 SHL DUP2 MSTORE PUSH1 0x20 PUSH1 0x4 DUP3 ADD MSTORE PUSH1 0x11 PUSH1 0x24 DUP3 ADD MSTORE PUSH17 0x125B9D985B1A59081C1C9BD91D58DD1259 PUSH1 0x7A SHL PUSH1 0x44 DUP3 ADD MSTORE PUSH1 0x64 SWAP1 REVERT JUMPDEST CALLVALUE PUSH2 0x1E6 JUMPI PUSH1 0x20 CALLDATASIZE PUSH1 0x3 NOT ADD SLT PUSH2 0x1E6 JUMPI PUSH2 0xA2E PUSH2 0x1BD5 JUMP JUMPDEST PUSH1 0x1 PUSH1 0x1 PUSH1 0xA0 SHL SUB DUP2 AND ISZERO PUSH2 0xA51 JUMPI PUSH2 0xA48 PUSH1 0x20 SWAP2 PUSH2 0x1CD6 JUMP JUMPDEST SLOAD PUSH1 0x40 MLOAD SWAP1 DUP2 MSTORE RETURN JUMPDEST PUSH4 0x22718AD9 PUSH1 0xE2 SHL PUSH0 MSTORE PUSH0 PUSH1 0x4 MSTORE PUSH1 0x24 PUSH0 REVERT JUMPDEST CALLVALUE PUSH2 0x1E6 JUMPI PUSH1 0x20 CALLDATASIZE PUSH1 0x3 NOT ADD SLT PUSH2 0x1E6 JUMPI PUSH1 0x20 PUSH2 0xA82 PUSH1 0x4 CALLDATALOAD PUSH2 0x21A3 JUMP JUMPDEST PUSH1 0x40 MLOAD PUSH1 0x1 PUSH1 0x1 PUSH1 0xA0 SHL SUB SWAP1 SWAP2 AND DUP2 MSTORE RETURN JUMPDEST CALLVALUE PUSH2 0x1E6 JUMPI PUSH1 0x20 CALLDATASIZE PUSH1 0x3 NOT ADD SLT PUSH2 0x1E6 JUMPI PUSH1 0x4 CALLDATALOAD PUSH1 0x1 PUSH1 0x1 PUSH1 0x40 SHL SUB DUP2 GT PUSH2 0x1E6 JUMPI PUSH2 0xAC4 SWAP1 CALLDATASIZE SWAP1 PUSH1 0x4 ADD PUSH2 0x1C92 JUMP JUMPDEST PUSH2 0xACC PUSH2 0x2241 JUMP JUMPDEST DUP1 MLOAD PUSH1 0x1 PUSH1 0x1 PUSH1 0x40 SHL SUB DUP2 GT PUSH2 0x9C8 JUMPI PUSH2 0xAE7 PUSH1 0x1 SLOAD PUSH2 0x1D6F JUMP JUMPDEST PUSH1 0x1F DUP2 GT PUSH2 0xBF6 JUMPI JUMPDEST POP PUSH1 0x20 PUSH1 0x1F DUP3 GT PUSH1 0x1 EQ PUSH2 0xB64 JUMPI SWAP2 DUP2 PUSH2 0xB54 SWAP3 PUSH32 0x6741B2FC379FAD678116FE3D4D4B9A1A184AB53BA36B86AD0FA66340B1AB41AD SWAP5 PUSH0 SWAP2 PUSH2 0xB59 JUMPI JUMPDEST POP DUP2 PUSH1 0x1 SHL SWAP2 PUSH0 NOT SWAP1 PUSH1 0x3 SHL SHR NOT AND OR PUSH1 0x1 SSTORE PUSH1 0x40 MLOAD SWAP2 DUP3 SWAP2 PUSH1 0x20 DUP4 MSTORE PUSH1 0x20 DUP4 ADD SWAP1 PUSH2 0x1BB1 JUMP JUMPDEST SUB SWAP1 LOG1 STOP JUMPDEST SWAP1 POP DUP3 ADD MLOAD DUP6 PUSH2 0xB2D JUMP JUMPDEST PUSH1 0x1F NOT DUP3 AND SWAP1 PUSH1 0x1 PUSH0 MSTORE PUSH0 MLOAD PUSH1 0x20 PUSH2 0x2E09 PUSH0 CODECOPY PUSH0 MLOAD SWAP1 PUSH0 MSTORE SWAP2 PUSH0 JUMPDEST DUP2 DUP2 LT PUSH2 0xBDE JUMPI POP SWAP3 PUSH32 0x6741B2FC379FAD678116FE3D4D4B9A1A184AB53BA36B86AD0FA66340B1AB41AD SWAP5 SWAP3 PUSH1 0x1 SWAP3 DUP3 PUSH2 0xB54 SWAP7 LT PUSH2 0xBC6 JUMPI JUMPDEST POP POP DUP2 SHL ADD PUSH1 0x1 SSTORE PUSH2 0x2E0 JUMP JUMPDEST DUP5 ADD MLOAD PUSH0 NOT PUSH1 0xF8 DUP5 PUSH1 0x3 SHL AND SHR NOT AND SWAP1 SSTORE DUP6 DUP1 PUSH2 0xBB9 JUMP JUMPDEST SWAP2 SWAP3 PUSH1 0x20 PUSH1 0x1 DUP2 SWAP3 DUP7 DUP10 ADD MLOAD DUP2 SSTORE ADD SWAP5 ADD SWAP3 ADD PUSH2 0xB7F JUMP JUMPDEST PUSH1 0x1 PUSH0 MSTORE PUSH1 0x1F DUP3 ADD PUSH1 0x5 SHR PUSH0 MLOAD PUSH1 0x20 PUSH2 0x2E09 PUSH0 CODECOPY PUSH0 MLOAD SWAP1 PUSH0 MSTORE ADD SWAP1 PUSH1 0x20 DUP4 LT PUSH2 0xC49 JUMPI JUMPDEST PUSH1 0x1F ADD PUSH1 0x5 SHR PUSH0 MLOAD PUSH1 0x20 PUSH2 0x2E09 PUSH0 CODECOPY PUSH0 MLOAD SWAP1 PUSH0 MSTORE ADD SWAP1 JUMPDEST DUP2 DUP2 LT PUSH2 0xC3E JUMPI POP PUSH2 0xAF0 JUMP JUMPDEST PUSH0 DUP2 SSTORE PUSH1 0x1 ADD PUSH2 0xC31 JUMP JUMPDEST PUSH0 MLOAD PUSH1 0x20 PUSH2 0x2E09 PUSH0 CODECOPY PUSH0 MLOAD SWAP1 PUSH0 MSTORE SWAP2 POP PUSH2 0xC1A JUMP JUMPDEST CALLVALUE PUSH2 0x1E6 JUMPI PUSH1 0x40 CALLDATASIZE PUSH1 0x3 NOT ADD SLT PUSH2 0x1E6 JUMPI PUSH2 0xC77 PUSH2 0x1BD5 JUMP JUMPDEST PUSH1 0x1 PUSH1 0x1 PUSH1 0xA0 SHL SUB AND PUSH0 SWAP1 DUP2 MSTORE PUSH1 0x3 PUSH1 0x20 MSTORE PUSH1 0x40 SWAP1 KECCAK256 DUP1 SLOAD PUSH1 0x24 CALLDATALOAD SWAP2 SWAP1 DUP3 LT ISZERO PUSH2 0x1E6 JUMPI PUSH1 0x20 SWAP2 PUSH2 0xCA7 SWAP2 PUSH2 0x1D46 JUMP JUMPDEST SWAP1 SLOAD SWAP1 PUSH1 0x3 SHL SHR PUSH1 0x40 MLOAD SWAP1 DUP2 MSTORE RETURN JUMPDEST CALLVALUE PUSH2 0x1E6 JUMPI PUSH1 0x20 CALLDATASIZE PUSH1 0x3 NOT ADD SLT PUSH2 0x1E6 JUMPI PUSH1 0x4 CALLDATALOAD PUSH2 0xCD2 PUSH2 0x21D2 JUMP JUMPDEST PUSH1 0x1 PUSH1 0x1 PUSH1 0xA0 SHL SUB PUSH2 0xCE3 DUP3 PUSH2 0x2944 JUMP JUMPDEST AND ISZERO PUSH2 0xD26 JUMPI DUP1 PUSH0 MSTORE PUSH1 0x2 PUSH1 0x20 MSTORE PUSH1 0x3 PUSH1 0x40 PUSH0 KECCAK256 ADD PUSH1 0xFF NOT DUP2 SLOAD AND SWAP1 SSTORE PUSH32 0x626E480980B0A9ED440B6D5CB0632BA9DB896768F3BF78FC167DE63B7658CF76 PUSH0 DUP1 LOG2 STOP JUMPDEST PUSH1 0x40 MLOAD PUSH3 0x461BCD PUSH1 0xE5 SHL DUP2 MSTORE PUSH1 0x20 PUSH1 0x4 DUP3 ADD MSTORE PUSH1 0x14 PUSH1 0x24 DUP3 ADD MSTORE PUSH20 0x151BDAD95B88191BD95CC81B9BDD08195E1A5CDD PUSH1 0x62 SHL PUSH1 0x44 DUP3 ADD MSTORE PUSH1 0x64 SWAP1 REVERT JUMPDEST CALLVALUE PUSH2 0x1E6 JUMPI PUSH0 CALLDATASIZE PUSH1 0x3 NOT ADD SLT PUSH2 0x1E6 JUMPI PUSH32 0x0 PUSH1 0x1 PUSH1 0x1 PUSH1 0xA0 SHL SUB AND ADDRESS SUB PUSH2 0xDB9 JUMPI PUSH1 0x20 PUSH1 0x40 MLOAD PUSH0 MLOAD PUSH1 0x20 PUSH2 0x2DC9 PUSH0 CODECOPY PUSH0 MLOAD SWAP1 PUSH0 MSTORE DUP2 MSTORE RETURN JUMPDEST PUSH4 0x703E46DD PUSH1 0xE1 SHL PUSH0 MSTORE PUSH1 0x4 PUSH0 REVERT JUMPDEST PUSH1 0x40 CALLDATASIZE PUSH1 0x3 NOT ADD SLT PUSH2 0x1E6 JUMPI PUSH2 0xDDC PUSH2 0x1BD5 JUMP JUMPDEST PUSH1 0x24 CALLDATALOAD PUSH1 0x1 PUSH1 0x1 PUSH1 0x40 SHL SUB DUP2 GT PUSH2 0x1E6 JUMPI PUSH2 0xDFB SWAP1 CALLDATASIZE SWAP1 PUSH1 0x4 ADD PUSH2 0x1C92 JUMP JUMPDEST SWAP1 PUSH1 0x1 PUSH1 0x1 PUSH1 0xA0 SHL SUB PUSH32 0x0 AND ADDRESS DUP2 EQ SWAP1 DUP2 ISZERO PUSH2 0xF60 JUMPI JUMPDEST POP PUSH2 0xDB9 JUMPI PUSH2 0xE3E PUSH2 0x2241 JUMP JUMPDEST PUSH1 0x40 MLOAD PUSH4 0x52D1902D PUSH1 0xE0 SHL DUP2 MSTORE PUSH1 0x1 PUSH1 0x1 PUSH1 0xA0 SHL SUB DUP3 AND SWAP3 SWAP1 PUSH1 0x20 DUP2 PUSH1 0x4 DUP2 DUP8 GAS STATICCALL PUSH0 SWAP2 DUP2 PUSH2 0xF2C JUMPI JUMPDEST POP PUSH2 0xE80 JUMPI DUP4 PUSH4 0x4C9C8CE3 PUSH1 0xE0 SHL PUSH0 MSTORE PUSH1 0x4 MSTORE PUSH1 0x24 PUSH0 REVERT JUMPDEST DUP1 PUSH0 MLOAD PUSH1 0x20 PUSH2 0x2DC9 PUSH0 CODECOPY PUSH0 MLOAD SWAP1 PUSH0 MSTORE DUP6 SWAP3 SUB PUSH2 0xF1A JUMPI POP DUP3 EXTCODESIZE ISZERO PUSH2 0xF08 JUMPI PUSH0 MLOAD PUSH1 0x20 PUSH2 0x2DC9 PUSH0 CODECOPY PUSH0 MLOAD SWAP1 PUSH0 MSTORE DUP1 SLOAD PUSH1 0x1 PUSH1 0x1 PUSH1 0xA0 SHL SUB NOT AND DUP3 OR SWAP1 SSTORE PUSH32 0xBC7CD75A20EE27FD9ADEBAB32041F755214DBC6BFFA90CC0225B39DA2E5C2D3B PUSH0 DUP1 LOG2 DUP1 MLOAD ISZERO PUSH2 0xEF0 JUMPI PUSH2 0x285 SWAP2 PUSH2 0x2D1C JUMP JUMPDEST POP POP CALLVALUE PUSH2 0xEF9 JUMPI STOP JUMPDEST PUSH4 0xB398979F PUSH1 0xE0 SHL PUSH0 MSTORE PUSH1 0x4 PUSH0 REVERT JUMPDEST PUSH4 0x4C9C8CE3 PUSH1 0xE0 SHL PUSH0 MSTORE PUSH1 0x4 MSTORE PUSH1 0x24 PUSH0 REVERT JUMPDEST PUSH4 0x2A875269 PUSH1 0xE2 SHL PUSH0 MSTORE PUSH1 0x4 MSTORE PUSH1 0x24 PUSH0 REVERT JUMPDEST SWAP1 SWAP2 POP PUSH1 0x20 DUP2 RETURNDATASIZE PUSH1 0x20 GT PUSH2 0xF58 JUMPI JUMPDEST DUP2 PUSH2 0xF48 PUSH1 0x20 SWAP4 DUP4 PUSH2 0x1C56 JUMP JUMPDEST DUP2 ADD SUB SLT PUSH2 0x1E6 JUMPI MLOAD SWAP1 DUP6 PUSH2 0xE68 JUMP JUMPDEST RETURNDATASIZE SWAP2 POP PUSH2 0xF3B JUMP JUMPDEST PUSH0 MLOAD PUSH1 0x20 PUSH2 0x2DC9 PUSH0 CODECOPY PUSH0 MLOAD SWAP1 PUSH0 MSTORE SLOAD PUSH1 0x1 PUSH1 0x1 PUSH1 0xA0 SHL SUB AND EQ ISZERO SWAP1 POP DUP4 PUSH2 0xE31 JUMP JUMPDEST CALLVALUE PUSH2 0x1E6 JUMPI PUSH1 0x60 CALLDATASIZE PUSH1 0x3 NOT ADD SLT PUSH2 0x1E6 JUMPI PUSH2 0xF9B PUSH2 0x1BD5 JUMP JUMPDEST PUSH2 0xFA3 PUSH2 0x1BEB JUMP JUMPDEST SWAP1 PUSH1 0x44 CALLDATALOAD PUSH1 0x1 PUSH1 0x1 PUSH1 0x40 SHL SUB DUP2 GT PUSH2 0x1E6 JUMPI PUSH2 0xFC3 SWAP1 CALLDATASIZE SWAP1 PUSH1 0x4 ADD PUSH2 0x1C92 JUMP JUMPDEST SWAP2 PUSH0 MLOAD PUSH1 0x20 PUSH2 0x2E69 PUSH0 CODECOPY PUSH0 MLOAD SWAP1 PUSH0 MSTORE SLOAD SWAP1 PUSH1 0xFF DUP3 PUSH1 0x40 SHR AND ISZERO SWAP2 PUSH1 0x1 PUSH1 0x1 PUSH1 0x40 SHL SUB DUP2 AND DUP1 ISZERO SWAP1 DUP2 PUSH2 0x1572 JUMPI JUMPDEST PUSH1 0x1 EQ SWAP1 DUP2 PUSH2 0x1568 JUMPI JUMPDEST ISZERO SWAP1 DUP2 PUSH2 0x155F JUMPI JUMPDEST POP PUSH2 0x1550 JUMPI PUSH8 0xFFFFFFFFFFFFFFFF NOT DUP2 AND PUSH1 0x1 OR PUSH0 MLOAD PUSH1 0x20 PUSH2 0x2E69 PUSH0 CODECOPY PUSH0 MLOAD SWAP1 PUSH0 MSTORE SSTORE DUP3 PUSH2 0x1524 JUMPI JUMPDEST POP PUSH1 0x40 SWAP3 DUP4 MLOAD PUSH2 0x103B DUP6 DUP3 PUSH2 0x1C56 JUMP JUMPDEST PUSH1 0x15 DUP2 MSTORE PUSH21 0x436861696E6C657373204163636573732050617373 PUSH1 0x58 SHL PUSH1 0x20 DUP3 ADD MSTORE DUP5 MLOAD SWAP1 PUSH2 0x106A DUP7 DUP4 PUSH2 0x1C56 JUMP JUMPDEST PUSH1 0x3 DUP3 MSTORE PUSH3 0x43415 PUSH1 0xEC SHL PUSH1 0x20 DUP4 ADD MSTORE PUSH2 0x1082 PUSH2 0x2CF1 JUMP JUMPDEST PUSH2 0x108A PUSH2 0x2CF1 JUMP JUMPDEST DUP1 MLOAD SWAP1 PUSH1 0x1 PUSH1 0x1 PUSH1 0x40 SHL SUB DUP3 GT PUSH2 0x9C8 JUMPI DUP2 SWAP1 PUSH2 0x10B4 PUSH0 MLOAD PUSH1 0x20 PUSH2 0x2DA9 PUSH0 CODECOPY PUSH0 MLOAD SWAP1 PUSH0 MSTORE SLOAD PUSH2 0x1D6F JUMP JUMPDEST PUSH1 0x1F DUP2 GT PUSH2 0x14A6 JUMPI JUMPDEST POP PUSH1 0x20 SWAP1 PUSH1 0x1F DUP4 GT PUSH1 0x1 EQ PUSH2 0x141D JUMPI PUSH0 SWAP3 PUSH2 0x1412 JUMPI JUMPDEST POP POP DUP2 PUSH1 0x1 SHL SWAP2 PUSH0 NOT SWAP1 PUSH1 0x3 SHL SHR NOT AND OR PUSH0 MLOAD PUSH1 0x20 PUSH2 0x2DA9 PUSH0 CODECOPY PUSH0 MLOAD SWAP1 PUSH0 MSTORE SSTORE JUMPDEST DUP1 MLOAD SWAP1 PUSH1 0x1 PUSH1 0x1 PUSH1 0x40 SHL SUB DUP3 GT PUSH2 0x9C8 JUMPI PUSH2 0x111C PUSH0 MLOAD PUSH1 0x20 PUSH2 0x2E89 PUSH0 CODECOPY PUSH0 MLOAD SWAP1 PUSH0 MSTORE SLOAD PUSH2 0x1D6F JUMP JUMPDEST PUSH1 0x1F DUP2 GT PUSH2 0x13A3 JUMPI JUMPDEST POP PUSH1 0x20 SWAP1 PUSH1 0x1F DUP4 GT PUSH1 0x1 EQ PUSH2 0x131E JUMPI SWAP2 DUP1 PUSH2 0x1183 SWAP6 SWAP5 SWAP3 PUSH2 0x117D SWAP5 PUSH0 SWAP3 PUSH2 0x1313 JUMPI JUMPDEST POP POP DUP2 PUSH1 0x1 SHL SWAP2 PUSH0 NOT SWAP1 PUSH1 0x3 SHL SHR NOT AND OR PUSH0 MLOAD PUSH1 0x20 PUSH2 0x2E89 PUSH0 CODECOPY PUSH0 MLOAD SWAP1 PUSH0 MSTORE SSTORE JUMPDEST PUSH2 0x1170 PUSH2 0x2CF1 JUMP JUMPDEST PUSH2 0x1178 PUSH2 0x2CF1 JUMP JUMPDEST PUSH2 0x2689 JUMP JUMPDEST POP PUSH2 0x2738 JUMP JUMPDEST POP DUP3 MLOAD PUSH1 0x1 PUSH1 0x1 PUSH1 0x40 SHL SUB DUP2 GT PUSH2 0x9C8 JUMPI PUSH2 0x119F PUSH1 0x1 SLOAD PUSH2 0x1D6F JUMP JUMPDEST PUSH1 0x1F DUP2 GT PUSH2 0x12AB JUMPI JUMPDEST POP PUSH1 0x20 PUSH1 0x1F DUP3 GT PUSH1 0x1 EQ PUSH2 0x123D JUMPI DUP2 SWAP3 SWAP4 SWAP5 PUSH0 SWAP3 PUSH2 0x1232 JUMPI JUMPDEST POP POP DUP2 PUSH1 0x1 SHL SWAP2 PUSH0 NOT SWAP1 PUSH1 0x3 SHL SHR NOT AND OR PUSH1 0x1 SSTORE JUMPDEST PUSH2 0x11DC JUMPI STOP JUMPDEST PUSH1 0x20 PUSH32 0xC7F505B2F371AE2175EE4913F4499E1F2633A7B5936321EED1CDAEB6115181D2 SWAP2 PUSH9 0xFF0000000000000000 NOT PUSH0 MLOAD PUSH1 0x20 PUSH2 0x2E69 PUSH0 CODECOPY PUSH0 MLOAD SWAP1 PUSH0 MSTORE SLOAD AND PUSH0 MLOAD PUSH1 0x20 PUSH2 0x2E69 PUSH0 CODECOPY PUSH0 MLOAD SWAP1 PUSH0 MSTORE SSTORE MLOAD PUSH1 0x1 DUP2 MSTORE LOG1 STOP JUMPDEST ADD MLOAD SWAP1 POP DUP5 DUP1 PUSH2 0x11C1 JUMP JUMPDEST PUSH1 0x1F NOT DUP3 AND SWAP1 PUSH1 0x1 PUSH0 MSTORE PUSH0 MLOAD PUSH1 0x20 PUSH2 0x2E09 PUSH0 CODECOPY PUSH0 MLOAD SWAP1 PUSH0 MSTORE SWAP2 PUSH0 JUMPDEST DUP2 DUP2 LT PUSH2 0x1293 JUMPI POP SWAP6 DUP4 PUSH1 0x1 SWAP6 SWAP7 SWAP8 LT PUSH2 0x127B JUMPI JUMPDEST POP POP POP DUP2 SHL ADD PUSH1 0x1 SSTORE PUSH2 0x11D6 JUMP JUMPDEST ADD MLOAD PUSH0 NOT PUSH1 0xF8 DUP5 PUSH1 0x3 SHL AND SHR NOT AND SWAP1 SSTORE DUP5 DUP1 DUP1 PUSH2 0x126D JUMP JUMPDEST SWAP2 SWAP3 PUSH1 0x20 PUSH1 0x1 DUP2 SWAP3 DUP7 DUP12 ADD MLOAD DUP2 SSTORE ADD SWAP5 ADD SWAP3 ADD PUSH2 0x1258 JUMP JUMPDEST PUSH1 0x1 PUSH0 MSTORE PUSH1 0x1F DUP3 ADD PUSH1 0x5 SHR PUSH0 MLOAD PUSH1 0x20 PUSH2 0x2E09 PUSH0 CODECOPY PUSH0 MLOAD SWAP1 PUSH0 MSTORE ADD SWAP1 PUSH1 0x20 DUP4 LT PUSH2 0x12FE JUMPI JUMPDEST PUSH1 0x1F ADD PUSH1 0x5 SHR PUSH0 MLOAD PUSH1 0x20 PUSH2 0x2E09 PUSH0 CODECOPY PUSH0 MLOAD SWAP1 PUSH0 MSTORE ADD SWAP1 JUMPDEST DUP2 DUP2 LT PUSH2 0x12F3 JUMPI POP PUSH2 0x11A8 JUMP JUMPDEST PUSH0 DUP2 SSTORE PUSH1 0x1 ADD PUSH2 0x12E6 JUMP JUMPDEST PUSH0 MLOAD PUSH1 0x20 PUSH2 0x2E09 PUSH0 CODECOPY PUSH0 MLOAD SWAP1 PUSH0 MSTORE SWAP2 POP PUSH2 0x12CF JUMP JUMPDEST ADD MLOAD SWAP1 POP DUP10 DUP1 PUSH2 0x1147 JUMP JUMPDEST SWAP1 PUSH1 0x1F NOT DUP4 AND SWAP2 PUSH0 MLOAD PUSH1 0x20 PUSH2 0x2E89 PUSH0 CODECOPY PUSH0 MLOAD SWAP1 PUSH0 MSTORE PUSH0 MSTORE DUP2 PUSH0 KECCAK256 SWAP3 PUSH0 JUMPDEST DUP2 DUP2 LT PUSH2 0x138B JUMPI POP SWAP3 PUSH1 0x1 SWAP3 DUP6 SWAP3 PUSH2 0x117D SWAP7 PUSH2 0x1183 SWAP10 SWAP9 SWAP7 LT PUSH2 0x1373 JUMPI JUMPDEST POP POP POP DUP2 SHL ADD PUSH0 MLOAD PUSH1 0x20 PUSH2 0x2E89 PUSH0 CODECOPY PUSH0 MLOAD SWAP1 PUSH0 MSTORE SSTORE PUSH2 0x1168 JUMP JUMPDEST ADD MLOAD PUSH0 NOT PUSH1 0xF8 DUP5 PUSH1 0x3 SHL AND SHR NOT AND SWAP1 SSTORE DUP10 DUP1 DUP1 PUSH2 0x1359 JUMP JUMPDEST SWAP3 SWAP4 PUSH1 0x20 PUSH1 0x1 DUP2 SWAP3 DUP8 DUP7 ADD MLOAD DUP2 SSTORE ADD SWAP6 ADD SWAP4 ADD PUSH2 0x133B JUMP JUMPDEST PUSH0 MLOAD PUSH1 0x20 PUSH2 0x2E89 PUSH0 CODECOPY PUSH0 MLOAD SWAP1 PUSH0 MSTORE PUSH0 MSTORE PUSH32 0xF4BAD0A69248F59680A4F2B3000328CEC71A413447C96781CFE5996DAA8C456E PUSH1 0x1F DUP5 ADD PUSH1 0x5 SHR DUP2 ADD SWAP2 PUSH1 0x20 DUP6 LT PUSH2 0x1408 JUMPI JUMPDEST PUSH1 0x1F ADD PUSH1 0x5 SHR ADD SWAP1 JUMPDEST DUP2 DUP2 LT PUSH2 0x13FD JUMPI POP PUSH2 0x1125 JUMP JUMPDEST PUSH0 DUP2 SSTORE PUSH1 0x1 ADD PUSH2 0x13F0 JUMP JUMPDEST SWAP1 SWAP2 POP DUP2 SWAP1 PUSH2 0x13E7 JUMP JUMPDEST ADD MLOAD SWAP1 POP DUP9 DUP1 PUSH2 0x10D3 JUMP JUMPDEST PUSH0 MLOAD PUSH1 0x20 PUSH2 0x2DA9 PUSH0 CODECOPY PUSH0 MLOAD SWAP1 PUSH0 MSTORE PUSH0 SWAP1 DUP2 MSTORE PUSH0 MLOAD PUSH1 0x20 PUSH2 0x2EA9 PUSH0 CODECOPY PUSH0 MLOAD SWAP1 PUSH0 MSTORE SWAP4 POP PUSH1 0x1F NOT DUP6 AND SWAP1 JUMPDEST DUP2 DUP2 LT PUSH2 0x148E JUMPI POP SWAP1 DUP5 PUSH1 0x1 SWAP6 SWAP5 SWAP4 SWAP3 LT PUSH2 0x1476 JUMPI JUMPDEST POP POP POP DUP2 SHL ADD PUSH0 MLOAD PUSH1 0x20 PUSH2 0x2DA9 PUSH0 CODECOPY PUSH0 MLOAD SWAP1 PUSH0 MSTORE SSTORE PUSH2 0x10F4 JUMP JUMPDEST ADD MLOAD PUSH0 NOT PUSH1 0xF8 DUP5 PUSH1 0x3 SHL AND SHR NOT AND SWAP1 SSTORE DUP9 DUP1 DUP1 PUSH2 0x145C JUMP JUMPDEST SWAP3 SWAP4 PUSH1 0x20 PUSH1 0x1 DUP2 SWAP3 DUP8 DUP7 ADD MLOAD DUP2 SSTORE ADD SWAP6 ADD SWAP4 ADD PUSH2 0x1446 JUMP JUMPDEST SWAP1 SWAP2 POP PUSH0 MLOAD PUSH1 0x20 PUSH2 0x2DA9 PUSH0 CODECOPY PUSH0 MLOAD SWAP1 PUSH0 MSTORE PUSH0 MSTORE PUSH1 0x1F DUP4 ADD PUSH1 0x5 SHR PUSH0 MLOAD PUSH1 0x20 PUSH2 0x2EA9 PUSH0 CODECOPY PUSH0 MLOAD SWAP1 PUSH0 MSTORE ADD SWAP1 PUSH1 0x20 DUP5 LT PUSH2 0x150F JUMPI JUMPDEST SWAP1 PUSH1 0x1F DUP5 SWAP4 SWAP3 ADD PUSH1 0x5 SHR PUSH0 MLOAD PUSH1 0x20 PUSH2 0x2EA9 PUSH0 CODECOPY PUSH0 MLOAD SWAP1 PUSH0 MSTORE ADD SWAP1 JUMPDEST DUP2 DUP2 LT PUSH2 0x1501 JUMPI POP PUSH2 0x10BD JUMP JUMPDEST PUSH0 DUP2 SSTORE DUP5 SWAP4 POP PUSH1 0x1 ADD PUSH2 0x14F4 JUMP JUMPDEST PUSH0 MLOAD PUSH1 0x20 PUSH2 0x2EA9 PUSH0 CODECOPY PUSH0 MLOAD SWAP1 PUSH0 MSTORE SWAP2 POP PUSH2 0x14D9 JUMP JUMPDEST PUSH9 0xFFFFFFFFFFFFFFFFFF NOT AND PUSH9 0x10000000000000001 OR PUSH0 MLOAD PUSH1 0x20 PUSH2 0x2E69 PUSH0 CODECOPY PUSH0 MLOAD SWAP1 PUSH0 MSTORE SSTORE DUP5 PUSH2 0x102B JUMP JUMPDEST PUSH4 0xF92EE8A9 PUSH1 0xE0 SHL PUSH0 MSTORE PUSH1 0x4 PUSH0 REVERT JUMPDEST SWAP1 POP ISZERO DUP7 PUSH2 0x1002 JUMP JUMPDEST ADDRESS EXTCODESIZE ISZERO SWAP2 POP PUSH2 0xFFA JUMP JUMPDEST DUP5 SWAP2 POP PUSH2 0xFF0 JUMP JUMPDEST CALLVALUE PUSH2 0x1E6 JUMPI PUSH2 0x285 PUSH2 0x158B CALLDATASIZE PUSH2 0x1C01 JUMP JUMPDEST SWAP1 PUSH1 0x40 MLOAD SWAP3 PUSH2 0x159B PUSH1 0x20 DUP6 PUSH2 0x1C56 JUMP JUMPDEST PUSH0 DUP5 MSTORE PUSH2 0x400 DUP4 DUP4 DUP4 PUSH2 0x1EE9 JUMP JUMPDEST CALLVALUE PUSH2 0x1E6 JUMPI PUSH1 0x40 CALLDATASIZE PUSH1 0x3 NOT ADD SLT PUSH2 0x1E6 JUMPI PUSH2 0x15C2 PUSH2 0x1BEB JUMP JUMPDEST CALLER PUSH1 0x1 PUSH1 0x1 PUSH1 0xA0 SHL SUB DUP3 AND SUB PUSH2 0x15DE JUMPI PUSH2 0x285 SWAP1 PUSH1 0x4 CALLDATALOAD PUSH2 0x28A8 JUMP JUMPDEST PUSH4 0x334BD919 PUSH1 0xE1 SHL PUSH0 MSTORE PUSH1 0x4 PUSH0 REVERT JUMPDEST CALLVALUE PUSH2 0x1E6 JUMPI PUSH1 0x40 CALLDATASIZE PUSH1 0x3 NOT ADD SLT PUSH2 0x1E6 JUMPI PUSH2 0x285 PUSH1 0x4 CALLDATALOAD PUSH2 0x160C PUSH2 0x1BEB JUMP JUMPDEST SWAP1 PUSH2 0x1632 PUSH2 0x27B DUP3 PUSH0 MSTORE PUSH0 MLOAD PUSH1 0x20 PUSH2 0x2DE9 PUSH0 CODECOPY PUSH0 MLOAD SWAP1 PUSH0 MSTORE PUSH1 0x20 MSTORE PUSH1 0x1 PUSH1 0x40 PUSH0 KECCAK256 ADD SLOAD SWAP1 JUMP JUMPDEST PUSH2 0x2804 JUMP JUMPDEST CALLVALUE PUSH2 0x1E6 JUMPI PUSH1 0x60 CALLDATASIZE PUSH1 0x3 NOT ADD SLT PUSH2 0x1E6 JUMPI PUSH2 0x1650 PUSH2 0x1BD5 JUMP JUMPDEST PUSH1 0x24 CALLDATALOAD SWAP1 PUSH1 0x44 CALLDATALOAD PUSH1 0x1 PUSH1 0x1 PUSH1 0x40 SHL SUB DUP2 GT PUSH2 0x1E6 JUMPI PUSH2 0x1673 SWAP1 CALLDATASIZE SWAP1 PUSH1 0x4 ADD PUSH2 0x1C92 JUMP JUMPDEST SWAP1 PUSH2 0x167C PUSH2 0x21D2 JUMP JUMPDEST PUSH1 0x1 PUSH1 0x1 PUSH1 0xA0 SHL SUB DUP2 AND PUSH2 0x1691 DUP2 ISZERO ISZERO PUSH2 0x20C8 JUMP JUMPDEST PUSH2 0x169C DUP5 ISZERO ISZERO PUSH2 0x2108 JUMP JUMPDEST PUSH2 0x16B3 PUSH2 0x16A9 PUSH0 SLOAD PUSH2 0x2148 JUMP JUMPDEST DUP1 SWAP4 DUP2 PUSH0 SSTORE PUSH2 0x22D6 JUMP JUMPDEST PUSH2 0x16BD DUP4 DUP4 PUSH2 0x2504 JUMP JUMPDEST PUSH1 0x40 MLOAD PUSH2 0x16C9 DUP2 PUSH2 0x1C3B JUMP JUMPDEST DUP5 DUP2 MSTORE PUSH1 0x20 SWAP4 PUSH1 0x40 MLOAD SWAP6 PUSH2 0x16DD DUP7 DUP9 PUSH2 0x1C56 JUMP JUMPDEST PUSH0 DUP8 MSTORE DUP6 DUP4 ADD SWAP7 DUP8 MSTORE PUSH1 0x40 DUP4 ADD SWAP3 TIMESTAMP DUP5 MSTORE PUSH1 0x60 DUP2 ADD SWAP4 PUSH1 0x1 DUP6 MSTORE DUP7 PUSH0 MSTORE PUSH1 0x2 DUP9 MSTORE PUSH1 0x40 PUSH0 KECCAK256 SWAP2 MLOAD DUP3 SSTORE PUSH1 0x1 DUP3 ADD SWAP9 MLOAD SWAP9 DUP10 MLOAD PUSH1 0x1 PUSH1 0x1 PUSH1 0x40 SHL SUB DUP2 GT PUSH2 0x9C8 JUMPI PUSH2 0x1727 DUP3 SLOAD PUSH2 0x1D6F JUMP JUMPDEST SWAP11 PUSH1 0x1F DUP13 GT PUSH2 0x187E JUMPI JUMPDEST DUP10 SWAP11 SWAP12 POP PUSH0 SWAP10 SWAP8 SWAP9 SWAP10 POP DUP12 SWAP1 PUSH1 0x1F DUP4 GT PUSH1 0x1 EQ PUSH2 0x17FE JUMPI SWAP3 DUP3 PUSH0 MLOAD PUSH1 0x20 PUSH2 0x2E29 PUSH0 CODECOPY PUSH0 MLOAD SWAP1 PUSH0 MSTORE SWAP10 SWAP11 SWAP4 PUSH2 0x1798 SWAP8 SWAP7 SWAP4 PUSH1 0x3 SWAP7 PUSH0 SWAP3 PUSH2 0x17F3 JUMPI POP POP DUP2 PUSH1 0x1 SHL SWAP2 PUSH0 NOT SWAP1 DUP8 SHL SHR NOT AND OR SWAP1 SSTORE MLOAD PUSH1 0x2 DUP5 ADD SSTORE MLOAD ISZERO ISZERO SWAP2 ADD SWAP1 PUSH1 0xFF DUP1 NOT DUP4 SLOAD AND SWAP2 ISZERO ISZERO AND OR SWAP1 SSTORE JUMP JUMPDEST DUP5 PUSH0 MSTORE PUSH1 0x3 DUP8 MSTORE PUSH2 0x17AC DUP5 PUSH1 0x40 PUSH0 KECCAK256 PUSH2 0x216A JUMP JUMPDEST DUP5 PUSH0 MSTORE PUSH1 0x4 DUP8 MSTORE PUSH1 0x40 PUSH0 KECCAK256 DUP2 PUSH0 MSTORE DUP8 MSTORE PUSH1 0x40 PUSH0 KECCAK256 PUSH1 0x1 PUSH1 0xFF NOT DUP3 SLOAD AND OR SWAP1 SSTORE PUSH2 0x8D1 PUSH1 0x40 MLOAD SWAP3 DUP4 SWAP3 DUP4 MSTORE PUSH1 0x60 DUP10 DUP5 ADD MSTORE PUSH0 PUSH1 0x60 DUP5 ADD MSTORE PUSH1 0x80 PUSH1 0x40 DUP5 ADD MSTORE PUSH1 0x80 DUP4 ADD SWAP1 PUSH2 0x1BB1 JUMP JUMPDEST ADD MLOAD SWAP1 POP DUP16 DUP1 PUSH2 0x846 JUMP JUMPDEST PUSH0 DUP5 DUP2 MSTORE DUP14 DUP2 KECCAK256 SWAP3 SWAP2 SWAP1 PUSH1 0x1F NOT DUP6 AND SWAP1 DUP16 JUMPDEST DUP3 DUP3 LT PUSH2 0x1862 JUMPI POP POP SWAP4 PUSH2 0x1798 SWAP8 SWAP7 SWAP4 PUSH1 0x3 SWAP7 SWAP4 PUSH1 0x1 SWAP4 DUP4 PUSH0 MLOAD PUSH1 0x20 PUSH2 0x2E29 PUSH0 CODECOPY PUSH0 MLOAD SWAP1 PUSH0 MSTORE SWAP15 SWAP16 SWAP9 LT PUSH2 0x184B JUMPI POP POP POP DUP2 SHL ADD SWAP1 SSTORE PUSH2 0x859 JUMP JUMPDEST ADD MLOAD PUSH0 NOT DUP4 DUP10 SHL PUSH1 0xF8 AND SHR NOT AND SWAP1 SSTORE DUP16 DUP1 DUP1 PUSH2 0x92E JUMP JUMPDEST DUP5 DUP5 ADD MLOAD DUP7 SSTORE DUP16 SWAP13 POP PUSH1 0x1 SWAP1 SWAP6 ADD SWAP5 SWAP4 DUP5 ADD SWAP4 SWAP1 DUP2 ADD SWAP1 PUSH2 0x1810 JUMP JUMPDEST DUP3 PUSH0 MSTORE DUP11 PUSH0 KECCAK256 PUSH1 0x1F DUP4 ADD PUSH1 0x5 SHR DUP2 ADD SWAP13 DUP13 DUP5 LT PUSH2 0x18B7 JUMPI JUMPDEST PUSH1 0x1F ADD PUSH1 0x5 SHR ADD SWAP12 JUMPDEST DUP13 DUP2 LT PUSH2 0x18AC JUMPI POP PUSH2 0x1731 JUMP JUMPDEST PUSH0 DUP2 SSTORE PUSH1 0x1 ADD PUSH2 0x189F JUMP JUMPDEST SWAP1 SWAP13 POP DUP13 SWAP1 PUSH2 0x1896 JUMP JUMPDEST CALLVALUE PUSH2 0x1E6 JUMPI PUSH1 0x20 CALLDATASIZE PUSH1 0x3 NOT ADD SLT PUSH2 0x1E6 JUMPI PUSH1 0x20 PUSH2 0x18F8 PUSH1 0x4 CALLDATALOAD PUSH0 MSTORE PUSH0 MLOAD PUSH1 0x20 PUSH2 0x2DE9 PUSH0 CODECOPY PUSH0 MLOAD SWAP1 PUSH0 MSTORE PUSH1 0x20 MSTORE PUSH1 0x1 PUSH1 0x40 PUSH0 KECCAK256 ADD SLOAD SWAP1 JUMP JUMPDEST PUSH1 0x40 MLOAD SWAP1 DUP2 MSTORE RETURN JUMPDEST CALLVALUE PUSH2 0x1E6 JUMPI PUSH2 0x285 PUSH2 0x1911 CALLDATASIZE PUSH2 0x1C01 JUMP JUMPDEST SWAP2 PUSH2 0x1EE9 JUMP JUMPDEST CALLVALUE PUSH2 0x1E6 JUMPI PUSH0 CALLDATASIZE PUSH1 0x3 NOT ADD SLT PUSH2 0x1E6 JUMPI PUSH1 0x20 PUSH0 SLOAD PUSH1 0x40 MLOAD SWAP1 DUP2 MSTORE RETURN JUMPDEST CALLVALUE PUSH2 0x1E6 JUMPI PUSH1 0x40 CALLDATASIZE PUSH1 0x3 NOT ADD SLT PUSH2 0x1E6 JUMPI PUSH2 0x194C PUSH2 0x1BD5 JUMP JUMPDEST PUSH1 0x24 CALLDATALOAD PUSH2 0x1958 DUP2 PUSH2 0x21A3 JUMP JUMPDEST CALLER ISZERO ISZERO DUP1 PUSH2 0x1A0C JUMPI JUMPDEST DUP1 PUSH2 0x19E9 JUMPI JUMPDEST PUSH2 0x19D6 JUMPI DUP2 SWAP1 PUSH1 0x1 PUSH1 0x1 PUSH1 0xA0 SHL SUB DUP5 DUP2 AND SWAP2 AND PUSH32 0x8C5BE1E5EBEC7D5BD14F71427D1E84F3DD0314C0F7B2291E5B200AC8C7C3B925 PUSH0 DUP1 LOG4 PUSH0 SWAP1 DUP2 MSTORE PUSH0 MLOAD PUSH1 0x20 PUSH2 0x2E49 PUSH0 CODECOPY PUSH0 MLOAD SWAP1 PUSH0 MSTORE PUSH1 0x20 MSTORE PUSH1 0x40 SWAP1 KECCAK256 DUP1 SLOAD PUSH1 0x1 PUSH1 0x1 PUSH1 0xA0 SHL SUB NOT AND PUSH1 0x1 PUSH1 0x1 PUSH1 0xA0 SHL SUB SWAP1 SWAP3 AND SWAP2 SWAP1 SWAP2 OR SWAP1 SSTORE STOP JUMPDEST PUSH4 0xA9FBF51F PUSH1 0xE0 SHL PUSH0 MSTORE CALLER PUSH1 0x4 MSTORE PUSH1 0x24 PUSH0 REVERT JUMPDEST POP PUSH2 0x19F3 DUP2 PUSH2 0x1D0E JUMP JUMPDEST CALLER PUSH0 SWAP1 DUP2 MSTORE PUSH1 0x20 SWAP2 SWAP1 SWAP2 MSTORE PUSH1 0x40 SWAP1 KECCAK256 SLOAD PUSH1 0xFF AND ISZERO PUSH2 0x1967 JUMP JUMPDEST POP PUSH1 0x1 PUSH1 0x1 PUSH1 0xA0 SHL SUB DUP2 AND CALLER EQ ISZERO PUSH2 0x1961 JUMP JUMPDEST CALLVALUE PUSH2 0x1E6 JUMPI PUSH1 0x20 CALLDATASIZE PUSH1 0x3 NOT ADD SLT PUSH2 0x1E6 JUMPI PUSH1 0x20 PUSH2 0xA82 PUSH1 0x4 CALLDATALOAD PUSH2 0x1A41 DUP2 PUSH2 0x21A3 JUMP JUMPDEST POP PUSH0 SWAP1 DUP2 MSTORE PUSH0 MLOAD PUSH1 0x20 PUSH2 0x2E49 PUSH0 CODECOPY PUSH0 MLOAD SWAP1 PUSH0 MSTORE PUSH1 0x20 MSTORE PUSH1 0x40 SWAP1 KECCAK256 SLOAD PUSH1 0x1 PUSH1 0x1 PUSH1 0xA0 SHL SUB AND SWAP1 JUMP JUMPDEST CALLVALUE PUSH2 0x1E6 JUMPI PUSH0 CALLDATASIZE PUSH1 0x3 NOT ADD SLT PUSH2 0x1E6 JUMPI PUSH1 0x40 MLOAD PUSH0 PUSH0 MLOAD PUSH1 0x20 PUSH2 0x2DA9 PUSH0 CODECOPY PUSH0 MLOAD SWAP1 PUSH0 MSTORE SLOAD PUSH2 0x1A94 DUP2 PUSH2 0x1D6F JUMP JUMPDEST DUP1 DUP5 MSTORE SWAP1 PUSH1 0x1 DUP2 AND SWAP1 DUP2 ISZERO PUSH2 0x647 JUMPI POP PUSH1 0x1 EQ PUSH2 0x1ABB JUMPI PUSH2 0x2F4 DUP4 PUSH2 0x2E0 DUP2 DUP6 SUB DUP3 PUSH2 0x1C56 JUMP JUMPDEST PUSH0 MLOAD PUSH1 0x20 PUSH2 0x2DA9 PUSH0 CODECOPY PUSH0 MLOAD SWAP1 PUSH0 MSTORE PUSH0 SWAP1 DUP2 MSTORE PUSH0 MLOAD PUSH1 0x20 PUSH2 0x2EA9 PUSH0 CODECOPY PUSH0 MLOAD SWAP1 PUSH0 MSTORE SWAP4 SWAP3 POP SWAP1 JUMPDEST DUP1 DUP3 LT PUSH2 0x1AF8 JUMPI POP SWAP1 SWAP2 POP DUP2 ADD PUSH1 0x20 ADD PUSH2 0x2E0 PUSH2 0x5CD JUMP JUMPDEST SWAP2 SWAP3 PUSH1 0x1 DUP2 PUSH1 0x20 SWAP3 SLOAD DUP4 DUP6 DUP9 ADD ADD MSTORE ADD SWAP2 ADD SWAP1 SWAP3 SWAP2 PUSH2 0x1AE0 JUMP JUMPDEST CALLVALUE PUSH2 0x1E6 JUMPI PUSH1 0x20 CALLDATASIZE PUSH1 0x3 NOT ADD SLT PUSH2 0x1E6 JUMPI PUSH1 0x4 CALLDATALOAD SWAP1 PUSH4 0xFFFFFFFF PUSH1 0xE0 SHL DUP3 AND DUP1 SWAP3 SUB PUSH2 0x1E6 JUMPI PUSH1 0x20 SWAP2 PUSH4 0x7965DB0B PUSH1 0xE0 SHL DUP2 EQ SWAP1 DUP2 ISZERO PUSH2 0x1B54 JUMPI JUMPDEST POP ISZERO ISZERO DUP2 MSTORE RETURN JUMPDEST PUSH4 0x24832483 PUSH1 0xE1 SHL DUP2 EQ SWAP2 POP DUP2 ISZERO PUSH2 0x1B6E JUMPI JUMPDEST POP DUP4 PUSH2 0x1B4D JUMP JUMPDEST PUSH4 0x80AC58CD PUSH1 0xE0 SHL DUP2 EQ SWAP2 POP DUP2 ISZERO PUSH2 0x1BA0 JUMPI JUMPDEST DUP2 ISZERO PUSH2 0x1B8F JUMPI JUMPDEST POP DUP4 PUSH2 0x1B67 JUMP JUMPDEST PUSH4 0x1FFC9A7 PUSH1 0xE0 SHL EQ SWAP1 POP DUP4 PUSH2 0x1B88 JUMP JUMPDEST PUSH4 0x5B5E139F PUSH1 0xE0 SHL DUP2 EQ SWAP2 POP PUSH2 0x1B81 JUMP JUMPDEST DUP1 MLOAD DUP1 DUP4 MSTORE PUSH1 0x20 SWAP3 SWAP2 DUP2 SWAP1 DUP5 ADD DUP5 DUP5 ADD MCOPY PUSH0 DUP3 DUP3 ADD DUP5 ADD MSTORE PUSH1 0x1F ADD PUSH1 0x1F NOT AND ADD ADD SWAP1 JUMP JUMPDEST PUSH1 0x4 CALLDATALOAD SWAP1 PUSH1 0x1 PUSH1 0x1 PUSH1 0xA0 SHL SUB DUP3 AND DUP3 SUB PUSH2 0x1E6 JUMPI JUMP JUMPDEST PUSH1 0x24 CALLDATALOAD SWAP1 PUSH1 0x1 PUSH1 0x1 PUSH1 0xA0 SHL SUB DUP3 AND DUP3 SUB PUSH2 0x1E6 JUMPI JUMP JUMPDEST PUSH1 0x60 SWAP1 PUSH1 0x3 NOT ADD SLT PUSH2 0x1E6 JUMPI PUSH1 0x4 CALLDATALOAD PUSH1 0x1 PUSH1 0x1 PUSH1 0xA0 SHL SUB DUP2 AND DUP2 SUB PUSH2 0x1E6 JUMPI SWAP1 PUSH1 0x24 CALLDATALOAD PUSH1 0x1 PUSH1 0x1 PUSH1 0xA0 SHL SUB DUP2 AND DUP2 SUB PUSH2 0x1E6 JUMPI SWAP1 PUSH1 0x44 CALLDATALOAD SWAP1 JUMP JUMPDEST PUSH1 0x80 DUP2 ADD SWAP1 DUP2 LT PUSH1 0x1 PUSH1 0x1 PUSH1 0x40 SHL SUB DUP3 GT OR PUSH2 0x9C8 JUMPI PUSH1 0x40 MSTORE JUMP JUMPDEST SWAP1 PUSH1 0x1F DUP1 NOT SWAP2 ADD AND DUP2 ADD SWAP1 DUP2 LT PUSH1 0x1 PUSH1 0x1 PUSH1 0x40 SHL SUB DUP3 GT OR PUSH2 0x9C8 JUMPI PUSH1 0x40 MSTORE JUMP JUMPDEST PUSH1 0x1 PUSH1 0x1 PUSH1 0x40 SHL SUB DUP2 GT PUSH2 0x9C8 JUMPI PUSH1 0x1F ADD PUSH1 0x1F NOT AND PUSH1 0x20 ADD SWAP1 JUMP JUMPDEST DUP2 PUSH1 0x1F DUP3 ADD SLT ISZERO PUSH2 0x1E6 JUMPI PUSH1 0x20 DUP2 CALLDATALOAD SWAP2 ADD PUSH2 0x1CAC DUP3 PUSH2 0x1C77 JUMP JUMPDEST SWAP3 PUSH2 0x1CBA PUSH1 0x40 MLOAD SWAP5 DUP6 PUSH2 0x1C56 JUMP JUMPDEST DUP3 DUP5 MSTORE DUP3 DUP3 ADD GT PUSH2 0x1E6 JUMPI DUP2 PUSH0 SWAP3 PUSH1 0x20 SWAP3 DUP4 DUP7 ADD CALLDATACOPY DUP4 ADD ADD MSTORE SWAP1 JUMP JUMPDEST PUSH1 0x1 PUSH1 0x1 PUSH1 0xA0 SHL SUB AND PUSH0 SWAP1 DUP2 MSTORE PUSH32 0x80BB2B638CC20BC4D0A60D66940F3AB4A00C1D7B313497CA82FB0B4AB0079303 PUSH1 0x20 MSTORE PUSH1 0x40 SWAP1 KECCAK256 SWAP1 JUMP JUMPDEST PUSH1 0x1 PUSH1 0x1 PUSH1 0xA0 SHL SUB AND PUSH0 SWAP1 DUP2 MSTORE PUSH32 0x80BB2B638CC20BC4D0A60D66940F3AB4A00C1D7B313497CA82FB0B4AB0079305 PUSH1 0x20 MSTORE PUSH1 0x40 SWAP1 KECCAK256 SWAP1 JUMP JUMPDEST DUP1 SLOAD DUP3 LT ISZERO PUSH2 0x1D5B JUMPI PUSH0 MSTORE PUSH1 0x20 PUSH0 KECCAK256 ADD SWAP1 PUSH0 SWAP1 JUMP JUMPDEST PUSH4 0x4E487B71 PUSH1 0xE0 SHL PUSH0 MSTORE PUSH1 0x32 PUSH1 0x4 MSTORE PUSH1 0x24 PUSH0 REVERT JUMPDEST SWAP1 PUSH1 0x1 DUP3 DUP2 SHR SWAP3 AND DUP1 ISZERO PUSH2 0x1D9D JUMPI JUMPDEST PUSH1 0x20 DUP4 LT EQ PUSH2 0x1D89 JUMPI JUMP JUMPDEST PUSH4 0x4E487B71 PUSH1 0xE0 SHL PUSH0 MSTORE PUSH1 0x22 PUSH1 0x4 MSTORE PUSH1 0x24 PUSH0 REVERT JUMPDEST SWAP2 PUSH1 0x7F AND SWAP2 PUSH2 0x1D7E JUMP JUMPDEST PUSH1 0x40 MLOAD SWAP1 PUSH0 DUP3 PUSH1 0x1 SLOAD SWAP2 PUSH2 0x1DBA DUP4 PUSH2 0x1D6F JUMP JUMPDEST DUP1 DUP4 MSTORE SWAP3 PUSH1 0x1 DUP2 AND SWAP1 DUP2 ISZERO PUSH2 0x1E2C JUMPI POP PUSH1 0x1 EQ PUSH2 0x1DE0 JUMPI JUMPDEST PUSH2 0x1DDE SWAP3 POP SUB DUP4 PUSH2 0x1C56 JUMP JUMPDEST JUMP JUMPDEST POP PUSH1 0x1 PUSH0 SWAP1 DUP2 MSTORE SWAP1 SWAP2 PUSH0 MLOAD PUSH1 0x20 PUSH2 0x2E09 PUSH0 CODECOPY PUSH0 MLOAD SWAP1 PUSH0 MSTORE JUMPDEST DUP2 DUP4 LT PUSH2 0x1E10 JUMPI POP POP SWAP1 PUSH1 0x20 PUSH2 0x1DDE SWAP3 DUP3 ADD ADD PUSH2 0x1DD2 JUMP JUMPDEST PUSH1 0x20 SWAP2 SWAP4 POP DUP1 PUSH1 0x1 SWAP2 SLOAD DUP4 DUP6 DUP10 ADD ADD MSTORE ADD SWAP2 ADD SWAP1 SWAP2 DUP5 SWAP3 PUSH2 0x1DF8 JUMP JUMPDEST PUSH1 0x20 SWAP3 POP PUSH2 0x1DDE SWAP5 SWAP2 POP PUSH1 0xFF NOT AND DUP3 DUP5 ADD MSTORE ISZERO ISZERO PUSH1 0x5 SHL DUP3 ADD ADD PUSH2 0x1DD2 JUMP JUMPDEST SWAP1 PUSH1 0x40 MLOAD SWAP2 DUP3 PUSH0 DUP3 SLOAD SWAP3 PUSH2 0x1E5E DUP5 PUSH2 0x1D6F JUMP JUMPDEST DUP1 DUP5 MSTORE SWAP4 PUSH1 0x1 DUP2 AND SWAP1 DUP2 ISZERO PUSH2 0x1EC7 JUMPI POP PUSH1 0x1 EQ PUSH2 0x1E83 JUMPI JUMPDEST POP PUSH2 0x1DDE SWAP3 POP SUB DUP4 PUSH2 0x1C56 JUMP JUMPDEST SWAP1 POP PUSH0 SWAP3 SWAP2 SWAP3 MSTORE PUSH1 0x20 PUSH0 KECCAK256 SWAP1 PUSH0 SWAP2 JUMPDEST DUP2 DUP4 LT PUSH2 0x1EAB JUMPI POP POP SWAP1 PUSH1 0x20 PUSH2 0x1DDE SWAP3 DUP3 ADD ADD PUSH0 PUSH2 0x1E76 JUMP JUMPDEST PUSH1 0x20 SWAP2 SWAP4 POP DUP1 PUSH1 0x1 SWAP2 SLOAD DUP4 DUP6 DUP10 ADD ADD MSTORE ADD SWAP2 ADD SWAP1 SWAP2 DUP5 SWAP3 PUSH2 0x1E92 JUMP JUMPDEST SWAP1 POP PUSH1 0x20 SWAP3 POP PUSH2 0x1DDE SWAP5 SWAP2 POP PUSH1 0xFF NOT AND DUP3 DUP5 ADD MSTORE ISZERO ISZERO PUSH1 0x5 SHL DUP3 ADD ADD PUSH0 PUSH2 0x1E76 JUMP JUMPDEST SWAP1 SWAP2 SWAP1 PUSH1 0x1 PUSH1 0x1 PUSH1 0xA0 SHL SUB DUP4 AND DUP1 ISZERO PUSH2 0x20B5 JUMPI DUP3 PUSH2 0x1F06 DUP2 PUSH2 0x2944 JUMP JUMPDEST SWAP2 CALLER ISZERO ISZERO DUP1 PUSH2 0x2002 JUMPI JUMPDEST POP PUSH1 0x1 PUSH1 0x1 PUSH1 0xA0 SHL SUB DUP4 AND SWAP6 PUSH2 0x1F2A SWAP1 DUP8 PUSH2 0x1FC6 JUMPI PUSH2 0x1CD6 JUMP JUMPDEST PUSH1 0x1 DUP2 SLOAD ADD SWAP1 SSTORE DUP2 PUSH0 MSTORE PUSH32 0x80BB2B638CC20BC4D0A60D66940F3AB4A00C1D7B313497CA82FB0B4AB0079302 PUSH1 0x20 MSTORE PUSH1 0x40 PUSH0 KECCAK256 DUP2 PUSH12 0xFFFFFFFFFFFFFFFFFFFFFFFF PUSH1 0xA0 SHL DUP3 SLOAD AND OR SWAP1 SSTORE DUP6 PUSH32 0xDDF252AD1BE2C89B69C2B068FC378DAA952BA7F163C4A11628F55A4DF523B3EF PUSH0 DUP1 LOG4 POP PUSH1 0x1 PUSH1 0x1 PUSH1 0xA0 SHL SUB AND DUP1 DUP4 SUB PUSH2 0x1FAE JUMPI POP POP POP JUMP JUMPDEST PUSH4 0x64283D7B PUSH1 0xE0 SHL PUSH0 MSTORE PUSH1 0x4 MSTORE PUSH1 0x24 MSTORE PUSH1 0x44 MSTORE PUSH1 0x64 PUSH0 REVERT JUMPDEST PUSH0 DUP5 DUP2 MSTORE PUSH0 MLOAD PUSH1 0x20 PUSH2 0x2E49 PUSH0 CODECOPY PUSH0 MLOAD SWAP1 PUSH0 MSTORE PUSH1 0x20 MSTORE PUSH1 0x40 SWAP1 KECCAK256 DUP1 SLOAD PUSH1 0x1 PUSH1 0x1 PUSH1 0xA0 SHL SUB NOT AND SWAP1 SSTORE PUSH2 0x1FF6 DUP6 PUSH2 0x1CD6 JUMP JUMPDEST DUP1 SLOAD PUSH0 NOT ADD SWAP1 SSTORE PUSH2 0x1CD6 JUMP JUMPDEST SWAP1 SWAP2 POP DUP1 PUSH2 0x204F JUMPI JUMPDEST ISZERO PUSH2 0x2018 JUMPI DUP4 SWAP1 PUSH0 PUSH2 0x1F10 JUMP JUMPDEST DUP4 PUSH1 0x1 PUSH1 0x1 PUSH1 0xA0 SHL SUB DUP4 AND PUSH2 0x2039 JUMPI PUSH4 0x7E273289 PUSH1 0xE0 SHL PUSH0 MSTORE PUSH1 0x4 MSTORE PUSH1 0x24 PUSH0 REVERT JUMPDEST PUSH4 0x177E802F PUSH1 0xE0 SHL PUSH0 MSTORE CALLER PUSH1 0x4 MSTORE PUSH1 0x24 MSTORE PUSH1 0x44 PUSH0 REVERT JUMPDEST POP PUSH1 0x1 PUSH1 0x1 PUSH1 0xA0 SHL SUB DUP3 AND CALLER EQ DUP1 ISZERO PUSH2 0x2093 JUMPI JUMPDEST DUP1 PUSH2 0x200B JUMPI POP PUSH0 DUP5 DUP2 MSTORE PUSH0 MLOAD PUSH1 0x20 PUSH2 0x2E49 PUSH0 CODECOPY PUSH0 MLOAD SWAP1 PUSH0 MSTORE PUSH1 0x20 MSTORE PUSH1 0x40 SWAP1 KECCAK256 SLOAD PUSH1 0x1 PUSH1 0x1 PUSH1 0xA0 SHL SUB AND CALLER EQ PUSH2 0x200B JUMP JUMPDEST POP PUSH2 0x209D DUP3 PUSH2 0x1D0E JUMP JUMPDEST CALLER PUSH0 SWAP1 DUP2 MSTORE PUSH1 0x20 SWAP2 SWAP1 SWAP2 MSTORE PUSH1 0x40 SWAP1 KECCAK256 SLOAD PUSH1 0xFF AND PUSH2 0x2063 JUMP JUMPDEST PUSH4 0x32505749 PUSH1 0xE1 SHL PUSH0 MSTORE PUSH0 PUSH1 0x4 MSTORE PUSH1 0x24 PUSH0 REVERT JUMPDEST ISZERO PUSH2 0x20CF JUMPI JUMP JUMPDEST PUSH1 0x40 MLOAD PUSH3 0x461BCD PUSH1 0xE5 SHL DUP2 MSTORE PUSH1 0x20 PUSH1 0x4 DUP3 ADD MSTORE PUSH1 0x11 PUSH1 0x24 DUP3 ADD MSTORE PUSH17 0x125B9D985B1A59081C9958DA5C1A595B9D PUSH1 0x7A SHL PUSH1 0x44 DUP3 ADD MSTORE PUSH1 0x64 SWAP1 REVERT JUMPDEST ISZERO PUSH2 0x210F JUMPI JUMP JUMPDEST PUSH1 0x40 MLOAD PUSH3 0x461BCD PUSH1 0xE5 SHL DUP2 MSTORE PUSH1 0x20 PUSH1 0x4 DUP3 ADD MSTORE PUSH1 0x11 PUSH1 0x24 DUP3 ADD MSTORE PUSH17 0x496E76616C696420706173732074797065 PUSH1 0x78 SHL PUSH1 0x44 DUP3 ADD MSTORE PUSH1 0x64 SWAP1 REVERT JUMPDEST PUSH0 NOT DUP2 EQ PUSH2 0x2156 JUMPI PUSH1 0x1 ADD SWAP1 JUMP JUMPDEST PUSH4 0x4E487B71 PUSH1 0xE0 SHL PUSH0 MSTORE PUSH1 0x11 PUSH1 0x4 MSTORE PUSH1 0x24 PUSH0 REVERT JUMPDEST DUP1 SLOAD PUSH9 0x10000000000000000 DUP2 LT ISZERO PUSH2 0x9C8 JUMPI PUSH2 0x218C SWAP2 PUSH1 0x1 DUP3 ADD DUP2 SSTORE PUSH2 0x1D46 JUMP JUMPDEST DUP2 SWAP3 SWAP2 SLOAD SWAP1 PUSH1 0x3 SHL SWAP2 DUP3 SHL SWAP2 PUSH0 NOT SWAP1 SHL NOT AND OR SWAP1 SSTORE JUMP JUMPDEST PUSH2 0x21AC DUP2 PUSH2 0x2944 JUMP JUMPDEST SWAP1 PUSH1 0x1 PUSH1 0x1 PUSH1 0xA0 SHL SUB DUP3 AND ISZERO PUSH2 0x21C0 JUMPI POP SWAP1 JUMP JUMPDEST PUSH4 0x7E273289 PUSH1 0xE0 SHL PUSH0 MSTORE PUSH1 0x4 MSTORE PUSH1 0x24 PUSH0 REVERT JUMPDEST CALLER PUSH0 SWAP1 DUP2 MSTORE PUSH32 0x549FE2656C81D2947B3B913F0A53B9EA86C71E049F3A1B8AA23C09A8A05CB8D4 PUSH1 0x20 MSTORE PUSH1 0x40 SWAP1 KECCAK256 SLOAD PUSH1 0xFF AND ISZERO PUSH2 0x220A JUMPI JUMP JUMPDEST PUSH4 0xE2517D3F PUSH1 0xE0 SHL PUSH0 MSTORE CALLER PUSH1 0x4 MSTORE PUSH32 0x9F2DF0FED2C77648DE5860A4CC508CD0818C85B8B8A1AB4CEEEF8D981C8956A6 PUSH1 0x24 MSTORE PUSH1 0x44 PUSH0 REVERT JUMPDEST CALLER PUSH0 SWAP1 DUP2 MSTORE PUSH32 0xB7DB2DD08FCB62D0C9E08C51941CAE53C267786A0B75803FB7960902FC8EF97D PUSH1 0x20 MSTORE PUSH1 0x40 SWAP1 KECCAK256 SLOAD PUSH1 0xFF AND ISZERO PUSH2 0x2279 JUMPI JUMP JUMPDEST PUSH4 0xE2517D3F PUSH1 0xE0 SHL PUSH0 MSTORE CALLER PUSH1 0x4 MSTORE PUSH0 PUSH1 0x24 MSTORE PUSH1 0x44 PUSH0 REVERT JUMPDEST PUSH0 DUP2 DUP2 MSTORE PUSH0 MLOAD PUSH1 0x20 PUSH2 0x2DE9 PUSH0 CODECOPY PUSH0 MLOAD SWAP1 PUSH0 MSTORE PUSH1 0x20 SWAP1 DUP2 MSTORE PUSH1 0x40 DUP1 DUP4 KECCAK256 CALLER DUP5 MSTORE SWAP1 SWAP2 MSTORE SWAP1 KECCAK256 SLOAD PUSH1 0xFF AND ISZERO PUSH2 0x22C0 JUMPI POP JUMP JUMPDEST PUSH4 0xE2517D3F PUSH1 0xE0 SHL PUSH0 MSTORE CALLER PUSH1 0x4 MSTORE PUSH1 0x24 MSTORE PUSH1 0x44 PUSH0 REVERT JUMPDEST SWAP1 PUSH1 0x20 SWAP1 PUSH1 0x40 MLOAD SWAP1 PUSH2 0x22E8 DUP4 DUP4 PUSH2 0x1C56 JUMP JUMPDEST PUSH0 DUP3 MSTORE PUSH1 0x1 PUSH1 0x1 PUSH1 0xA0 SHL SUB DUP5 AND SWAP4 DUP5 ISZERO PUSH2 0x20B5 JUMPI PUSH2 0x2305 DUP3 PUSH2 0x2944 JUMP JUMPDEST PUSH1 0x1 PUSH1 0x1 PUSH1 0xA0 SHL SUB DUP2 AND DUP1 ISZERO ISZERO SWAP2 SWAP1 DUP5 SWAP1 DUP9 SWAP1 DUP5 PUSH2 0x24C8 JUMPI JUMPDEST PUSH2 0x2327 DUP7 PUSH2 0x1CD6 JUMP JUMPDEST DUP1 SLOAD PUSH1 0x1 ADD SWAP1 SSTORE PUSH0 DUP4 DUP2 MSTORE PUSH32 0x80BB2B638CC20BC4D0A60D66940F3AB4A00C1D7B313497CA82FB0B4AB0079302 DUP11 MSTORE PUSH1 0x40 DUP2 KECCAK256 DUP1 SLOAD PUSH1 0x1 PUSH1 0x1 PUSH1 0xA0 SHL SUB NOT AND DUP5 OR SWAP1 SSTORE PUSH32 0xDDF252AD1BE2C89B69C2B068FC378DAA952BA7F163C4A11628F55A4DF523B3EF SWAP1 DUP1 LOG4 POP PUSH2 0x24B5 JUMPI EXTCODESIZE PUSH2 0x239E JUMPI JUMPDEST POP POP POP POP JUMP JUMPDEST SWAP2 PUSH2 0x23DB SWAP2 DUP2 SWAP5 SWAP6 SWAP4 PUSH1 0x40 MLOAD SWAP4 DUP5 SWAP3 DUP4 SWAP3 PUSH4 0xA85BD01 PUSH1 0xE1 SHL DUP5 MSTORE CALLER PUSH1 0x4 DUP6 ADD MSTORE PUSH0 PUSH1 0x24 DUP6 ADD MSTORE PUSH1 0x44 DUP5 ADD MSTORE PUSH1 0x80 PUSH1 0x64 DUP5 ADD MSTORE PUSH1 0x84 DUP4 ADD SWAP1 PUSH2 0x1BB1 JUMP JUMPDEST SUB DUP2 PUSH0 DUP9 GAS CALL PUSH0 SWAP2 DUP2 PUSH2 0x2475 JUMPI JUMPDEST POP PUSH2 0x243E JUMPI POP POP RETURNDATASIZE ISZERO PUSH2 0x2436 JUMPI RETURNDATASIZE SWAP1 PUSH2 0x2401 DUP3 PUSH2 0x1C77 JUMP JUMPDEST SWAP2 PUSH2 0x240F PUSH1 0x40 MLOAD SWAP4 DUP5 PUSH2 0x1C56 JUMP JUMPDEST DUP3 MSTORE RETURNDATASIZE PUSH0 DUP3 DUP5 ADD RETURNDATACOPY JUMPDEST DUP2 MLOAD SWAP2 DUP3 PUSH2 0x2433 JUMPI DUP4 PUSH4 0x32505749 PUSH1 0xE1 SHL PUSH0 MSTORE PUSH1 0x4 MSTORE PUSH1 0x24 PUSH0 REVERT JUMPDEST ADD REVERT JUMPDEST PUSH1 0x60 SWAP1 PUSH2 0x2418 JUMP JUMPDEST SWAP1 SWAP3 SWAP2 POP PUSH1 0x1 PUSH1 0x1 PUSH1 0xE0 SHL SUB NOT AND PUSH4 0x757A42FF PUSH1 0xE1 SHL ADD PUSH2 0x2463 JUMPI POP PUSH0 DUP1 DUP1 DUP1 PUSH2 0x2398 JUMP JUMPDEST PUSH4 0x32505749 PUSH1 0xE1 SHL PUSH0 MSTORE PUSH1 0x4 MSTORE PUSH1 0x24 PUSH0 REVERT JUMPDEST SWAP1 SWAP2 POP DUP4 DUP2 DUP2 RETURNDATASIZE DUP4 GT PUSH2 0x24AE JUMPI JUMPDEST PUSH2 0x248D DUP2 DUP4 PUSH2 0x1C56 JUMP JUMPDEST DUP2 ADD SUB SLT PUSH2 0x1E6 JUMPI MLOAD PUSH1 0x1 PUSH1 0x1 PUSH1 0xE0 SHL SUB NOT DUP2 AND DUP2 SUB PUSH2 0x1E6 JUMPI SWAP1 PUSH0 PUSH2 0x23E9 JUMP JUMPDEST POP RETURNDATASIZE PUSH2 0x2483 JUMP JUMPDEST PUSH4 0x39E35637 PUSH1 0xE1 SHL PUSH0 MSTORE PUSH0 PUSH1 0x4 MSTORE PUSH1 0x24 PUSH0 REVERT JUMPDEST PUSH0 DUP4 DUP2 MSTORE PUSH0 MLOAD PUSH1 0x20 PUSH2 0x2E49 PUSH0 CODECOPY PUSH0 MLOAD SWAP1 PUSH0 MSTORE PUSH1 0x20 MSTORE PUSH1 0x40 SWAP1 KECCAK256 DUP1 SLOAD PUSH1 0x1 PUSH1 0x1 PUSH1 0xA0 SHL SUB NOT AND SWAP1 SSTORE PUSH2 0x24F8 DUP5 PUSH2 0x1CD6 JUMP JUMPDEST DUP1 SLOAD PUSH0 NOT ADD SWAP1 SSTORE PUSH2 0x231E JUMP JUMPDEST SWAP2 SWAP1 SWAP2 DUP1 PUSH0 MSTORE PUSH32 0x542A41881EE128A365A727B282C86FA859579490B9BB45AAB8503648C8E7900 PUSH1 0x20 MSTORE PUSH1 0x40 PUSH0 KECCAK256 DUP4 MLOAD PUSH1 0x1 PUSH1 0x1 PUSH1 0x40 SHL SUB DUP2 GT PUSH2 0x9C8 JUMPI PUSH2 0x254C DUP3 SLOAD PUSH2 0x1D6F JUMP JUMPDEST PUSH1 0x1F DUP2 GT PUSH2 0x2644 JUMPI JUMPDEST POP PUSH1 0x20 PUSH1 0x1F DUP3 GT PUSH1 0x1 EQ PUSH2 0x25BC JUMPI SWAP1 DUP1 PUSH1 0x20 SWAP5 SWAP4 SWAP3 PUSH32 0xF8E1A15ABA9398E019F0B49DF1A4FDE98EE17AE345CB5F6B5E2C27F5033E8CE7 SWAP7 SWAP8 PUSH0 SWAP3 PUSH2 0x25B1 JUMPI JUMPDEST POP POP DUP2 PUSH1 0x1 SHL SWAP2 PUSH0 NOT SWAP1 PUSH1 0x3 SHL SHR NOT AND OR SWAP1 SSTORE JUMPDEST PUSH1 0x40 MLOAD SWAP1 DUP2 MSTORE LOG1 JUMP JUMPDEST ADD MLOAD SWAP1 POP PUSH0 DUP1 PUSH2 0x2594 JUMP JUMPDEST PUSH1 0x1F NOT DUP3 AND SWAP6 DUP4 PUSH0 MSTORE DUP2 PUSH0 KECCAK256 SWAP7 PUSH0 JUMPDEST DUP2 DUP2 LT PUSH2 0x262C JUMPI POP SWAP7 PUSH1 0x1 SWAP3 DUP5 SWAP3 PUSH1 0x20 SWAP8 SWAP7 SWAP6 PUSH32 0xF8E1A15ABA9398E019F0B49DF1A4FDE98EE17AE345CB5F6B5E2C27F5033E8CE7 SWAP10 SWAP11 LT PUSH2 0x2614 JUMPI JUMPDEST POP POP POP DUP2 SHL ADD SWAP1 SSTORE PUSH2 0x25A8 JUMP JUMPDEST ADD MLOAD PUSH0 NOT PUSH1 0xF8 DUP5 PUSH1 0x3 SHL AND SHR NOT AND SWAP1 SSTORE PUSH0 DUP1 DUP1 PUSH2 0x2607 JUMP JUMPDEST DUP4 DUP4 ADD MLOAD DUP10 SSTORE PUSH1 0x1 SWAP1 SWAP9 ADD SWAP8 PUSH1 0x20 SWAP4 DUP5 ADD SWAP4 ADD PUSH2 0x25CB JUMP JUMPDEST DUP3 PUSH0 MSTORE PUSH1 0x20 PUSH0 KECCAK256 PUSH1 0x1F DUP4 ADD PUSH1 0x5 SHR DUP2 ADD SWAP2 PUSH1 0x20 DUP5 LT PUSH2 0x267F JUMPI JUMPDEST PUSH1 0x1F ADD PUSH1 0x5 SHR ADD SWAP1 JUMPDEST DUP2 DUP2 LT PUSH2 0x2674 JUMPI POP PUSH2 0x2555 JUMP JUMPDEST PUSH0 DUP2 SSTORE PUSH1 0x1 ADD PUSH2 0x2667 JUMP JUMPDEST SWAP1 SWAP2 POP DUP2 SWAP1 PUSH2 0x265E JUMP JUMPDEST PUSH1 0x1 PUSH1 0x1 PUSH1 0xA0 SHL SUB DUP2 AND PUSH0 SWAP1 DUP2 MSTORE PUSH32 0xB7DB2DD08FCB62D0C9E08C51941CAE53C267786A0B75803FB7960902FC8EF97D PUSH1 0x20 MSTORE PUSH1 0x40 SWAP1 KECCAK256 SLOAD PUSH1 0xFF AND PUSH2 0x2733 JUMPI PUSH1 0x1 PUSH1 0x1 PUSH1 0xA0 SHL SUB AND PUSH0 DUP2 DUP2 MSTORE PUSH32 0xB7DB2DD08FCB62D0C9E08C51941CAE53C267786A0B75803FB7960902FC8EF97D PUSH1 0x20 MSTORE PUSH1 0x40 DUP2 KECCAK256 DUP1 SLOAD PUSH1 0xFF NOT AND PUSH1 0x1 OR SWAP1 SSTORE CALLER SWAP2 SWAP1 PUSH32 0x2F8788117E7EFF1D82E926EC794901D17C78024A50270940304540A733656F0D DUP2 DUP1 LOG4 PUSH1 0x1 SWAP1 JUMP JUMPDEST POP PUSH0 SWAP1 JUMP JUMPDEST PUSH1 0x1 PUSH1 0x1 PUSH1 0xA0 SHL SUB DUP2 AND PUSH0 SWAP1 DUP2 MSTORE PUSH32 0x549FE2656C81D2947B3B913F0A53B9EA86C71E049F3A1B8AA23C09A8A05CB8D4 PUSH1 0x20 MSTORE PUSH1 0x40 SWAP1 KECCAK256 SLOAD PUSH1 0xFF AND PUSH2 0x2733 JUMPI PUSH1 0x1 PUSH1 0x1 PUSH1 0xA0 SHL SUB AND PUSH0 DUP2 DUP2 MSTORE PUSH32 0x549FE2656C81D2947B3B913F0A53B9EA86C71E049F3A1B8AA23C09A8A05CB8D4 PUSH1 0x20 MSTORE PUSH1 0x40 DUP2 KECCAK256 DUP1 SLOAD PUSH1 0xFF NOT AND PUSH1 0x1 OR SWAP1 SSTORE CALLER SWAP2 SWAP1 PUSH32 0x9F2DF0FED2C77648DE5860A4CC508CD0818C85B8B8A1AB4CEEEF8D981C8956A6 SWAP1 PUSH32 0x2F8788117E7EFF1D82E926EC794901D17C78024A50270940304540A733656F0D SWAP1 DUP1 LOG4 PUSH1 0x1 SWAP1 JUMP JUMPDEST PUSH0 DUP2 DUP2 MSTORE PUSH0 MLOAD PUSH1 0x20 PUSH2 0x2DE9 PUSH0 CODECOPY PUSH0 MLOAD SWAP1 PUSH0 MSTORE PUSH1 0x20 SWAP1 DUP2 MSTORE PUSH1 0x40 DUP1 DUP4 KECCAK256 PUSH1 0x1 PUSH1 0x1 PUSH1 0xA0 SHL SUB DUP7 AND DUP5 MSTORE SWAP1 SWAP2 MSTORE SWAP1 KECCAK256 SLOAD PUSH1 0xFF AND PUSH2 0x28A2 JUMPI PUSH0 DUP2 DUP2 MSTORE PUSH0 MLOAD PUSH1 0x20 PUSH2 0x2DE9 PUSH0 CODECOPY PUSH0 MLOAD SWAP1 PUSH0 MSTORE PUSH1 0x20 SWAP1 DUP2 MSTORE PUSH1 0x40 DUP1 DUP4 KECCAK256 PUSH1 0x1 PUSH1 0x1 PUSH1 0xA0 SHL SUB SWAP6 SWAP1 SWAP6 AND DUP1 DUP5 MSTORE SWAP5 SWAP1 SWAP2 MSTORE DUP2 KECCAK256 DUP1 SLOAD PUSH1 0xFF NOT AND PUSH1 0x1 OR SWAP1 SSTORE CALLER SWAP3 SWAP2 SWAP1 PUSH32 0x2F8788117E7EFF1D82E926EC794901D17C78024A50270940304540A733656F0D SWAP1 DUP1 LOG4 PUSH1 0x1 SWAP1 JUMP JUMPDEST POP POP PUSH0 SWAP1 JUMP JUMPDEST PUSH0 DUP2 DUP2 MSTORE PUSH0 MLOAD PUSH1 0x20 PUSH2 0x2DE9 PUSH0 CODECOPY PUSH0 MLOAD SWAP1 PUSH0 MSTORE PUSH1 0x20 SWAP1 DUP2 MSTORE PUSH1 0x40 DUP1 DUP4 KECCAK256 PUSH1 0x1 PUSH1 0x1 PUSH1 0xA0 SHL SUB DUP7 AND DUP5 MSTORE SWAP1 SWAP2 MSTORE SWAP1 KECCAK256 SLOAD PUSH1 0xFF AND ISZERO PUSH2 0x28A2 JUMPI PUSH0 DUP2 DUP2 MSTORE PUSH0 MLOAD PUSH1 0x20 PUSH2 0x2DE9 PUSH0 CODECOPY PUSH0 MLOAD SWAP1 PUSH0 MSTORE PUSH1 0x20 SWAP1 DUP2 MSTORE PUSH1 0x40 DUP1 DUP4 KECCAK256 PUSH1 0x1 PUSH1 0x1 PUSH1 0xA0 SHL SUB SWAP6 SWAP1 SWAP6 AND DUP1 DUP5 MSTORE SWAP5 SWAP1 SWAP2 MSTORE DUP2 KECCAK256 DUP1 SLOAD PUSH1 0xFF NOT AND SWAP1 SSTORE CALLER SWAP3 SWAP2 SWAP1 PUSH32 0xF6391F5C32D9C69D2A47EA670B442974B53935D1EDC7FD64EB21E047A839171B SWAP1 DUP1 LOG4 PUSH1 0x1 SWAP1 JUMP JUMPDEST PUSH0 SWAP1 DUP2 MSTORE PUSH32 0x80BB2B638CC20BC4D0A60D66940F3AB4A00C1D7B313497CA82FB0B4AB0079302 PUSH1 0x20 MSTORE PUSH1 0x40 SWAP1 KECCAK256 SLOAD PUSH1 0x1 PUSH1 0x1 PUSH1 0xA0 SHL SUB AND SWAP1 JUMP JUMPDEST DUP3 EXTCODESIZE PUSH2 0x298B JUMPI JUMPDEST POP POP POP POP POP JUMP JUMPDEST PUSH1 0x40 MLOAD PUSH4 0xA85BD01 PUSH1 0xE1 SHL DUP2 MSTORE PUSH1 0x1 PUSH1 0x1 PUSH1 0xA0 SHL SUB SWAP2 DUP3 AND PUSH1 0x4 DUP3 ADD MSTORE SWAP2 DUP2 AND PUSH1 0x24 DUP4 ADD MSTORE PUSH1 0x44 DUP3 ADD SWAP4 SWAP1 SWAP4 MSTORE PUSH1 0x80 PUSH1 0x64 DUP3 ADD MSTORE SWAP2 AND SWAP2 PUSH1 0x20 SWAP1 DUP3 SWAP1 DUP2 SWAP1 PUSH2 0x29D7 SWAP1 PUSH1 0x84 DUP4 ADD SWAP1 PUSH2 0x1BB1 JUMP JUMPDEST SUB DUP2 PUSH0 DUP7 GAS CALL PUSH0 SWAP2 DUP2 PUSH2 0x2A5C JUMPI JUMPDEST POP PUSH2 0x2A3A JUMPI POP RETURNDATASIZE ISZERO PUSH2 0x2A33 JUMPI RETURNDATASIZE PUSH2 0x29FB DUP2 PUSH2 0x1C77 JUMP JUMPDEST SWAP1 PUSH2 0x2A09 PUSH1 0x40 MLOAD SWAP3 DUP4 PUSH2 0x1C56 JUMP JUMPDEST DUP2 MSTORE RETURNDATASIZE PUSH0 PUSH1 0x20 DUP4 ADD RETURNDATACOPY JUMPDEST DUP1 MLOAD SWAP1 DUP2 PUSH2 0x2A2E JUMPI DUP3 PUSH4 0x32505749 PUSH1 0xE1 SHL PUSH0 MSTORE PUSH1 0x4 MSTORE PUSH1 0x24 PUSH0 REVERT JUMPDEST PUSH1 0x20 ADD REVERT JUMPDEST PUSH1 0x60 PUSH2 0x2A13 JUMP JUMPDEST PUSH1 0x1 PUSH1 0x1 PUSH1 0xE0 SHL SUB NOT AND PUSH4 0x757A42FF PUSH1 0xE1 SHL ADD PUSH2 0x2463 JUMPI POP PUSH0 DUP1 DUP1 DUP1 DUP1 PUSH2 0x2984 JUMP JUMPDEST SWAP1 SWAP2 POP PUSH1 0x20 DUP2 RETURNDATASIZE PUSH1 0x20 GT PUSH2 0x2A99 JUMPI JUMPDEST DUP2 PUSH2 0x2A78 PUSH1 0x20 SWAP4 DUP4 PUSH2 0x1C56 JUMP JUMPDEST DUP2 ADD SUB SLT PUSH2 0x1E6 JUMPI MLOAD PUSH1 0x1 PUSH1 0x1 PUSH1 0xE0 SHL SUB NOT DUP2 AND DUP2 SUB PUSH2 0x1E6 JUMPI SWAP1 PUSH0 PUSH2 0x29E5 JUMP JUMPDEST RETURNDATASIZE SWAP2 POP PUSH2 0x2A6B JUMP JUMPDEST PUSH2 0x1DDE SWAP1 PUSH1 0x20 DUP1 DUP1 SWAP6 SWAP5 PUSH1 0x40 MLOAD SWAP7 DUP5 DUP9 SWAP6 MLOAD SWAP2 DUP3 SWAP2 ADD DUP5 DUP8 ADD MCOPY DUP5 ADD SWAP1 DUP3 DUP3 ADD PUSH0 DUP2 MSTORE DUP2 MLOAD SWAP4 DUP5 SWAP3 ADD SWAP1 MCOPY ADD ADD PUSH0 DUP2 MSTORE SUB PUSH1 0x1F NOT DUP2 ADD DUP5 MSTORE DUP4 PUSH2 0x1C56 JUMP JUMPDEST PUSH2 0x2AE8 DUP2 PUSH2 0x21A3 JUMP JUMPDEST POP PUSH2 0x2AF1 PUSH2 0x1DA7 JUMP JUMPDEST DUP2 PUSH0 MSTORE PUSH32 0x542A41881EE128A365A727B282C86FA859579490B9BB45AAB8503648C8E7900 PUSH1 0x20 MSTORE PUSH2 0x2B24 PUSH1 0x40 PUSH0 KECCAK256 PUSH2 0x1E4B JUMP JUMPDEST SWAP1 DUP1 MLOAD ISZERO PUSH2 0x2CEB JUMPI DUP2 MLOAD PUSH2 0x2CE1 JUMPI POP POP PUSH2 0x2B3D DUP2 PUSH2 0x21A3 JUMP JUMPDEST POP PUSH2 0x2B46 PUSH2 0x1DA7 JUMP JUMPDEST DUP1 MLOAD SWAP1 SWAP2 SWAP1 ISZERO PUSH2 0x2CCB JUMPI DUP1 DUP2 PUSH0 SWAP3 PUSH19 0x184F03E93FF9F4DAA797ED6E38ED64BF6A1F01 PUSH1 0x40 SHL DUP2 LT ISZERO PUSH2 0x2CA5 JUMPI JUMPDEST POP DUP1 PUSH14 0x4EE2D6D415B85ACEF8100000000 PUSH1 0xA SWAP3 LT ISZERO PUSH2 0x2C8A JUMPI JUMPDEST PUSH7 0x2386F26FC10000 DUP2 LT ISZERO PUSH2 0x2C76 JUMPI JUMPDEST PUSH4 0x5F5E100 DUP2 LT ISZERO PUSH2 0x2C65 JUMPI JUMPDEST PUSH2 0x2710 DUP2 LT ISZERO PUSH2 0x2C56 JUMPI JUMPDEST PUSH1 0x64 DUP2 LT ISZERO PUSH2 0x2C48 JUMPI JUMPDEST LT ISZERO PUSH2 0x2C3D JUMPI JUMPDEST PUSH1 0xA PUSH1 0x21 PUSH1 0x1 DUP5 ADD SWAP4 PUSH2 0x2BD9 DUP6 PUSH2 0x1C77 JUMP JUMPDEST SWAP5 PUSH2 0x2BE7 PUSH1 0x40 MLOAD SWAP7 DUP8 PUSH2 0x1C56 JUMP JUMPDEST DUP1 DUP7 MSTORE PUSH2 0x2BF6 PUSH1 0x1F NOT SWAP2 PUSH2 0x1C77 JUMP JUMPDEST ADD CALLDATASIZE PUSH1 0x20 DUP8 ADD CALLDATACOPY DUP5 ADD ADD JUMPDEST PUSH0 NOT ADD SWAP2 PUSH16 0x181899199A1A9B1B9C1CB0B131B232B3 PUSH1 0x81 SHL DUP3 DUP3 MOD BYTE DUP4 MSTORE8 DIV SWAP1 DUP2 ISZERO PUSH2 0x2C2F JUMPI PUSH1 0xA SWAP1 PUSH2 0x2C01 JUMP JUMPDEST POP POP PUSH2 0x2C3A SWAP2 PUSH2 0x2AA1 JUMP JUMPDEST SWAP1 JUMP JUMPDEST PUSH1 0x1 SWAP1 SWAP2 ADD SWAP1 PUSH2 0x2BC7 JUMP JUMPDEST PUSH1 0x64 PUSH1 0x2 SWAP2 DIV SWAP4 ADD SWAP3 PUSH2 0x2BC0 JUMP JUMPDEST PUSH2 0x2710 PUSH1 0x4 SWAP2 DIV SWAP4 ADD SWAP3 PUSH2 0x2BB6 JUMP JUMPDEST PUSH4 0x5F5E100 PUSH1 0x8 SWAP2 DIV SWAP4 ADD SWAP3 PUSH2 0x2BAB JUMP JUMPDEST PUSH7 0x2386F26FC10000 PUSH1 0x10 SWAP2 DIV SWAP4 ADD SWAP3 PUSH2 0x2B9E JUMP JUMPDEST PUSH14 0x4EE2D6D415B85ACEF8100000000 PUSH1 0x20 SWAP2 DIV SWAP4 ADD SWAP3 PUSH2 0x2B8E JUMP JUMPDEST PUSH1 0x40 SWAP4 POP PUSH19 0x184F03E93FF9F4DAA797ED6E38ED64BF6A1F01 PUSH1 0x40 SHL SWAP1 DIV SWAP1 POP PUSH1 0xA PUSH2 0x2B73 JUMP JUMPDEST POP POP PUSH1 0x40 MLOAD PUSH2 0x2CDB PUSH1 0x20 DUP3 PUSH2 0x1C56 JUMP JUMPDEST PUSH0 DUP2 MSTORE SWAP1 JUMP JUMPDEST PUSH2 0x2C3A SWAP3 POP PUSH2 0x2AA1 JUMP JUMPDEST POP SWAP1 POP SWAP1 JUMP JUMPDEST PUSH1 0xFF PUSH0 MLOAD PUSH1 0x20 PUSH2 0x2E69 PUSH0 CODECOPY PUSH0 MLOAD SWAP1 PUSH0 MSTORE SLOAD PUSH1 0x40 SHR AND ISZERO PUSH2 0x2D0D JUMPI JUMP JUMPDEST PUSH4 0x1AFCD79F PUSH1 0xE3 SHL PUSH0 MSTORE PUSH1 0x4 PUSH0 REVERT JUMPDEST SWAP1 PUSH0 DUP1 SWAP2 PUSH1 0x20 DUP2 MLOAD SWAP2 ADD DUP5 GAS DELEGATECALL DUP1 DUP1 PUSH2 0x2D95 JUMPI JUMPDEST ISZERO PUSH2 0x2D50 JUMPI POP POP PUSH1 0x40 MLOAD RETURNDATASIZE DUP2 MSTORE RETURNDATASIZE PUSH0 PUSH1 0x20 DUP4 ADD RETURNDATACOPY PUSH1 0x20 RETURNDATASIZE DUP3 ADD ADD PUSH1 0x40 MSTORE SWAP1 JUMP JUMPDEST ISZERO PUSH2 0x2D75 JUMPI PUSH4 0x9996B315 PUSH1 0xE0 SHL PUSH0 SWAP1 DUP2 MSTORE PUSH1 0x1 PUSH1 0x1 PUSH1 0xA0 SHL SUB SWAP2 SWAP1 SWAP2 AND PUSH1 0x4 MSTORE PUSH1 0x24 SWAP1 REVERT JUMPDEST RETURNDATASIZE ISZERO PUSH2 0x2D86 JUMPI PUSH1 0x40 MLOAD RETURNDATASIZE PUSH0 DUP3 RETURNDATACOPY RETURNDATASIZE SWAP1 REVERT JUMPDEST PUSH4 0xD6BDA275 PUSH1 0xE0 SHL PUSH0 MSTORE PUSH1 0x4 PUSH0 REVERT JUMPDEST POP RETURNDATASIZE ISZERO ISZERO DUP1 PUSH2 0x2D30 JUMPI POP DUP2 EXTCODESIZE ISZERO ISZERO PUSH2 0x2D30 JUMP INVALID DUP1 0xBB 0x2B PUSH4 0x8CC20BC4 0xD0 0xA6 0xD PUSH7 0x940F3AB4A00C1D PUSH28 0x313497CA82FB0B4AB0079300360894A13BA1A3210667C828492DB98D 0xCA RETURNDATACOPY KECCAK256 PUSH23 0xCC3735A920A3CA505D382BBC02DD7BC7DEC4DCEEDDA775 0xE5 DUP14 0xD5 COINBASE 0xE0 DUP11 GT PUSH13 0x6C53815C0BD028192F7B626800 0xB1 0xE 0x2D MSTORE PUSH23 0x12073B26EECDFD717E6A320CF44B4AFAC2B0732D9FCBE2 0xB7 STATICCALL 0xC 0xF6 CALLCODE 0xE2 RETURNDATASIZE SIGNEXTEND 0x2E 0xF 0x1F 0xED SGT 0xBD SWAP6 0xC0 PUSH24 0x635DCBF4FE0D3D37AACC93669F4512B61CA87D80BB2B638C 0xC2 SIGNEXTEND 0xC4 0xD0 0xA6 0xD PUSH7 0x940F3AB4A00C1D PUSH28 0x313497CA82FB0B4AB0079304F0C57E16840DF040F15088DC2F81FE39 SHR CODECOPY 0x23 0xBE 0xC7 RETURNDATACOPY 0x23 0xA9 PUSH7 0x2EFC9C229C6A00 DUP1 0xBB 0x2B PUSH4 0x8CC20BC4 0xD0 0xA6 0xD PUSH7 0x940F3AB4A00C1D PUSH28 0x313497CA82FB0B4AB007930137C58C799B6609234B945E882912EE9A 0xD3 BLOBHASH BASEFEE LOG1 0xDF 0xAA KECCAK256 0xA9 PUSH21 0x85E1A7752BBF81A264697066735822122026B574C9 BLOBBASEFEE 0xB9 COINBASE 0xB3 OR TIMESTAMP 0xBB 0xE PUSH20 0xE66CCB280DB1FDDDBAFE9E48CE4039827A33E64 PUSH20 0x6F6C634300081B0033F0C57E16840DF040F15088 0xDC 0x2F DUP2 INVALID CODECOPY SHR CODECOPY 0x23 0xBE 0xC7 RETURNDATACOPY 0x23 0xA9 PUSH7 0x2EFC9C229C6A00 "},"methodIdentifiers":{"DEFAULT_ADMIN_ROLE()":"a217fddf","MINTER_ROLE()":"d5391393","UPGRADE_INTERFACE_VERSION()":"ad3cb1cc","approve(address,uint256)":"095ea7b3","balanceOf(address)":"70a08231","deactivatePass(uint256)":"536565c4","getApproved(uint256)":"081812fc","getRoleAdmin(bytes32)":"248a9ca3","getUserPassCount(address)":"90b057a0","getUserPasses(address)":"bc38d48c","grantRole(bytes32,address)":"2f2ff15d","hasAccess(address,uint256)":"c6530e41","hasPassType(address,uint256)":"f1caa2f8","hasRole(bytes32,address)":"91d14854","initialize(address,address,string)":"4571e3a6","isApprovedForAll(address,address)":"e985e9c5","mintPass(address,uint256,string)":"2ba1b5e3","mintPassWithProduct(address,uint256,string,string)":"7f1226dc","name()":"06fdde03","ownerOf(uint256)":"6352211e","passMetadata(uint256)":"9ba9b29d","proxiableUUID()":"52d1902d","renounceRole(bytes32,address)":"36568abe","revokeRole(bytes32,address)":"d547741f","safeTransferFrom(address,address,uint256)":"42842e0e","safeTransferFrom(address,address,uint256,bytes)":"b88d4fde","setApprovalForAll(address,bool)":"a22cb465","setBaseURI(string)":"55f804b3","supportsInterface(bytes4)":"01ffc9a7","symbol()":"95d89b41","tokenURI(uint256)":"c87b56dd","totalSupply()":"18160ddd","transferFrom(address,address,uint256)":"23b872dd","upgradeToAndCall(address,bytes)":"4f1ef286","userPasses(address,uint256)":"550989a0"}}}}}