{"project/contracts/AccessPassNFT.sol":{"AccessPassNFT":{"abi":[{"inputs":[{"internalType":"address","name":"defaultAdmin","type":"address"},{"internalType":"address","name":"minter","type":"address"},{"internalType":"string","name":"baseURI","type":"string"}],"stateMutability":"nonpayable","type":"constructor"},{"inputs":[],"name":"AccessControlBadConfirmation","type":"error"},{"inputs":[{"internalType":"address","name":"account","type":"address"},{"internalType":"bytes32","name":"neededRole","type":"bytes32"}],"name":"AccessControlUnauthorizedAccount","type":"error"},{"inputs":[{"internalType":"address","name":"sender","type":"address"},{"internalType":"uint256","name":"tokenId","type":"uint256"},{"internalType":"address","name":"owner","type":"address"}],"name":"ERC721IncorrectOwner","type":"error"},{"inputs":[{"internalType":"address","name":"operator","type":"address"},{"internalType":"uint256","name":"tokenId","type":"uint256"}],"name":"ERC721InsufficientApproval","type":"error"},{"inputs":[{"internalType":"address","name":"approver","type":"address"}],"name":"ERC721InvalidApprover","type":"error"},{"inputs":[{"internalType":"address","name":"operator","type":"address"}],"name":"ERC721InvalidOperator","type":"error"},{"inputs":[{"internalType":"address","name":"owner","type":"address"}],"name":"ERC721InvalidOwner","type":"error"},{"inputs":[{"internalType":"address","name":"receiver","type":"address"}],"name":"ERC721InvalidReceiver","type":"error"},{"inputs":[{"internalType":"address","name":"sender","type":"address"}],"name":"ERC721InvalidSender","type":"error"},{"inputs":[{"internalType":"uint256","name":"tokenId","type":"uint256"}],"name":"ERC721NonexistentToken","type":"error"},{"anonymous":false,"inputs":[{"indexed":true,"internalType":"address","name":"owner","type":"address"},{"indexed":true,"internalType":"address","name":"approved","type":"address"},{"indexed":true,"internalType":"uint256","name":"tokenId","type":"uint256"}],"name":"Approval","type":"event"},{"anonymous":false,"inputs":[{"indexed":true,"internalType":"address","name":"owner","type":"address"},{"indexed":true,"internalType":"address","name":"operator","type":"address"},{"indexed":false,"internalType":"bool","name":"approved","type":"bool"}],"name":"ApprovalForAll","type":"event"},{"anonymous":false,"inputs":[{"indexed":false,"internalType":"string","name":"newBaseURI","type":"string"}],"name":"BaseURIUpdated","type":"event"},{"anonymous":false,"inputs":[{"indexed":false,"internalType":"uint256","name":"_fromTokenId","type":"uint256"},{"indexed":false,"internalType":"uint256","name":"_toTokenId","type":"uint256"}],"name":"BatchMetadataUpdate","type":"event"},{"anonymous":false,"inputs":[{"indexed":false,"internalType":"uint256","name":"_tokenId","type":"uint256"}],"name":"MetadataUpdate","type":"event"},{"anonymous":false,"inputs":[{"indexed":true,"internalType":"uint256","name":"tokenId","type":"uint256"}],"name":"PassDeactivated","type":"event"},{"anonymous":false,"inputs":[{"indexed":true,"internalType":"uint256","name":"tokenId","type":"uint256"},{"indexed":true,"internalType":"address","name":"recipient","type":"address"},{"indexed":false,"internalType":"uint256","name":"passType","type":"uint256"},{"indexed":false,"internalType":"string","name":"productId","type":"string"},{"indexed":false,"internalType":"string","name":"metadataURI","type":"string"}],"name":"PassMinted","type":"event"},{"anonymous":false,"inputs":[{"indexed":true,"internalType":"bytes32","name":"role","type":"bytes32"},{"indexed":true,"internalType":"bytes32","name":"previousAdminRole","type":"bytes32"},{"indexed":true,"internalType":"bytes32","name":"newAdminRole","type":"bytes32"}],"name":"RoleAdminChanged","type":"event"},{"anonymous":false,"inputs":[{"indexed":true,"internalType":"bytes32","name":"role","type":"bytes32"},{"indexed":true,"internalType":"address","name":"account","type":"address"},{"indexed":true,"internalType":"address","name":"sender","type":"address"}],"name":"RoleGranted","type":"event"},{"anonymous":false,"inputs":[{"indexed":true,"internalType":"bytes32","name":"role","type":"bytes32"},{"indexed":true,"internalType":"address","name":"account","type":"address"},{"indexed":true,"internalType":"address","name":"sender","type":"address"}],"name":"RoleRevoked","type":"event"},{"anonymous":false,"inputs":[{"indexed":true,"internalType":"address","name":"from","type":"address"},{"indexed":true,"internalType":"address","name":"to","type":"address"},{"indexed":true,"internalType":"uint256","name":"tokenId","type":"uint256"}],"name":"Transfer","type":"event"},{"inputs":[],"name":"DEFAULT_ADMIN_ROLE","outputs":[{"internalType":"bytes32","name":"","type":"bytes32"}],"stateMutability":"view","type":"function"},{"inputs":[],"name":"MINTER_ROLE","outputs":[{"internalType":"bytes32","name":"","type":"bytes32"}],"stateMutability":"view","type":"function"},{"inputs":[{"internalType":"address","name":"to","type":"address"},{"internalType":"uint256","name":"tokenId","type":"uint256"}],"name":"approve","outputs":[],"stateMutability":"nonpayable","type":"function"},{"inputs":[{"internalType":"address","name":"owner","type":"address"}],"name":"balanceOf","outputs":[{"internalType":"uint256","name":"","type":"uint256"}],"stateMutability":"view","type":"function"},{"inputs":[{"internalType":"uint256","name":"tokenId","type":"uint256"}],"name":"deactivatePass","outputs":[],"stateMutability":"nonpayable","type":"function"},{"inputs":[{"internalType":"uint256","name":"tokenId","type":"uint256"}],"name":"getApproved","outputs":[{"internalType":"address","name":"","type":"address"}],"stateMutability":"view","type":"function"},{"inputs":[{"internalType":"bytes32","name":"role","type":"bytes32"}],"name":"getRoleAdmin","outputs":[{"internalType":"bytes32","name":"","type":"bytes32"}],"stateMutability":"view","type":"function"},{"inputs":[{"internalType":"address","name":"user","type":"address"}],"name":"getUserPassCount","outputs":[{"internalType":"uint256","name":"","type":"uint256"}],"stateMutability":"view","type":"function"},{"inputs":[{"internalType":"address","name":"user","type":"address"}],"name":"getUserPasses","outputs":[{"internalType":"uint256[]","name":"","type":"uint256[]"}],"stateMutability":"view","type":"function"},{"inputs":[{"internalType":"bytes32","name":"role","type":"bytes32"},{"internalType":"address","name":"account","type":"address"}],"name":"grantRole","outputs":[],"stateMutability":"nonpayable","type":"function"},{"inputs":[{"internalType":"address","name":"user","type":"address"},{"internalType":"uint256","name":"passType","type":"uint256"}],"name":"hasAccess","outputs":[{"internalType":"bool","name":"","type":"bool"}],"stateMutability":"view","type":"function"},{"inputs":[{"internalType":"address","name":"","type":"address"},{"internalType":"uint256","name":"","type":"uint256"}],"name":"hasPassType","outputs":[{"internalType":"bool","name":"","type":"bool"}],"stateMutability":"view","type":"function"},{"inputs":[{"internalType":"bytes32","name":"role","type":"bytes32"},{"internalType":"address","name":"account","type":"address"}],"name":"hasRole","outputs":[{"internalType":"bool","name":"","type":"bool"}],"stateMutability":"view","type":"function"},{"inputs":[{"internalType":"address","name":"owner","type":"address"},{"internalType":"address","name":"operator","type":"address"}],"name":"isApprovedForAll","outputs":[{"internalType":"bool","name":"","type":"bool"}],"stateMutability":"view","type":"function"},{"inputs":[{"internalType":"address","name":"to","type":"address"},{"internalType":"uint256","name":"passType","type":"uint256"},{"internalType":"string","name":"metadataURI","type":"string"}],"name":"mintPass","outputs":[{"internalType":"uint256","name":"","type":"uint256"}],"stateMutability":"nonpayable","type":"function"},{"inputs":[{"internalType":"address","name":"to","type":"address"},{"internalType":"uint256","name":"passType","type":"uint256"},{"internalType":"string","name":"productId","type":"string"},{"internalType":"string","name":"metadataURI","type":"string"}],"name":"mintPassWithProduct","outputs":[{"internalType":"uint256","name":"","type":"uint256"}],"stateMutability":"nonpayable","type":"function"},{"inputs":[],"name":"name","outputs":[{"internalType":"string","name":"","type":"string"}],"stateMutability":"view","type":"function"},{"inputs":[{"internalType":"uint256","name":"tokenId","type":"uint256"}],"name":"ownerOf","outputs":[{"internalType":"address","name":"","type":"address"}],"stateMutability":"view","type":"function"},{"inputs":[{"internalType":"uint256","name":"","type":"uint256"}],"name":"passMetadata","outputs":[{"internalType":"uint256","name":"passType","type":"uint256"},{"internalType":"string","name":"productId","type":"string"},{"internalType":"uint256","name":"mintedAt","type":"uint256"},{"internalType":"bool","name":"active","type":"bool"}],"stateMutability":"view","type":"function"},{"inputs":[{"internalType":"bytes32","name":"role","type":"bytes32"},{"internalType":"address","name":"callerConfirmation","type":"address"}],"name":"renounceRole","outputs":[],"stateMutability":"nonpayable","type":"function"},{"inputs":[{"internalType":"bytes32","name":"role","type":"bytes32"},{"internalType":"address","name":"account","type":"address"}],"name":"revokeRole","outputs":[],"stateMutability":"nonpayable","type":"function"},{"inputs":[{"internalType":"address","name":"from","type":"address"},{"internalType":"address","name":"to","type":"address"},{"internalType":"uint256","name":"tokenId","type":"uint256"}],"name":"safeTransferFrom","outputs":[],"stateMutability":"nonpayable","type":"function"},{"inputs":[{"internalType":"address","name":"from","type":"address"},{"internalType":"address","name":"to","type":"address"},{"internalType":"uint256","name":"tokenId","type":"uint256"},{"internalType":"bytes","name":"data","type":"bytes"}],"name":"safeTransferFrom","outputs":[],"stateMutability":"nonpayable","type":"function"},{"inputs":[{"internalType":"address","name":"operator","type":"address"},{"internalType":"bool","name":"approved","type":"bool"}],"name":"setApprovalForAll","outputs":[],"stateMutability":"nonpayable","type":"function"},{"inputs":[{"internalType":"string","name":"newBaseURI","type":"string"}],"name":"setBaseURI","outputs":[],"stateMutability":"nonpayable","type":"function"},{"inputs":[{"internalType":"bytes4","name":"interfaceId","type":"bytes4"}],"name":"supportsInterface","outputs":[{"internalType":"bool","name":"","type":"bool"}],"stateMutability":"view","type":"function"},{"inputs":[],"name":"symbol","outputs":[{"internalType":"string","name":"","type":"string"}],"stateMutability":"view","type":"function"},{"inputs":[{"internalType":"uint256","name":"tokenId","type":"uint256"}],"name":"tokenURI","outputs":[{"internalType":"string","name":"","type":"string"}],"stateMutability":"view","type":"function"},{"inputs":[],"name":"totalSupply","outputs":[{"internalType":"uint256","name":"","type":"uint256"}],"stateMutability":"view","type":"function"},{"inputs":[{"internalType":"address","name":"from","type":"address"},{"internalType":"address","name":"to","type":"address"},{"internalType":"uint256","name":"tokenId","type":"uint256"}],"name":"transferFrom","outputs":[],"stateMutability":"nonpayable","type":"function"},{"inputs":[{"internalType":"address","name":"","type":"address"},{"internalType":"uint256","name":"","type":"uint256"}],"name":"userPasses","outputs":[{"internalType":"uint256","name":"","type":"uint256"}],"stateMutability":"view","type":"function"}],"evm":{"bytecode":{"linkReferences":{},"object":"6080604052346104ff576128648038038061001981610503565b92833981016060828203126104ff5761003182610528565b9161003e60208201610528565b604082015190916001600160401b0382116104ff570182601f820112156104ff578051906001600160401b03821161032257610083601f8301601f1916602001610503565b93828552602083830101116104ff57815f9260208093018387015e840101526100ac6040610503565b92601584527f436861696e6c657373204163636573732050617373000000000000000000000060208501526100e16040610503565b600381526204341560ec1b6020820152845190946001600160401b038211610322575f5490600182811c921680156104f5575b60208310146103045781601f849311610488575b50602090601f8311600114610425575f9261041a575b50508160011b915f199060031b1c1916175f555b83516001600160401b03811161032257600154600181811c91168015610410575b602082101461030457601f81116103ad575b506020601f82116001146103415790806101bf93926101c596975f92610336575b50508160011b915f199060031b1c19161760015561053c565b506105b2565b5080516001600160401b03811161032257600954600181811c91168015610318575b602082101461030457601f81116102a1575b50602091601f8211600114610241579181925f92610236575b50508160011b915f199060031b1c1916176009555b6040516121be90816106468239f35b015190505f80610212565b601f1982169260095f52805f20915f5b85811061028957508360019510610271575b505050811b01600955610227565b01515f1960f88460031b161c191690555f8080610263565b91926020600181928685015181550194019201610251565b60095f527f6e1540171b6c0c960b71a7020d9f60077f6af931a8bbf590da0223dacf75c7af601f830160051c810191602084106102fa575b601f0160051c01905b8181106102ef57506101f9565b5f81556001016102e2565b90915081906102d9565b634e487b7160e01b5f52602260045260245ffd5b90607f16906101e7565b634e487b7160e01b5f52604160045260245ffd5b015190505f806101a6565b601f1982169560015f52815f20965f5b81811061039557509660019284926101bf96956101c5999a1061037d575b505050811b0160015561053c565b01515f1960f88460031b161c191690555f808061036f565b83830151895560019098019760209384019301610351565b60015f527fb10e2d527612073b26eecdfd717e6a320cf44b4afac2b0732d9fcbe2b7fa0cf6601f830160051c81019160208410610406575b601f0160051c01905b8181106103fb5750610185565b5f81556001016103ee565b90915081906103e5565b90607f1690610173565b015190505f8061013e565b5f8080528281209350601f198516905b8181106104705750908460019594939210610458575b505050811b015f55610152565b01515f1960f88460031b161c191690555f808061044b565b92936020600181928786015181550195019301610435565b5f80529091507f290decd9548b62a8d60345a988386fc84ba6bc95484008f6362f93160ef3e563601f840160051c810191602085106104eb575b90601f859493920160051c01905b8181106104dd5750610128565b5f81558493506001016104d0565b90915081906104c2565b91607f1691610114565b5f80fd5b6040519190601f01601f191682016001600160401b0381118382101761032257604052565b51906001600160a01b03821682036104ff57565b6001600160a01b0381165f9081525f5160206128245f395f51905f52602052604090205460ff166105ad576001600160a01b03165f8181525f5160206128245f395f51905f5260205260408120805460ff191660011790553391905f5160206128045f395f51905f528180a4600190565b505f90565b6001600160a01b0381165f9081525f5160206128445f395f51905f52602052604090205460ff166105ad576001600160a01b03165f8181525f5160206128445f395f51905f5260205260408120805460ff191660011790553391907f9f2df0fed2c77648de5860a4cc508cd0818c85b8b8a1ab4ceeef8d981c8956a6905f5160206128045f395f51905f529080a460019056fe6080806040526004361015610012575f80fd5b5f3560e01c90816301ffc9a7146112a05750806306fdde03146111fe578063081812fc146111c2578063095ea7b3146110d857806318160ddd146110bb57806323b872dd146110a4578063248a9ca3146110715780632ba1b5e314610de35780632f2ff15d14610da557806336568abe14610d6157806342842e0e14610d32578063536565c414610c81578063550989a014610c2957806355f804b314610a185780636352211e146109e857806370a08231146109975780637f1226dc1461067557806390b057a01461063d57806391d14854146105f457806395d89b411461052a5780639ba9b29d146104c2578063a217fddf146104a8578063a22cb465146103eb578063b88d4fde1461037f578063bc38d48c146102cb578063c6530e4114610171578063c87b56dd14610294578063d53913931461025a578063d547741f14610215578063e985e9c5146101be5763f1caa2f814610171575f80fd5b346101ba5760403660031901126101ba576001600160a01b03610192611363565b165f52600c60205260405f206024355f52602052602060ff60405f2054166040519015158152f35b5f80fd5b346101ba5760403660031901126101ba576101d7611363565b6101df611379565b9060018060a01b03165f52600560205260405f209060018060a01b03165f52602052602060ff60405f2054166040519015158152f35b346101ba5760403660031901126101ba57610258600435610234611379565b9061025361024e825f526007602052600160405f20015490565b611938565b611d72565b005b346101ba575f3660031901126101ba5760206040517f9f2df0fed2c77648de5860a4cc508cd0818c85b8b8a1ab4ceeef8d981c8956a68152f35b346101ba5760203660031901126101ba576102c76102b3600435611f58565b60405191829160208352602083019061133f565b0390f35b346101ba5760203660031901126101ba576001600160a01b036102ec611363565b165f52600b60205260405f20604051806020835491828152019081935f5260205f20905f5b81811061036957505050816103279103826113e5565b604051918291602083019060208452518091526040830191905f5b818110610350575050500390f35b8251845285945060209384019390920191600101610342565b8254845260209093019260019283019201610311565b346101ba5760803660031901126101ba57610398611363565b6103a0611379565b906044356064359267ffffffffffffffff84116101ba57366023850112156101ba576103d9610258943690602481600401359101611423565b926103e583838361161a565b33611df6565b346101ba5760403660031901126101ba57610404611363565b60243590811515908183036101ba573315610495576001600160a01b03169182156104825761045490335f52600560205260405f20845f5260205260405f209060ff801983541691151516179055565b6040519081527f17307eab39ab6107e8899845ad3d59bd9653f200f220920489ca2b5937696c3160203392a3005b82630b61174360e31b5f5260045260245ffd5b63a9fbf51f60e01b5f525f60045260245ffd5b346101ba575f3660031901126101ba5760206040515f8152f35b346101ba5760203660031901126101ba576004355f52600a60205260405f2080546104ef6001830161157c565b9160ff6003600283015492015416610519604051948594855260806020860152608085019061133f565b916040840152151560608301520390f35b346101ba575f3660031901126101ba576040515f60015461054a816114a0565b80845290600181169081156105d05750600114610572575b6102c7836102b3818503826113e5565b60015f9081527fb10e2d527612073b26eecdfd717e6a320cf44b4afac2b0732d9fcbe2b7fa0cf6939250905b8082106105b6575090915081016020016102b3610562565b91926001816020925483858801015201910190929161059e565b60ff191660208086019190915291151560051b840190910191506102b39050610562565b346101ba5760403660031901126101ba5761060d611379565b6004355f52600760205260405f209060018060a01b03165f52602052602060ff60405f2054166040519015158152f35b346101ba5760203660031901126101ba576001600160a01b0361065e611363565b165f52600b602052602060405f2054604051908152f35b346101ba5760803660031901126101ba5761068e611363565b6024359060443567ffffffffffffffff81116101ba576106b2903690600401611459565b9160643567ffffffffffffffff81116101ba576106d3903690600401611459565b6106db6118c9565b6001600160a01b038316916106f18315156117ba565b6106fc8115156117fa565b84511561095e5761071c61071160085461183a565b809581600855611972565b6107268285611b7f565b60405191610733836113c9565b8183526020830186815260408401428152606085019160018352875f52600a60205260405f209551865560018601905180519067ffffffffffffffff821161094a5761077f83546114a0565b601f8111610905575b509160209a9593918a9795938c90601f831160011461086957935f5160206121695f395f51905f52999a93836003946108539998946107f7985f9261085e575b50508160011b915f1990871b1c19161790555b51600284015551151591019060ff801983541691151516179055565b865f52600b895261080b8660405f2061185c565b865f52600c895260405f20835f52895260405f20600160ff19825416179055610845604051948594855260608b860152606085019061133f565b90838203604085015261133f565b0390a3604051908152f35b015190505f806107c8565b999493929190601f1982169a835f52815f209b5f5b8181106108d45750835f5160206121695f395f51905f529c9d6108539a999794600397946107f79a97600195106108bd575b505050811b0190556107db565b01515f1983891b60f8161c191690555f80806108b0565b939597999b509091939597999b8f600181928786015181550195019301908e9b9997959392919c9a9896949c61087e565b835f5260205f20601f840160051c81019160208510610940575b601f0160051c01905b8181106109355750610788565b5f8155600101610928565b909150819061091f565b634e487b7160e01b5f52604160045260245ffd5b60405162461bcd60e51b8152602060048201526011602482015270125b9d985b1a59081c1c9bd91d58dd1259607a1b6044820152606490fd5b346101ba5760203660031901126101ba576001600160a01b036109b8611363565b1680156109d5575f526003602052602060405f2054604051908152f35b6322718ad960e21b5f525f60045260245ffd5b346101ba5760203660031901126101ba576020610a06600435611895565b6040516001600160a01b039091168152f35b346101ba5760203660031901126101ba5760043567ffffffffffffffff81116101ba57610a49903690600401611459565b335f9081527f6d5257204ebe7d88fd91ae87941cb2dd9d8062b64ae5a2bd2d28ec40b9fbf6df602052604090205460ff1615610c1257805167ffffffffffffffff811161094a57610a9b6009546114a0565b601f8111610baa575b506020601f8211600114610b18579181610b08927f6741b2fc379fad678116fe3d4d4b9a1a184ab53ba36b86ad0fa66340b1ab41ad945f91610b0d575b508160011b915f199060031b1c19161760095560405191829160208352602083019061133f565b0390a1005b905082015185610ae1565b601f1982169060095f525f5160206121495f395f51905f52915f5b818110610b925750927f6741b2fc379fad678116fe3d4d4b9a1a184ab53ba36b86ad0fa66340b1ab41ad949260019282610b089610610b7a575b5050811b016009556102b3565b8401515f1960f88460031b161c191690558580610b6d565b91926020600181928689015181550194019201610b33565b60095f52601f820160051c5f5160206121495f395f51905f52019060208310610bfd575b601f0160051c5f5160206121495f395f51905f5201905b818110610bf25750610aa4565b5f8155600101610be5565b5f5160206121495f395f51905f529150610bce565b63e2517d3f60e01b5f52336004525f60245260445ffd5b346101ba5760403660031901126101ba57610c42611363565b6001600160a01b03165f908152600b60205260409020805460243591908210156101ba57602091610c7291611477565b90549060031b1c604051908152f35b346101ba5760203660031901126101ba57600435610c9d6118c9565b5f818152600260205260409020546001600160a01b031615610cf657805f52600a602052600360405f200160ff1981541690557f626e480980b0a9ed440b6d5cb0632ba9db896768f3bf78fc167de63b7658cf765f80a2005b60405162461bcd60e51b8152602060048201526014602482015273151bdad95b88191bd95cc81b9bdd08195e1a5cdd60621b6044820152606490fd5b346101ba57610258610d433661138f565b9060405192610d536020856113e5565b5f84526103e583838361161a565b346101ba5760403660031901126101ba57610d7a611379565b336001600160a01b03821603610d965761025890600435611d72565b63334bd91960e11b5f5260045ffd5b346101ba5760403660031901126101ba57610258600435610dc4611379565b90610dde61024e825f526007602052600160405f20015490565b611ce6565b346101ba5760603660031901126101ba57610dfc611363565b6024359060443567ffffffffffffffff81116101ba57610e20903690600401611459565b90610e296118c9565b6001600160a01b038116610e3e8115156117ba565b610e498415156117fa565b610e62610e5760085461183a565b809381600855611972565b610e6c8383611b7f565b604051610e78816113c9565b84815260209360405195610e8c86886113e5565b5f87528583019687526040830192428452606081019360018552865f52600a885260405f209151825560018201985198895167ffffffffffffffff811161094a57610ed782546114a0565b9a601f8c1161102e575b899a9b505f99979899508b90601f8311600114610fae5792825f5160206121695f395f51905f52999a93610f489796936003965f92610fa35750508160011b915f1990871b1c191617905551600284015551151591019060ff801983541691151516179055565b845f52600b8752610f5c8460405f2061185c565b845f52600c875260405f20815f52875260405f20600160ff1982541617905561085360405192839283526060898401525f606084015260806040840152608083019061133f565b015190508f806107c8565b5f8481528d8120929190601f198516908f5b82821061101257505093610f4897969360039693600193835f5160206121695f395f51905f529e9f9810610ffb57505050811b0190556107db565b01515f1983891b60f8161c191690558f80806108b0565b8484015186558f9c506001909501949384019390810190610fc0565b825f528a5f20601f830160051c81019c8c8410611067575b601f0160051c019b5b8c811061105c5750610ee1565b5f815560010161104f565b909c508c90611046565b346101ba5760203660031901126101ba57602061109c6004355f526007602052600160405f20015490565b604051908152f35b346101ba576102586110b53661138f565b9161161a565b346101ba575f3660031901126101ba576020600854604051908152f35b346101ba5760403660031901126101ba576110f1611363565b6024356110fd81611895565b331515806111af575b80611182575b61116f5781906001600160a01b0384811691167f8c5be1e5ebec7d5bd14f71427d1e84f3dd0314c0f7b2291e5b200ac8c7c3b9255f80a45f90815260046020526040902080546001600160a01b0319166001600160a01b03909216919091179055005b63a9fbf51f60e01b5f523360045260245ffd5b506001600160a01b0381165f90815260056020908152604080832033845290915290205460ff161561110c565b506001600160a01b038116331415611106565b346101ba5760203660031901126101ba576004356111df81611895565b505f526004602052602060018060a01b0360405f205416604051908152f35b346101ba575f3660031901126101ba576040515f5f5461121d816114a0565b80845290600181169081156105d05750600114611244576102c7836102b3818503826113e5565b5f8080527f290decd9548b62a8d60345a988386fc84ba6bc95484008f6362f93160ef3e563939250905b808210611286575090915081016020016102b3610562565b91926001816020925483858801015201910190929161126e565b346101ba5760203660031901126101ba576004359063ffffffff60e01b82168092036101ba57602091637965db0b60e01b81149081156112e2575b5015158152f35b632483248360e11b8114915081156112fc575b50836112db565b6380ac58cd60e01b81149150811561132e575b811561131d575b50836112f5565b6301ffc9a760e01b14905083611316565b635b5e139f60e01b8114915061130f565b805180835260209291819084018484015e5f828201840152601f01601f1916010190565b600435906001600160a01b03821682036101ba57565b602435906001600160a01b03821682036101ba57565b60609060031901126101ba576004356001600160a01b03811681036101ba57906024356001600160a01b03811681036101ba579060443590565b6080810190811067ffffffffffffffff82111761094a57604052565b90601f8019910116810190811067ffffffffffffffff82111761094a57604052565b67ffffffffffffffff811161094a57601f01601f191660200190565b92919261142f82611407565b9161143d60405193846113e5565b8294818452818301116101ba578281602093845f960137010152565b9080601f830112156101ba5781602061147493359101611423565b90565b805482101561148c575f5260205f2001905f90565b634e487b7160e01b5f52603260045260245ffd5b90600182811c921680156114ce575b60208310146114ba57565b634e487b7160e01b5f52602260045260245ffd5b91607f16916114af565b604051905f82600954916114eb836114a0565b808352926001811690811561155d5750600114611511575b61150f925003836113e5565b565b5060095f90815290915f5160206121495f395f51905f525b81831061154157505090602061150f92820101611503565b6020919350806001915483858901015201910190918492611529565b6020925061150f94915060ff191682840152151560051b820101611503565b9060405191825f82549261158f846114a0565b80845293600181169081156115f857506001146115b4575b5061150f925003836113e5565b90505f9291925260205f20905f915b8183106115dc57505090602061150f928201015f6115a7565b60209193508060019154838589010152019101909184926115c3565b90506020925061150f94915060ff191682840152151560051b8201015f6115a7565b6001600160a01b03909116919082156117a7575f828152600260205260409020546001600160a01b031692829033151580611712575b50846116df575b805f52600360205260405f2060018154019055815f52600260205260405f20816bffffffffffffffffffffffff60a01b825416179055847fddf252ad1be2c89b69c2b068fc378daa952ba7f163c4a11628f55a4df523b3ef5f80a46001600160a01b03168083036116c757505050565b6364283d7b60e01b5f5260045260245260445260645ffd5b5f82815260046020526040902080546001600160a01b0319169055845f52600360205260405f205f198154019055611657565b90915080611756575b156117285782905f611650565b828461174057637e27328960e01b5f5260045260245ffd5b63177e802f60e01b5f523360045260245260445ffd5b503384148015611785575b8061171b57505f838152600460205260409020546001600160a01b0316331461171b565b505f84815260056020908152604080832033845290915290205460ff16611761565b633250574960e11b5f525f60045260245ffd5b156117c157565b60405162461bcd60e51b8152602060048201526011602482015270125b9d985b1a59081c9958da5c1a595b9d607a1b6044820152606490fd5b1561180157565b60405162461bcd60e51b8152602060048201526011602482015270496e76616c69642070617373207479706560781b6044820152606490fd5b5f1981146118485760010190565b634e487b7160e01b5f52601160045260245ffd5b80546801000000000000000081101561094a5761187e91600182018155611477565b819291549060031b91821b915f19901b1916179055565b5f818152600260205260409020546001600160a01b03169081156118b7575090565b637e27328960e01b5f5260045260245ffd5b335f9081527fa4bfd7afe708e2e87e7f0e2ad9b4d545417e0f795f57b5c5ab5d799c565a04f4602052604090205460ff161561190157565b63e2517d3f60e01b5f52336004527f9f2df0fed2c77648de5860a4cc508cd0818c85b8b8a1ab4ceeef8d981c8956a660245260445ffd5b5f81815260076020908152604080832033845290915290205460ff161561195c5750565b63e2517d3f60e01b5f523360045260245260445ffd5b906020906040519061198483836113e5565b5f82526001600160a01b0384169384156117a7575f8281526002855260409020546001600160a01b03168015159081611b4e575b865f526003865260405f2060018154019055835f526002865260405f20876bffffffffffffffffffffffff60a01b8254161790558387827fddf252ad1be2c89b69c2b068fc378daa952ba7f163c4a11628f55a4df523b3ef5f80a450611b3b573b611a24575b50505050565b91611a6191819495936040519384928392630a85bd0160e11b84523360048501525f6024850152604484015260806064840152608483019061133f565b03815f885af15f9181611afb575b50611ac45750503d15611abc573d90611a8782611407565b91611a9560405193846113e5565b82523d5f8284013e5b81519182611ab95783633250574960e11b5f5260045260245ffd5b01fd5b606090611a9e565b909291506001600160e01b03191663757a42ff60e11b01611ae957505f808080611a1e565b633250574960e11b5f5260045260245ffd5b9091508381813d8311611b34575b611b1381836113e5565b810103126101ba57516001600160e01b0319811681036101ba57905f611a6f565b503d611b09565b6339e3563760e11b5f525f60045260245ffd5b5f8481526004602052604080822080546001600160a01b031916905582825260038852902080545f190190556119b8565b919091805f52600660205260405f20835167ffffffffffffffff811161094a57611ba982546114a0565b601f8111611ca1575b506020601f8211600114611c1957908060209493927ff8e1a15aba9398e019f0b49df1a4fde98ee17ae345cb5f6b5e2c27f5033e8ce796975f92611c0e575b50508160011b915f199060031b1c19161790555b604051908152a1565b015190505f80611bf1565b601f19821695835f52815f20965f5b818110611c89575096600192849260209796957ff8e1a15aba9398e019f0b49df1a4fde98ee17ae345cb5f6b5e2c27f5033e8ce7999a10611c71575b505050811b019055611c05565b01515f1960f88460031b161c191690555f8080611c64565b83830151895560019098019760209384019301611c28565b825f5260205f20601f830160051c81019160208410611cdc575b601f0160051c01905b818110611cd15750611bb2565b5f8155600101611cc4565b9091508190611cbb565b5f8181526007602090815260408083206001600160a01b038616845290915290205460ff16611d6c575f8181526007602090815260408083206001600160a01b0395909516808452949091528120805460ff19166001179055339291907f2f8788117e7eff1d82e926ec794901d17c78024a50270940304540a733656f0d9080a4600190565b50505f90565b5f8181526007602090815260408083206001600160a01b038616845290915290205460ff1615611d6c575f8181526007602090815260408083206001600160a01b0395909516808452949091528120805460ff19169055339291907ff6391f5c32d9c69d2a47ea670b442974b53935d1edc7fd64eb21e047a839171b9080a4600190565b823b611e04575b5050505050565b604051630a85bd0160e11b81526001600160a01b039182166004820152918116602483015260448201939093526080606482015291169160209082908190611e5090608483019061133f565b03815f865af15f9181611ed5575b50611eb357503d15611eac573d611e7481611407565b90611e8260405192836113e5565b81523d5f602083013e5b80519081611ea75782633250574960e11b5f5260045260245ffd5b602001fd5b6060611e8c565b6001600160e01b03191663757a42ff60e11b01611ae957505f80808080611dfd565b9091506020813d602011611f12575b81611ef1602093836113e5565b810103126101ba57516001600160e01b0319811681036101ba57905f611e5e565b3d9150611ee4565b61150f906020808095946040519684889551918291018487015e8401908282015f8152815193849201905e01015f815203601f1981018452836113e5565b611f6181611895565b50611f6a6114d8565b815f526006602052611f7e60405f2061157c565b90805115612142578151612138575050611f9781611895565b50611fa06114d8565b8051909190156121225780815f9272184f03e93ff9f4daa797ed6e38ed64bf6a1f0160401b8110156120fc575b50806d04ee2d6d415b85acef8100000000600a9210156120e1575b662386f26fc100008110156120cd575b6305f5e1008110156120bc575b6127108110156120ad575b606481101561209f575b1015612094575b600a6021600184019361203385611407565b9461204160405196876113e5565b808652612050601f1991611407565b013660208701378401015b5f1901916f181899199a1a9b1b9c1cb0b131b232b360811b8282061a83530490811561208957600a9061205b565b505061147491611f1a565b600190910190612021565b60646002910493019261201a565b61271060049104930192612010565b6305f5e10060089104930192612005565b662386f26fc1000060109104930192611ff8565b6d04ee2d6d415b85acef810000000060209104930192611fe8565b6040935072184f03e93ff9f4daa797ed6e38ed64bf6a1f0160401b90049050600a611fcd565b50506040516121326020826113e5565b5f815290565b6114749250611f1a565b5090509056fe6e1540171b6c0c960b71a7020d9f60077f6af931a8bbf590da0223dacf75c7aff2e23d0b2e0f1fed13bd95c077635dcbf4fe0d3d37aacc93669f4512b61ca87da26469706673582212209a35048684ab9c2288f907b33dbd610378ef5c84c7ffa0d0da22c835b0a8cf0464736f6c634300081b00332f8788117e7eff1d82e926ec794901d17c78024a50270940304540a733656f0d6d5257204ebe7d88fd91ae87941cb2dd9d8062b64ae5a2bd2d28ec40b9fbf6dfa4bfd7afe708e2e87e7f0e2ad9b4d545417e0f795f57b5c5ab5d799c565a04f4","opcodes":"PUSH1 0x80 PUSH1 0x40 MSTORE CALLVALUE PUSH2 0x4FF JUMPI PUSH2 0x2864 DUP1 CODESIZE SUB DUP1 PUSH2 0x19 DUP2 PUSH2 0x503 JUMP JUMPDEST SWAP3 DUP4 CODECOPY DUP2 ADD PUSH1 0x60 DUP3 DUP3 SUB SLT PUSH2 0x4FF JUMPI PUSH2 0x31 DUP3 PUSH2 0x528 JUMP JUMPDEST SWAP2 PUSH2 0x3E PUSH1 0x20 DUP3 ADD PUSH2 0x528 JUMP JUMPDEST PUSH1 0x40 DUP3 ADD MLOAD SWAP1 SWAP2 PUSH1 0x1 PUSH1 0x1 PUSH1 0x40 SHL SUB DUP3 GT PUSH2 0x4FF JUMPI ADD DUP3 PUSH1 0x1F DUP3 ADD SLT ISZERO PUSH2 0x4FF JUMPI DUP1 MLOAD SWAP1 PUSH1 0x1 PUSH1 0x1 PUSH1 0x40 SHL SUB DUP3 GT PUSH2 0x322 JUMPI PUSH2 0x83 PUSH1 0x1F DUP4 ADD PUSH1 0x1F NOT AND PUSH1 0x20 ADD PUSH2 0x503 JUMP JUMPDEST SWAP4 DUP3 DUP6 MSTORE PUSH1 0x20 DUP4 DUP4 ADD ADD GT PUSH2 0x4FF JUMPI DUP2 PUSH0 SWAP3 PUSH1 0x20 DUP1 SWAP4 ADD DUP4 DUP8 ADD MCOPY DUP5 ADD ADD MSTORE PUSH2 0xAC PUSH1 0x40 PUSH2 0x503 JUMP JUMPDEST SWAP3 PUSH1 0x15 DUP5 MSTORE PUSH32 0x436861696E6C6573732041636365737320506173730000000000000000000000 PUSH1 0x20 DUP6 ADD MSTORE PUSH2 0xE1 PUSH1 0x40 PUSH2 0x503 JUMP JUMPDEST PUSH1 0x3 DUP2 MSTORE PUSH3 0x43415 PUSH1 0xEC SHL PUSH1 0x20 DUP3 ADD MSTORE DUP5 MLOAD SWAP1 SWAP5 PUSH1 0x1 PUSH1 0x1 PUSH1 0x40 SHL SUB DUP3 GT PUSH2 0x322 JUMPI PUSH0 SLOAD SWAP1 PUSH1 0x1 DUP3 DUP2 SHR SWAP3 AND DUP1 ISZERO PUSH2 0x4F5 JUMPI JUMPDEST PUSH1 0x20 DUP4 LT EQ PUSH2 0x304 JUMPI DUP2 PUSH1 0x1F DUP5 SWAP4 GT PUSH2 0x488 JUMPI JUMPDEST POP PUSH1 0x20 SWAP1 PUSH1 0x1F DUP4 GT PUSH1 0x1 EQ PUSH2 0x425 JUMPI PUSH0 SWAP3 PUSH2 0x41A JUMPI JUMPDEST POP POP DUP2 PUSH1 0x1 SHL SWAP2 PUSH0 NOT SWAP1 PUSH1 0x3 SHL SHR NOT AND OR PUSH0 SSTORE JUMPDEST DUP4 MLOAD PUSH1 0x1 PUSH1 0x1 PUSH1 0x40 SHL SUB DUP2 GT PUSH2 0x322 JUMPI PUSH1 0x1 SLOAD PUSH1 0x1 DUP2 DUP2 SHR SWAP2 AND DUP1 ISZERO PUSH2 0x410 JUMPI JUMPDEST PUSH1 0x20 DUP3 LT EQ PUSH2 0x304 JUMPI PUSH1 0x1F DUP2 GT PUSH2 0x3AD JUMPI JUMPDEST POP PUSH1 0x20 PUSH1 0x1F DUP3 GT PUSH1 0x1 EQ PUSH2 0x341 JUMPI SWAP1 DUP1 PUSH2 0x1BF SWAP4 SWAP3 PUSH2 0x1C5 SWAP7 SWAP8 PUSH0 SWAP3 PUSH2 0x336 JUMPI JUMPDEST POP POP DUP2 PUSH1 0x1 SHL SWAP2 PUSH0 NOT SWAP1 PUSH1 0x3 SHL SHR NOT AND OR PUSH1 0x1 SSTORE PUSH2 0x53C JUMP JUMPDEST POP PUSH2 0x5B2 JUMP JUMPDEST POP DUP1 MLOAD PUSH1 0x1 PUSH1 0x1 PUSH1 0x40 SHL SUB DUP2 GT PUSH2 0x322 JUMPI PUSH1 0x9 SLOAD PUSH1 0x1 DUP2 DUP2 SHR SWAP2 AND DUP1 ISZERO PUSH2 0x318 JUMPI JUMPDEST PUSH1 0x20 DUP3 LT EQ PUSH2 0x304 JUMPI PUSH1 0x1F DUP2 GT PUSH2 0x2A1 JUMPI JUMPDEST POP PUSH1 0x20 SWAP2 PUSH1 0x1F DUP3 GT PUSH1 0x1 EQ PUSH2 0x241 JUMPI SWAP2 DUP2 SWAP3 PUSH0 SWAP3 PUSH2 0x236 JUMPI JUMPDEST POP POP DUP2 PUSH1 0x1 SHL SWAP2 PUSH0 NOT SWAP1 PUSH1 0x3 SHL SHR NOT AND OR PUSH1 0x9 SSTORE JUMPDEST PUSH1 0x40 MLOAD PUSH2 0x21BE SWAP1 DUP2 PUSH2 0x646 DUP3 CODECOPY RETURN JUMPDEST ADD MLOAD SWAP1 POP PUSH0 DUP1 PUSH2 0x212 JUMP JUMPDEST PUSH1 0x1F NOT DUP3 AND SWAP3 PUSH1 0x9 PUSH0 MSTORE DUP1 PUSH0 KECCAK256 SWAP2 PUSH0 JUMPDEST DUP6 DUP2 LT PUSH2 0x289 JUMPI POP DUP4 PUSH1 0x1 SWAP6 LT PUSH2 0x271 JUMPI JUMPDEST POP POP POP DUP2 SHL ADD PUSH1 0x9 SSTORE PUSH2 0x227 JUMP JUMPDEST ADD MLOAD PUSH0 NOT PUSH1 0xF8 DUP5 PUSH1 0x3 SHL AND SHR NOT AND SWAP1 SSTORE PUSH0 DUP1 DUP1 PUSH2 0x263 JUMP JUMPDEST SWAP2 SWAP3 PUSH1 0x20 PUSH1 0x1 DUP2 SWAP3 DUP7 DUP6 ADD MLOAD DUP2 SSTORE ADD SWAP5 ADD SWAP3 ADD PUSH2 0x251 JUMP JUMPDEST PUSH1 0x9 PUSH0 MSTORE PUSH32 0x6E1540171B6C0C960B71A7020D9F60077F6AF931A8BBF590DA0223DACF75C7AF PUSH1 0x1F DUP4 ADD PUSH1 0x5 SHR DUP2 ADD SWAP2 PUSH1 0x20 DUP5 LT PUSH2 0x2FA JUMPI JUMPDEST PUSH1 0x1F ADD PUSH1 0x5 SHR ADD SWAP1 JUMPDEST DUP2 DUP2 LT PUSH2 0x2EF JUMPI POP PUSH2 0x1F9 JUMP JUMPDEST PUSH0 DUP2 SSTORE PUSH1 0x1 ADD PUSH2 0x2E2 JUMP JUMPDEST SWAP1 SWAP2 POP DUP2 SWAP1 PUSH2 0x2D9 JUMP JUMPDEST PUSH4 0x4E487B71 PUSH1 0xE0 SHL PUSH0 MSTORE PUSH1 0x22 PUSH1 0x4 MSTORE PUSH1 0x24 PUSH0 REVERT JUMPDEST SWAP1 PUSH1 0x7F AND SWAP1 PUSH2 0x1E7 JUMP JUMPDEST PUSH4 0x4E487B71 PUSH1 0xE0 SHL PUSH0 MSTORE PUSH1 0x41 PUSH1 0x4 MSTORE PUSH1 0x24 PUSH0 REVERT JUMPDEST ADD MLOAD SWAP1 POP PUSH0 DUP1 PUSH2 0x1A6 JUMP JUMPDEST PUSH1 0x1F NOT DUP3 AND SWAP6 PUSH1 0x1 PUSH0 MSTORE DUP2 PUSH0 KECCAK256 SWAP7 PUSH0 JUMPDEST DUP2 DUP2 LT PUSH2 0x395 JUMPI POP SWAP7 PUSH1 0x1 SWAP3 DUP5 SWAP3 PUSH2 0x1BF SWAP7 SWAP6 PUSH2 0x1C5 SWAP10 SWAP11 LT PUSH2 0x37D JUMPI JUMPDEST POP POP POP DUP2 SHL ADD PUSH1 0x1 SSTORE PUSH2 0x53C JUMP JUMPDEST ADD MLOAD PUSH0 NOT PUSH1 0xF8 DUP5 PUSH1 0x3 SHL AND SHR NOT AND SWAP1 SSTORE PUSH0 DUP1 DUP1 PUSH2 0x36F JUMP JUMPDEST DUP4 DUP4 ADD MLOAD DUP10 SSTORE PUSH1 0x1 SWAP1 SWAP9 ADD SWAP8 PUSH1 0x20 SWAP4 DUP5 ADD SWAP4 ADD PUSH2 0x351 JUMP JUMPDEST PUSH1 0x1 PUSH0 MSTORE PUSH32 0xB10E2D527612073B26EECDFD717E6A320CF44B4AFAC2B0732D9FCBE2B7FA0CF6 PUSH1 0x1F DUP4 ADD PUSH1 0x5 SHR DUP2 ADD SWAP2 PUSH1 0x20 DUP5 LT PUSH2 0x406 JUMPI JUMPDEST PUSH1 0x1F ADD PUSH1 0x5 SHR ADD SWAP1 JUMPDEST DUP2 DUP2 LT PUSH2 0x3FB JUMPI POP PUSH2 0x185 JUMP JUMPDEST PUSH0 DUP2 SSTORE PUSH1 0x1 ADD PUSH2 0x3EE JUMP JUMPDEST SWAP1 SWAP2 POP DUP2 SWAP1 PUSH2 0x3E5 JUMP JUMPDEST SWAP1 PUSH1 0x7F AND SWAP1 PUSH2 0x173 JUMP JUMPDEST ADD MLOAD SWAP1 POP PUSH0 DUP1 PUSH2 0x13E JUMP JUMPDEST PUSH0 DUP1 DUP1 MSTORE DUP3 DUP2 KECCAK256 SWAP4 POP PUSH1 0x1F NOT DUP6 AND SWAP1 JUMPDEST DUP2 DUP2 LT PUSH2 0x470 JUMPI POP SWAP1 DUP5 PUSH1 0x1 SWAP6 SWAP5 SWAP4 SWAP3 LT PUSH2 0x458 JUMPI JUMPDEST POP POP POP DUP2 SHL ADD PUSH0 SSTORE PUSH2 0x152 JUMP JUMPDEST ADD MLOAD PUSH0 NOT PUSH1 0xF8 DUP5 PUSH1 0x3 SHL AND SHR NOT AND SWAP1 SSTORE PUSH0 DUP1 DUP1 PUSH2 0x44B JUMP JUMPDEST SWAP3 SWAP4 PUSH1 0x20 PUSH1 0x1 DUP2 SWAP3 DUP8 DUP7 ADD MLOAD DUP2 SSTORE ADD SWAP6 ADD SWAP4 ADD PUSH2 0x435 JUMP JUMPDEST PUSH0 DUP1 MSTORE SWAP1 SWAP2 POP PUSH32 0x290DECD9548B62A8D60345A988386FC84BA6BC95484008F6362F93160EF3E563 PUSH1 0x1F DUP5 ADD PUSH1 0x5 SHR DUP2 ADD SWAP2 PUSH1 0x20 DUP6 LT PUSH2 0x4EB JUMPI JUMPDEST SWAP1 PUSH1 0x1F DUP6 SWAP5 SWAP4 SWAP3 ADD PUSH1 0x5 SHR ADD SWAP1 JUMPDEST DUP2 DUP2 LT PUSH2 0x4DD JUMPI POP PUSH2 0x128 JUMP JUMPDEST PUSH0 DUP2 SSTORE DUP5 SWAP4 POP PUSH1 0x1 ADD PUSH2 0x4D0 JUMP JUMPDEST SWAP1 SWAP2 POP DUP2 SWAP1 PUSH2 0x4C2 JUMP JUMPDEST SWAP2 PUSH1 0x7F AND SWAP2 PUSH2 0x114 JUMP JUMPDEST PUSH0 DUP1 REVERT JUMPDEST PUSH1 0x40 MLOAD SWAP2 SWAP1 PUSH1 0x1F ADD PUSH1 0x1F NOT AND DUP3 ADD PUSH1 0x1 PUSH1 0x1 PUSH1 0x40 SHL SUB DUP2 GT DUP4 DUP3 LT OR PUSH2 0x322 JUMPI PUSH1 0x40 MSTORE JUMP JUMPDEST MLOAD SWAP1 PUSH1 0x1 PUSH1 0x1 PUSH1 0xA0 SHL SUB DUP3 AND DUP3 SUB PUSH2 0x4FF JUMPI JUMP JUMPDEST PUSH1 0x1 PUSH1 0x1 PUSH1 0xA0 SHL SUB DUP2 AND PUSH0 SWAP1 DUP2 MSTORE PUSH0 MLOAD PUSH1 0x20 PUSH2 0x2824 PUSH0 CODECOPY PUSH0 MLOAD SWAP1 PUSH0 MSTORE PUSH1 0x20 MSTORE PUSH1 0x40 SWAP1 KECCAK256 SLOAD PUSH1 0xFF AND PUSH2 0x5AD JUMPI PUSH1 0x1 PUSH1 0x1 PUSH1 0xA0 SHL SUB AND PUSH0 DUP2 DUP2 MSTORE PUSH0 MLOAD PUSH1 0x20 PUSH2 0x2824 PUSH0 CODECOPY PUSH0 MLOAD SWAP1 PUSH0 MSTORE PUSH1 0x20 MSTORE PUSH1 0x40 DUP2 KECCAK256 DUP1 SLOAD PUSH1 0xFF NOT AND PUSH1 0x1 OR SWAP1 SSTORE CALLER SWAP2 SWAP1 PUSH0 MLOAD PUSH1 0x20 PUSH2 0x2804 PUSH0 CODECOPY PUSH0 MLOAD SWAP1 PUSH0 MSTORE DUP2 DUP1 LOG4 PUSH1 0x1 SWAP1 JUMP JUMPDEST POP PUSH0 SWAP1 JUMP JUMPDEST PUSH1 0x1 PUSH1 0x1 PUSH1 0xA0 SHL SUB DUP2 AND PUSH0 SWAP1 DUP2 MSTORE PUSH0 MLOAD PUSH1 0x20 PUSH2 0x2844 PUSH0 CODECOPY PUSH0 MLOAD SWAP1 PUSH0 MSTORE PUSH1 0x20 MSTORE PUSH1 0x40 SWAP1 KECCAK256 SLOAD PUSH1 0xFF AND PUSH2 0x5AD JUMPI PUSH1 0x1 PUSH1 0x1 PUSH1 0xA0 SHL SUB AND PUSH0 DUP2 DUP2 MSTORE PUSH0 MLOAD PUSH1 0x20 PUSH2 0x2844 PUSH0 CODECOPY PUSH0 MLOAD SWAP1 PUSH0 MSTORE PUSH1 0x20 MSTORE PUSH1 0x40 DUP2 KECCAK256 DUP1 SLOAD PUSH1 0xFF NOT AND PUSH1 0x1 OR SWAP1 SSTORE CALLER SWAP2 SWAP1 PUSH32 0x9F2DF0FED2C77648DE5860A4CC508CD0818C85B8B8A1AB4CEEEF8D981C8956A6 SWAP1 PUSH0 MLOAD PUSH1 0x20 PUSH2 0x2804 PUSH0 CODECOPY PUSH0 MLOAD SWAP1 PUSH0 MSTORE SWAP1 DUP1 LOG4 PUSH1 0x1 SWAP1 JUMP INVALID PUSH1 0x80 DUP1 PUSH1 0x40 MSTORE PUSH1 0x4 CALLDATASIZE LT ISZERO PUSH2 0x12 JUMPI PUSH0 DUP1 REVERT JUMPDEST PUSH0 CALLDATALOAD PUSH1 0xE0 SHR SWAP1 DUP2 PUSH4 0x1FFC9A7 EQ PUSH2 0x12A0 JUMPI POP DUP1 PUSH4 0x6FDDE03 EQ PUSH2 0x11FE JUMPI DUP1 PUSH4 0x81812FC EQ PUSH2 0x11C2 JUMPI DUP1 PUSH4 0x95EA7B3 EQ PUSH2 0x10D8 JUMPI DUP1 PUSH4 0x18160DDD EQ PUSH2 0x10BB JUMPI DUP1 PUSH4 0x23B872DD EQ PUSH2 0x10A4 JUMPI DUP1 PUSH4 0x248A9CA3 EQ PUSH2 0x1071 JUMPI DUP1 PUSH4 0x2BA1B5E3 EQ PUSH2 0xDE3 JUMPI DUP1 PUSH4 0x2F2FF15D EQ PUSH2 0xDA5 JUMPI DUP1 PUSH4 0x36568ABE EQ PUSH2 0xD61 JUMPI DUP1 PUSH4 0x42842E0E EQ PUSH2 0xD32 JUMPI DUP1 PUSH4 0x536565C4 EQ PUSH2 0xC81 JUMPI DUP1 PUSH4 0x550989A0 EQ PUSH2 0xC29 JUMPI DUP1 PUSH4 0x55F804B3 EQ PUSH2 0xA18 JUMPI DUP1 PUSH4 0x6352211E EQ PUSH2 0x9E8 JUMPI DUP1 PUSH4 0x70A08231 EQ PUSH2 0x997 JUMPI DUP1 PUSH4 0x7F1226DC EQ PUSH2 0x675 JUMPI DUP1 PUSH4 0x90B057A0 EQ PUSH2 0x63D JUMPI DUP1 PUSH4 0x91D14854 EQ PUSH2 0x5F4 JUMPI DUP1 PUSH4 0x95D89B41 EQ PUSH2 0x52A JUMPI DUP1 PUSH4 0x9BA9B29D EQ PUSH2 0x4C2 JUMPI DUP1 PUSH4 0xA217FDDF EQ PUSH2 0x4A8 JUMPI DUP1 PUSH4 0xA22CB465 EQ PUSH2 0x3EB JUMPI DUP1 PUSH4 0xB88D4FDE EQ PUSH2 0x37F JUMPI DUP1 PUSH4 0xBC38D48C EQ PUSH2 0x2CB JUMPI DUP1 PUSH4 0xC6530E41 EQ PUSH2 0x171 JUMPI DUP1 PUSH4 0xC87B56DD EQ PUSH2 0x294 JUMPI DUP1 PUSH4 0xD5391393 EQ PUSH2 0x25A JUMPI DUP1 PUSH4 0xD547741F EQ PUSH2 0x215 JUMPI DUP1 PUSH4 0xE985E9C5 EQ PUSH2 0x1BE JUMPI PUSH4 0xF1CAA2F8 EQ PUSH2 0x171 JUMPI PUSH0 DUP1 REVERT JUMPDEST CALLVALUE PUSH2 0x1BA JUMPI PUSH1 0x40 CALLDATASIZE PUSH1 0x3 NOT ADD SLT PUSH2 0x1BA JUMPI PUSH1 0x1 PUSH1 0x1 PUSH1 0xA0 SHL SUB PUSH2 0x192 PUSH2 0x1363 JUMP JUMPDEST AND PUSH0 MSTORE PUSH1 0xC PUSH1 0x20 MSTORE PUSH1 0x40 PUSH0 KECCAK256 PUSH1 0x24 CALLDATALOAD PUSH0 MSTORE PUSH1 0x20 MSTORE PUSH1 0x20 PUSH1 0xFF PUSH1 0x40 PUSH0 KECCAK256 SLOAD AND PUSH1 0x40 MLOAD SWAP1 ISZERO ISZERO DUP2 MSTORE RETURN JUMPDEST PUSH0 DUP1 REVERT JUMPDEST CALLVALUE PUSH2 0x1BA JUMPI PUSH1 0x40 CALLDATASIZE PUSH1 0x3 NOT ADD SLT PUSH2 0x1BA JUMPI PUSH2 0x1D7 PUSH2 0x1363 JUMP JUMPDEST PUSH2 0x1DF PUSH2 0x1379 JUMP JUMPDEST SWAP1 PUSH1 0x1 DUP1 PUSH1 0xA0 SHL SUB AND PUSH0 MSTORE PUSH1 0x5 PUSH1 0x20 MSTORE PUSH1 0x40 PUSH0 KECCAK256 SWAP1 PUSH1 0x1 DUP1 PUSH1 0xA0 SHL SUB AND PUSH0 MSTORE PUSH1 0x20 MSTORE PUSH1 0x20 PUSH1 0xFF PUSH1 0x40 PUSH0 KECCAK256 SLOAD AND PUSH1 0x40 MLOAD SWAP1 ISZERO ISZERO DUP2 MSTORE RETURN JUMPDEST CALLVALUE PUSH2 0x1BA JUMPI PUSH1 0x40 CALLDATASIZE PUSH1 0x3 NOT ADD SLT PUSH2 0x1BA JUMPI PUSH2 0x258 PUSH1 0x4 CALLDATALOAD PUSH2 0x234 PUSH2 0x1379 JUMP JUMPDEST SWAP1 PUSH2 0x253 PUSH2 0x24E DUP3 PUSH0 MSTORE PUSH1 0x7 PUSH1 0x20 MSTORE PUSH1 0x1 PUSH1 0x40 PUSH0 KECCAK256 ADD SLOAD SWAP1 JUMP JUMPDEST PUSH2 0x1938 JUMP JUMPDEST PUSH2 0x1D72 JUMP JUMPDEST STOP JUMPDEST CALLVALUE PUSH2 0x1BA JUMPI PUSH0 CALLDATASIZE PUSH1 0x3 NOT ADD SLT PUSH2 0x1BA JUMPI PUSH1 0x20 PUSH1 0x40 MLOAD PUSH32 0x9F2DF0FED2C77648DE5860A4CC508CD0818C85B8B8A1AB4CEEEF8D981C8956A6 DUP2 MSTORE RETURN JUMPDEST CALLVALUE PUSH2 0x1BA JUMPI PUSH1 0x20 CALLDATASIZE PUSH1 0x3 NOT ADD SLT PUSH2 0x1BA JUMPI PUSH2 0x2C7 PUSH2 0x2B3 PUSH1 0x4 CALLDATALOAD PUSH2 0x1F58 JUMP JUMPDEST PUSH1 0x40 MLOAD SWAP2 DUP3 SWAP2 PUSH1 0x20 DUP4 MSTORE PUSH1 0x20 DUP4 ADD SWAP1 PUSH2 0x133F JUMP JUMPDEST SUB SWAP1 RETURN JUMPDEST CALLVALUE PUSH2 0x1BA JUMPI PUSH1 0x20 CALLDATASIZE PUSH1 0x3 NOT ADD SLT PUSH2 0x1BA JUMPI PUSH1 0x1 PUSH1 0x1 PUSH1 0xA0 SHL SUB PUSH2 0x2EC PUSH2 0x1363 JUMP JUMPDEST AND PUSH0 MSTORE PUSH1 0xB PUSH1 0x20 MSTORE PUSH1 0x40 PUSH0 KECCAK256 PUSH1 0x40 MLOAD DUP1 PUSH1 0x20 DUP4 SLOAD SWAP2 DUP3 DUP2 MSTORE ADD SWAP1 DUP2 SWAP4 PUSH0 MSTORE PUSH1 0x20 PUSH0 KECCAK256 SWAP1 PUSH0 JUMPDEST DUP2 DUP2 LT PUSH2 0x369 JUMPI POP POP POP DUP2 PUSH2 0x327 SWAP2 SUB DUP3 PUSH2 0x13E5 JUMP JUMPDEST PUSH1 0x40 MLOAD SWAP2 DUP3 SWAP2 PUSH1 0x20 DUP4 ADD SWAP1 PUSH1 0x20 DUP5 MSTORE MLOAD DUP1 SWAP2 MSTORE PUSH1 0x40 DUP4 ADD SWAP2 SWAP1 PUSH0 JUMPDEST DUP2 DUP2 LT PUSH2 0x350 JUMPI POP POP POP SUB SWAP1 RETURN JUMPDEST DUP3 MLOAD DUP5 MSTORE DUP6 SWAP5 POP PUSH1 0x20 SWAP4 DUP5 ADD SWAP4 SWAP1 SWAP3 ADD SWAP2 PUSH1 0x1 ADD PUSH2 0x342 JUMP JUMPDEST DUP3 SLOAD DUP5 MSTORE PUSH1 0x20 SWAP1 SWAP4 ADD SWAP3 PUSH1 0x1 SWAP3 DUP4 ADD SWAP3 ADD PUSH2 0x311 JUMP JUMPDEST CALLVALUE PUSH2 0x1BA JUMPI PUSH1 0x80 CALLDATASIZE PUSH1 0x3 NOT ADD SLT PUSH2 0x1BA JUMPI PUSH2 0x398 PUSH2 0x1363 JUMP JUMPDEST PUSH2 0x3A0 PUSH2 0x1379 JUMP JUMPDEST SWAP1 PUSH1 0x44 CALLDATALOAD PUSH1 0x64 CALLDATALOAD SWAP3 PUSH8 0xFFFFFFFFFFFFFFFF DUP5 GT PUSH2 0x1BA JUMPI CALLDATASIZE PUSH1 0x23 DUP6 ADD SLT ISZERO PUSH2 0x1BA JUMPI PUSH2 0x3D9 PUSH2 0x258 SWAP5 CALLDATASIZE SWAP1 PUSH1 0x24 DUP2 PUSH1 0x4 ADD CALLDATALOAD SWAP2 ADD PUSH2 0x1423 JUMP JUMPDEST SWAP3 PUSH2 0x3E5 DUP4 DUP4 DUP4 PUSH2 0x161A JUMP JUMPDEST CALLER PUSH2 0x1DF6 JUMP JUMPDEST CALLVALUE PUSH2 0x1BA JUMPI PUSH1 0x40 CALLDATASIZE PUSH1 0x3 NOT ADD SLT PUSH2 0x1BA JUMPI PUSH2 0x404 PUSH2 0x1363 JUMP JUMPDEST PUSH1 0x24 CALLDATALOAD SWAP1 DUP2 ISZERO ISZERO SWAP1 DUP2 DUP4 SUB PUSH2 0x1BA JUMPI CALLER ISZERO PUSH2 0x495 JUMPI PUSH1 0x1 PUSH1 0x1 PUSH1 0xA0 SHL SUB AND SWAP2 DUP3 ISZERO PUSH2 0x482 JUMPI PUSH2 0x454 SWAP1 CALLER PUSH0 MSTORE PUSH1 0x5 PUSH1 0x20 MSTORE PUSH1 0x40 PUSH0 KECCAK256 DUP5 PUSH0 MSTORE PUSH1 0x20 MSTORE PUSH1 0x40 PUSH0 KECCAK256 SWAP1 PUSH1 0xFF DUP1 NOT DUP4 SLOAD AND SWAP2 ISZERO ISZERO AND OR SWAP1 SSTORE JUMP JUMPDEST PUSH1 0x40 MLOAD SWAP1 DUP2 MSTORE PUSH32 0x17307EAB39AB6107E8899845AD3D59BD9653F200F220920489CA2B5937696C31 PUSH1 0x20 CALLER SWAP3 LOG3 STOP JUMPDEST DUP3 PUSH4 0xB611743 PUSH1 0xE3 SHL PUSH0 MSTORE PUSH1 0x4 MSTORE PUSH1 0x24 PUSH0 REVERT JUMPDEST PUSH4 0xA9FBF51F PUSH1 0xE0 SHL PUSH0 MSTORE PUSH0 PUSH1 0x4 MSTORE PUSH1 0x24 PUSH0 REVERT JUMPDEST CALLVALUE PUSH2 0x1BA JUMPI PUSH0 CALLDATASIZE PUSH1 0x3 NOT ADD SLT PUSH2 0x1BA JUMPI PUSH1 0x20 PUSH1 0x40 MLOAD PUSH0 DUP2 MSTORE RETURN JUMPDEST CALLVALUE PUSH2 0x1BA JUMPI PUSH1 0x20 CALLDATASIZE PUSH1 0x3 NOT ADD SLT PUSH2 0x1BA JUMPI PUSH1 0x4 CALLDATALOAD PUSH0 MSTORE PUSH1 0xA PUSH1 0x20 MSTORE PUSH1 0x40 PUSH0 KECCAK256 DUP1 SLOAD PUSH2 0x4EF PUSH1 0x1 DUP4 ADD PUSH2 0x157C JUMP JUMPDEST SWAP2 PUSH1 0xFF PUSH1 0x3 PUSH1 0x2 DUP4 ADD SLOAD SWAP3 ADD SLOAD AND PUSH2 0x519 PUSH1 0x40 MLOAD SWAP5 DUP6 SWAP5 DUP6 MSTORE PUSH1 0x80 PUSH1 0x20 DUP7 ADD MSTORE PUSH1 0x80 DUP6 ADD SWAP1 PUSH2 0x133F JUMP JUMPDEST SWAP2 PUSH1 0x40 DUP5 ADD MSTORE ISZERO ISZERO PUSH1 0x60 DUP4 ADD MSTORE SUB SWAP1 RETURN JUMPDEST CALLVALUE PUSH2 0x1BA JUMPI PUSH0 CALLDATASIZE PUSH1 0x3 NOT ADD SLT PUSH2 0x1BA JUMPI PUSH1 0x40 MLOAD PUSH0 PUSH1 0x1 SLOAD PUSH2 0x54A DUP2 PUSH2 0x14A0 JUMP JUMPDEST DUP1 DUP5 MSTORE SWAP1 PUSH1 0x1 DUP2 AND SWAP1 DUP2 ISZERO PUSH2 0x5D0 JUMPI POP PUSH1 0x1 EQ PUSH2 0x572 JUMPI JUMPDEST PUSH2 0x2C7 DUP4 PUSH2 0x2B3 DUP2 DUP6 SUB DUP3 PUSH2 0x13E5 JUMP JUMPDEST PUSH1 0x1 PUSH0 SWAP1 DUP2 MSTORE PUSH32 0xB10E2D527612073B26EECDFD717E6A320CF44B4AFAC2B0732D9FCBE2B7FA0CF6 SWAP4 SWAP3 POP SWAP1 JUMPDEST DUP1 DUP3 LT PUSH2 0x5B6 JUMPI POP SWAP1 SWAP2 POP DUP2 ADD PUSH1 0x20 ADD PUSH2 0x2B3 PUSH2 0x562 JUMP JUMPDEST SWAP2 SWAP3 PUSH1 0x1 DUP2 PUSH1 0x20 SWAP3 SLOAD DUP4 DUP6 DUP9 ADD ADD MSTORE ADD SWAP2 ADD SWAP1 SWAP3 SWAP2 PUSH2 0x59E JUMP JUMPDEST PUSH1 0xFF NOT AND PUSH1 0x20 DUP1 DUP7 ADD SWAP2 SWAP1 SWAP2 MSTORE SWAP2 ISZERO ISZERO PUSH1 0x5 SHL DUP5 ADD SWAP1 SWAP2 ADD SWAP2 POP PUSH2 0x2B3 SWAP1 POP PUSH2 0x562 JUMP JUMPDEST CALLVALUE PUSH2 0x1BA JUMPI PUSH1 0x40 CALLDATASIZE PUSH1 0x3 NOT ADD SLT PUSH2 0x1BA JUMPI PUSH2 0x60D PUSH2 0x1379 JUMP JUMPDEST PUSH1 0x4 CALLDATALOAD PUSH0 MSTORE PUSH1 0x7 PUSH1 0x20 MSTORE PUSH1 0x40 PUSH0 KECCAK256 SWAP1 PUSH1 0x1 DUP1 PUSH1 0xA0 SHL SUB AND PUSH0 MSTORE PUSH1 0x20 MSTORE PUSH1 0x20 PUSH1 0xFF PUSH1 0x40 PUSH0 KECCAK256 SLOAD AND PUSH1 0x40 MLOAD SWAP1 ISZERO ISZERO DUP2 MSTORE RETURN JUMPDEST CALLVALUE PUSH2 0x1BA JUMPI PUSH1 0x20 CALLDATASIZE PUSH1 0x3 NOT ADD SLT PUSH2 0x1BA JUMPI PUSH1 0x1 PUSH1 0x1 PUSH1 0xA0 SHL SUB PUSH2 0x65E PUSH2 0x1363 JUMP JUMPDEST AND PUSH0 MSTORE PUSH1 0xB PUSH1 0x20 MSTORE PUSH1 0x20 PUSH1 0x40 PUSH0 KECCAK256 SLOAD PUSH1 0x40 MLOAD SWAP1 DUP2 MSTORE RETURN JUMPDEST CALLVALUE PUSH2 0x1BA JUMPI PUSH1 0x80 CALLDATASIZE PUSH1 0x3 NOT ADD SLT PUSH2 0x1BA JUMPI PUSH2 0x68E PUSH2 0x1363 JUMP JUMPDEST PUSH1 0x24 CALLDATALOAD SWAP1 PUSH1 0x44 CALLDATALOAD PUSH8 0xFFFFFFFFFFFFFFFF DUP2 GT PUSH2 0x1BA JUMPI PUSH2 0x6B2 SWAP1 CALLDATASIZE SWAP1 PUSH1 0x4 ADD PUSH2 0x1459 JUMP JUMPDEST SWAP2 PUSH1 0x64 CALLDATALOAD PUSH8 0xFFFFFFFFFFFFFFFF DUP2 GT PUSH2 0x1BA JUMPI PUSH2 0x6D3 SWAP1 CALLDATASIZE SWAP1 PUSH1 0x4 ADD PUSH2 0x1459 JUMP JUMPDEST PUSH2 0x6DB PUSH2 0x18C9 JUMP JUMPDEST PUSH1 0x1 PUSH1 0x1 PUSH1 0xA0 SHL SUB DUP4 AND SWAP2 PUSH2 0x6F1 DUP4 ISZERO ISZERO PUSH2 0x17BA JUMP JUMPDEST PUSH2 0x6FC DUP2 ISZERO ISZERO PUSH2 0x17FA JUMP JUMPDEST DUP5 MLOAD ISZERO PUSH2 0x95E JUMPI PUSH2 0x71C PUSH2 0x711 PUSH1 0x8 SLOAD PUSH2 0x183A JUMP JUMPDEST DUP1 SWAP6 DUP2 PUSH1 0x8 SSTORE PUSH2 0x1972 JUMP JUMPDEST PUSH2 0x726 DUP3 DUP6 PUSH2 0x1B7F JUMP JUMPDEST PUSH1 0x40 MLOAD SWAP2 PUSH2 0x733 DUP4 PUSH2 0x13C9 JUMP JUMPDEST DUP2 DUP4 MSTORE PUSH1 0x20 DUP4 ADD DUP7 DUP2 MSTORE PUSH1 0x40 DUP5 ADD TIMESTAMP DUP2 MSTORE PUSH1 0x60 DUP6 ADD SWAP2 PUSH1 0x1 DUP4 MSTORE DUP8 PUSH0 MSTORE PUSH1 0xA PUSH1 0x20 MSTORE PUSH1 0x40 PUSH0 KECCAK256 SWAP6 MLOAD DUP7 SSTORE PUSH1 0x1 DUP7 ADD SWAP1 MLOAD DUP1 MLOAD SWAP1 PUSH8 0xFFFFFFFFFFFFFFFF DUP3 GT PUSH2 0x94A JUMPI PUSH2 0x77F DUP4 SLOAD PUSH2 0x14A0 JUMP JUMPDEST PUSH1 0x1F DUP2 GT PUSH2 0x905 JUMPI JUMPDEST POP SWAP2 PUSH1 0x20 SWAP11 SWAP6 SWAP4 SWAP2 DUP11 SWAP8 SWAP6 SWAP4 DUP13 SWAP1 PUSH1 0x1F DUP4 GT PUSH1 0x1 EQ PUSH2 0x869 JUMPI SWAP4 PUSH0 MLOAD PUSH1 0x20 PUSH2 0x2169 PUSH0 CODECOPY PUSH0 MLOAD SWAP1 PUSH0 MSTORE SWAP10 SWAP11 SWAP4 DUP4 PUSH1 0x3 SWAP5 PUSH2 0x853 SWAP10 SWAP9 SWAP5 PUSH2 0x7F7 SWAP9 PUSH0 SWAP3 PUSH2 0x85E JUMPI JUMPDEST POP POP DUP2 PUSH1 0x1 SHL SWAP2 PUSH0 NOT SWAP1 DUP8 SHL SHR NOT AND OR SWAP1 SSTORE JUMPDEST MLOAD PUSH1 0x2 DUP5 ADD SSTORE MLOAD ISZERO ISZERO SWAP2 ADD SWAP1 PUSH1 0xFF DUP1 NOT DUP4 SLOAD AND SWAP2 ISZERO ISZERO AND OR SWAP1 SSTORE JUMP JUMPDEST DUP7 PUSH0 MSTORE PUSH1 0xB DUP10 MSTORE PUSH2 0x80B DUP7 PUSH1 0x40 PUSH0 KECCAK256 PUSH2 0x185C JUMP JUMPDEST DUP7 PUSH0 MSTORE PUSH1 0xC DUP10 MSTORE PUSH1 0x40 PUSH0 KECCAK256 DUP4 PUSH0 MSTORE DUP10 MSTORE PUSH1 0x40 PUSH0 KECCAK256 PUSH1 0x1 PUSH1 0xFF NOT DUP3 SLOAD AND OR SWAP1 SSTORE PUSH2 0x845 PUSH1 0x40 MLOAD SWAP5 DUP6 SWAP5 DUP6 MSTORE PUSH1 0x60 DUP12 DUP7 ADD MSTORE PUSH1 0x60 DUP6 ADD SWAP1 PUSH2 0x133F JUMP JUMPDEST SWAP1 DUP4 DUP3 SUB PUSH1 0x40 DUP6 ADD MSTORE PUSH2 0x133F JUMP JUMPDEST SUB SWAP1 LOG3 PUSH1 0x40 MLOAD SWAP1 DUP2 MSTORE RETURN JUMPDEST ADD MLOAD SWAP1 POP PUSH0 DUP1 PUSH2 0x7C8 JUMP JUMPDEST SWAP10 SWAP5 SWAP4 SWAP3 SWAP2 SWAP1 PUSH1 0x1F NOT DUP3 AND SWAP11 DUP4 PUSH0 MSTORE DUP2 PUSH0 KECCAK256 SWAP12 PUSH0 JUMPDEST DUP2 DUP2 LT PUSH2 0x8D4 JUMPI POP DUP4 PUSH0 MLOAD PUSH1 0x20 PUSH2 0x2169 PUSH0 CODECOPY PUSH0 MLOAD SWAP1 PUSH0 MSTORE SWAP13 SWAP14 PUSH2 0x853 SWAP11 SWAP10 SWAP8 SWAP5 PUSH1 0x3 SWAP8 SWAP5 PUSH2 0x7F7 SWAP11 SWAP8 PUSH1 0x1 SWAP6 LT PUSH2 0x8BD JUMPI JUMPDEST POP POP POP DUP2 SHL ADD SWAP1 SSTORE PUSH2 0x7DB JUMP JUMPDEST ADD MLOAD PUSH0 NOT DUP4 DUP10 SHL PUSH1 0xF8 AND SHR NOT AND SWAP1 SSTORE PUSH0 DUP1 DUP1 PUSH2 0x8B0 JUMP JUMPDEST SWAP4 SWAP6 SWAP8 SWAP10 SWAP12 POP SWAP1 SWAP2 SWAP4 SWAP6 SWAP8 SWAP10 SWAP12 DUP16 PUSH1 0x1 DUP2 SWAP3 DUP8 DUP7 ADD MLOAD DUP2 SSTORE ADD SWAP6 ADD SWAP4 ADD SWAP1 DUP15 SWAP12 SWAP10 SWAP8 SWAP6 SWAP4 SWAP3 SWAP2 SWAP13 SWAP11 SWAP9 SWAP7 SWAP5 SWAP13 PUSH2 0x87E JUMP JUMPDEST DUP4 PUSH0 MSTORE PUSH1 0x20 PUSH0 KECCAK256 PUSH1 0x1F DUP5 ADD PUSH1 0x5 SHR DUP2 ADD SWAP2 PUSH1 0x20 DUP6 LT PUSH2 0x940 JUMPI JUMPDEST PUSH1 0x1F ADD PUSH1 0x5 SHR ADD SWAP1 JUMPDEST DUP2 DUP2 LT PUSH2 0x935 JUMPI POP PUSH2 0x788 JUMP JUMPDEST PUSH0 DUP2 SSTORE PUSH1 0x1 ADD PUSH2 0x928 JUMP JUMPDEST SWAP1 SWAP2 POP DUP2 SWAP1 PUSH2 0x91F JUMP JUMPDEST PUSH4 0x4E487B71 PUSH1 0xE0 SHL PUSH0 MSTORE PUSH1 0x41 PUSH1 0x4 MSTORE PUSH1 0x24 PUSH0 REVERT JUMPDEST PUSH1 0x40 MLOAD PUSH3 0x461BCD PUSH1 0xE5 SHL DUP2 MSTORE PUSH1 0x20 PUSH1 0x4 DUP3 ADD MSTORE PUSH1 0x11 PUSH1 0x24 DUP3 ADD MSTORE PUSH17 0x125B9D985B1A59081C1C9BD91D58DD1259 PUSH1 0x7A SHL PUSH1 0x44 DUP3 ADD MSTORE PUSH1 0x64 SWAP1 REVERT JUMPDEST CALLVALUE PUSH2 0x1BA JUMPI PUSH1 0x20 CALLDATASIZE PUSH1 0x3 NOT ADD SLT PUSH2 0x1BA JUMPI PUSH1 0x1 PUSH1 0x1 PUSH1 0xA0 SHL SUB PUSH2 0x9B8 PUSH2 0x1363 JUMP JUMPDEST AND DUP1 ISZERO PUSH2 0x9D5 JUMPI PUSH0 MSTORE PUSH1 0x3 PUSH1 0x20 MSTORE PUSH1 0x20 PUSH1 0x40 PUSH0 KECCAK256 SLOAD PUSH1 0x40 MLOAD SWAP1 DUP2 MSTORE RETURN JUMPDEST PUSH4 0x22718AD9 PUSH1 0xE2 SHL PUSH0 MSTORE PUSH0 PUSH1 0x4 MSTORE PUSH1 0x24 PUSH0 REVERT JUMPDEST CALLVALUE PUSH2 0x1BA JUMPI PUSH1 0x20 CALLDATASIZE PUSH1 0x3 NOT ADD SLT PUSH2 0x1BA JUMPI PUSH1 0x20 PUSH2 0xA06 PUSH1 0x4 CALLDATALOAD PUSH2 0x1895 JUMP JUMPDEST PUSH1 0x40 MLOAD PUSH1 0x1 PUSH1 0x1 PUSH1 0xA0 SHL SUB SWAP1 SWAP2 AND DUP2 MSTORE RETURN JUMPDEST CALLVALUE PUSH2 0x1BA JUMPI PUSH1 0x20 CALLDATASIZE PUSH1 0x3 NOT ADD SLT PUSH2 0x1BA JUMPI PUSH1 0x4 CALLDATALOAD PUSH8 0xFFFFFFFFFFFFFFFF DUP2 GT PUSH2 0x1BA JUMPI PUSH2 0xA49 SWAP1 CALLDATASIZE SWAP1 PUSH1 0x4 ADD PUSH2 0x1459 JUMP JUMPDEST CALLER PUSH0 SWAP1 DUP2 MSTORE PUSH32 0x6D5257204EBE7D88FD91AE87941CB2DD9D8062B64AE5A2BD2D28EC40B9FBF6DF PUSH1 0x20 MSTORE PUSH1 0x40 SWAP1 KECCAK256 SLOAD PUSH1 0xFF AND ISZERO PUSH2 0xC12 JUMPI DUP1 MLOAD PUSH8 0xFFFFFFFFFFFFFFFF DUP2 GT PUSH2 0x94A JUMPI PUSH2 0xA9B PUSH1 0x9 SLOAD PUSH2 0x14A0 JUMP JUMPDEST PUSH1 0x1F DUP2 GT PUSH2 0xBAA JUMPI JUMPDEST POP PUSH1 0x20 PUSH1 0x1F DUP3 GT PUSH1 0x1 EQ PUSH2 0xB18 JUMPI SWAP2 DUP2 PUSH2 0xB08 SWAP3 PUSH32 0x6741B2FC379FAD678116FE3D4D4B9A1A184AB53BA36B86AD0FA66340B1AB41AD SWAP5 PUSH0 SWAP2 PUSH2 0xB0D JUMPI JUMPDEST POP DUP2 PUSH1 0x1 SHL SWAP2 PUSH0 NOT SWAP1 PUSH1 0x3 SHL SHR NOT AND OR PUSH1 0x9 SSTORE PUSH1 0x40 MLOAD SWAP2 DUP3 SWAP2 PUSH1 0x20 DUP4 MSTORE PUSH1 0x20 DUP4 ADD SWAP1 PUSH2 0x133F JUMP JUMPDEST SUB SWAP1 LOG1 STOP JUMPDEST SWAP1 POP DUP3 ADD MLOAD DUP6 PUSH2 0xAE1 JUMP JUMPDEST PUSH1 0x1F NOT DUP3 AND SWAP1 PUSH1 0x9 PUSH0 MSTORE PUSH0 MLOAD PUSH1 0x20 PUSH2 0x2149 PUSH0 CODECOPY PUSH0 MLOAD SWAP1 PUSH0 MSTORE SWAP2 PUSH0 JUMPDEST DUP2 DUP2 LT PUSH2 0xB92 JUMPI POP SWAP3 PUSH32 0x6741B2FC379FAD678116FE3D4D4B9A1A184AB53BA36B86AD0FA66340B1AB41AD SWAP5 SWAP3 PUSH1 0x1 SWAP3 DUP3 PUSH2 0xB08 SWAP7 LT PUSH2 0xB7A JUMPI JUMPDEST POP POP DUP2 SHL ADD PUSH1 0x9 SSTORE PUSH2 0x2B3 JUMP JUMPDEST DUP5 ADD MLOAD PUSH0 NOT PUSH1 0xF8 DUP5 PUSH1 0x3 SHL AND SHR NOT AND SWAP1 SSTORE DUP6 DUP1 PUSH2 0xB6D JUMP JUMPDEST SWAP2 SWAP3 PUSH1 0x20 PUSH1 0x1 DUP2 SWAP3 DUP7 DUP10 ADD MLOAD DUP2 SSTORE ADD SWAP5 ADD SWAP3 ADD PUSH2 0xB33 JUMP JUMPDEST PUSH1 0x9 PUSH0 MSTORE PUSH1 0x1F DUP3 ADD PUSH1 0x5 SHR PUSH0 MLOAD PUSH1 0x20 PUSH2 0x2149 PUSH0 CODECOPY PUSH0 MLOAD SWAP1 PUSH0 MSTORE ADD SWAP1 PUSH1 0x20 DUP4 LT PUSH2 0xBFD JUMPI JUMPDEST PUSH1 0x1F ADD PUSH1 0x5 SHR PUSH0 MLOAD PUSH1 0x20 PUSH2 0x2149 PUSH0 CODECOPY PUSH0 MLOAD SWAP1 PUSH0 MSTORE ADD SWAP1 JUMPDEST DUP2 DUP2 LT PUSH2 0xBF2 JUMPI POP PUSH2 0xAA4 JUMP JUMPDEST PUSH0 DUP2 SSTORE PUSH1 0x1 ADD PUSH2 0xBE5 JUMP JUMPDEST PUSH0 MLOAD PUSH1 0x20 PUSH2 0x2149 PUSH0 CODECOPY PUSH0 MLOAD SWAP1 PUSH0 MSTORE SWAP2 POP PUSH2 0xBCE JUMP JUMPDEST PUSH4 0xE2517D3F PUSH1 0xE0 SHL PUSH0 MSTORE CALLER PUSH1 0x4 MSTORE PUSH0 PUSH1 0x24 MSTORE PUSH1 0x44 PUSH0 REVERT JUMPDEST CALLVALUE PUSH2 0x1BA JUMPI PUSH1 0x40 CALLDATASIZE PUSH1 0x3 NOT ADD SLT PUSH2 0x1BA JUMPI PUSH2 0xC42 PUSH2 0x1363 JUMP JUMPDEST PUSH1 0x1 PUSH1 0x1 PUSH1 0xA0 SHL SUB AND PUSH0 SWAP1 DUP2 MSTORE PUSH1 0xB PUSH1 0x20 MSTORE PUSH1 0x40 SWAP1 KECCAK256 DUP1 SLOAD PUSH1 0x24 CALLDATALOAD SWAP2 SWAP1 DUP3 LT ISZERO PUSH2 0x1BA JUMPI PUSH1 0x20 SWAP2 PUSH2 0xC72 SWAP2 PUSH2 0x1477 JUMP JUMPDEST SWAP1 SLOAD SWAP1 PUSH1 0x3 SHL SHR PUSH1 0x40 MLOAD SWAP1 DUP2 MSTORE RETURN JUMPDEST CALLVALUE PUSH2 0x1BA JUMPI PUSH1 0x20 CALLDATASIZE PUSH1 0x3 NOT ADD SLT PUSH2 0x1BA JUMPI PUSH1 0x4 CALLDATALOAD PUSH2 0xC9D PUSH2 0x18C9 JUMP JUMPDEST PUSH0 DUP2 DUP2 MSTORE PUSH1 0x2 PUSH1 0x20 MSTORE PUSH1 0x40 SWAP1 KECCAK256 SLOAD PUSH1 0x1 PUSH1 0x1 PUSH1 0xA0 SHL SUB AND ISZERO PUSH2 0xCF6 JUMPI DUP1 PUSH0 MSTORE PUSH1 0xA PUSH1 0x20 MSTORE PUSH1 0x3 PUSH1 0x40 PUSH0 KECCAK256 ADD PUSH1 0xFF NOT DUP2 SLOAD AND SWAP1 SSTORE PUSH32 0x626E480980B0A9ED440B6D5CB0632BA9DB896768F3BF78FC167DE63B7658CF76 PUSH0 DUP1 LOG2 STOP JUMPDEST PUSH1 0x40 MLOAD PUSH3 0x461BCD PUSH1 0xE5 SHL DUP2 MSTORE PUSH1 0x20 PUSH1 0x4 DUP3 ADD MSTORE PUSH1 0x14 PUSH1 0x24 DUP3 ADD MSTORE PUSH20 0x151BDAD95B88191BD95CC81B9BDD08195E1A5CDD PUSH1 0x62 SHL PUSH1 0x44 DUP3 ADD MSTORE PUSH1 0x64 SWAP1 REVERT JUMPDEST CALLVALUE PUSH2 0x1BA JUMPI PUSH2 0x258 PUSH2 0xD43 CALLDATASIZE PUSH2 0x138F JUMP JUMPDEST SWAP1 PUSH1 0x40 MLOAD SWAP3 PUSH2 0xD53 PUSH1 0x20 DUP6 PUSH2 0x13E5 JUMP JUMPDEST PUSH0 DUP5 MSTORE PUSH2 0x3E5 DUP4 DUP4 DUP4 PUSH2 0x161A JUMP JUMPDEST CALLVALUE PUSH2 0x1BA JUMPI PUSH1 0x40 CALLDATASIZE PUSH1 0x3 NOT ADD SLT PUSH2 0x1BA JUMPI PUSH2 0xD7A PUSH2 0x1379 JUMP JUMPDEST CALLER PUSH1 0x1 PUSH1 0x1 PUSH1 0xA0 SHL SUB DUP3 AND SUB PUSH2 0xD96 JUMPI PUSH2 0x258 SWAP1 PUSH1 0x4 CALLDATALOAD PUSH2 0x1D72 JUMP JUMPDEST PUSH4 0x334BD919 PUSH1 0xE1 SHL PUSH0 MSTORE PUSH1 0x4 PUSH0 REVERT JUMPDEST CALLVALUE PUSH2 0x1BA JUMPI PUSH1 0x40 CALLDATASIZE PUSH1 0x3 NOT ADD SLT PUSH2 0x1BA JUMPI PUSH2 0x258 PUSH1 0x4 CALLDATALOAD PUSH2 0xDC4 PUSH2 0x1379 JUMP JUMPDEST SWAP1 PUSH2 0xDDE PUSH2 0x24E DUP3 PUSH0 MSTORE PUSH1 0x7 PUSH1 0x20 MSTORE PUSH1 0x1 PUSH1 0x40 PUSH0 KECCAK256 ADD SLOAD SWAP1 JUMP JUMPDEST PUSH2 0x1CE6 JUMP JUMPDEST CALLVALUE PUSH2 0x1BA JUMPI PUSH1 0x60 CALLDATASIZE PUSH1 0x3 NOT ADD SLT PUSH2 0x1BA JUMPI PUSH2 0xDFC PUSH2 0x1363 JUMP JUMPDEST PUSH1 0x24 CALLDATALOAD SWAP1 PUSH1 0x44 CALLDATALOAD PUSH8 0xFFFFFFFFFFFFFFFF DUP2 GT PUSH2 0x1BA JUMPI PUSH2 0xE20 SWAP1 CALLDATASIZE SWAP1 PUSH1 0x4 ADD PUSH2 0x1459 JUMP JUMPDEST SWAP1 PUSH2 0xE29 PUSH2 0x18C9 JUMP JUMPDEST PUSH1 0x1 PUSH1 0x1 PUSH1 0xA0 SHL SUB DUP2 AND PUSH2 0xE3E DUP2 ISZERO ISZERO PUSH2 0x17BA JUMP JUMPDEST PUSH2 0xE49 DUP5 ISZERO ISZERO PUSH2 0x17FA JUMP JUMPDEST PUSH2 0xE62 PUSH2 0xE57 PUSH1 0x8 SLOAD PUSH2 0x183A JUMP JUMPDEST DUP1 SWAP4 DUP2 PUSH1 0x8 SSTORE PUSH2 0x1972 JUMP JUMPDEST PUSH2 0xE6C DUP4 DUP4 PUSH2 0x1B7F JUMP JUMPDEST PUSH1 0x40 MLOAD PUSH2 0xE78 DUP2 PUSH2 0x13C9 JUMP JUMPDEST DUP5 DUP2 MSTORE PUSH1 0x20 SWAP4 PUSH1 0x40 MLOAD SWAP6 PUSH2 0xE8C DUP7 DUP9 PUSH2 0x13E5 JUMP JUMPDEST PUSH0 DUP8 MSTORE DUP6 DUP4 ADD SWAP7 DUP8 MSTORE PUSH1 0x40 DUP4 ADD SWAP3 TIMESTAMP DUP5 MSTORE PUSH1 0x60 DUP2 ADD SWAP4 PUSH1 0x1 DUP6 MSTORE DUP7 PUSH0 MSTORE PUSH1 0xA DUP9 MSTORE PUSH1 0x40 PUSH0 KECCAK256 SWAP2 MLOAD DUP3 SSTORE PUSH1 0x1 DUP3 ADD SWAP9 MLOAD SWAP9 DUP10 MLOAD PUSH8 0xFFFFFFFFFFFFFFFF DUP2 GT PUSH2 0x94A JUMPI PUSH2 0xED7 DUP3 SLOAD PUSH2 0x14A0 JUMP JUMPDEST SWAP11 PUSH1 0x1F DUP13 GT PUSH2 0x102E JUMPI JUMPDEST DUP10 SWAP11 SWAP12 POP PUSH0 SWAP10 SWAP8 SWAP9 SWAP10 POP DUP12 SWAP1 PUSH1 0x1F DUP4 GT PUSH1 0x1 EQ PUSH2 0xFAE JUMPI SWAP3 DUP3 PUSH0 MLOAD PUSH1 0x20 PUSH2 0x2169 PUSH0 CODECOPY PUSH0 MLOAD SWAP1 PUSH0 MSTORE SWAP10 SWAP11 SWAP4 PUSH2 0xF48 SWAP8 SWAP7 SWAP4 PUSH1 0x3 SWAP7 PUSH0 SWAP3 PUSH2 0xFA3 JUMPI POP POP DUP2 PUSH1 0x1 SHL SWAP2 PUSH0 NOT SWAP1 DUP8 SHL SHR NOT AND OR SWAP1 SSTORE MLOAD PUSH1 0x2 DUP5 ADD SSTORE MLOAD ISZERO ISZERO SWAP2 ADD SWAP1 PUSH1 0xFF DUP1 NOT DUP4 SLOAD AND SWAP2 ISZERO ISZERO AND OR SWAP1 SSTORE JUMP JUMPDEST DUP5 PUSH0 MSTORE PUSH1 0xB DUP8 MSTORE PUSH2 0xF5C DUP5 PUSH1 0x40 PUSH0 KECCAK256 PUSH2 0x185C JUMP JUMPDEST DUP5 PUSH0 MSTORE PUSH1 0xC DUP8 MSTORE PUSH1 0x40 PUSH0 KECCAK256 DUP2 PUSH0 MSTORE DUP8 MSTORE PUSH1 0x40 PUSH0 KECCAK256 PUSH1 0x1 PUSH1 0xFF NOT DUP3 SLOAD AND OR SWAP1 SSTORE PUSH2 0x853 PUSH1 0x40 MLOAD SWAP3 DUP4 SWAP3 DUP4 MSTORE PUSH1 0x60 DUP10 DUP5 ADD MSTORE PUSH0 PUSH1 0x60 DUP5 ADD MSTORE PUSH1 0x80 PUSH1 0x40 DUP5 ADD MSTORE PUSH1 0x80 DUP4 ADD SWAP1 PUSH2 0x133F JUMP JUMPDEST ADD MLOAD SWAP1 POP DUP16 DUP1 PUSH2 0x7C8 JUMP JUMPDEST PUSH0 DUP5 DUP2 MSTORE DUP14 DUP2 KECCAK256 SWAP3 SWAP2 SWAP1 PUSH1 0x1F NOT DUP6 AND SWAP1 DUP16 JUMPDEST DUP3 DUP3 LT PUSH2 0x1012 JUMPI POP POP SWAP4 PUSH2 0xF48 SWAP8 SWAP7 SWAP4 PUSH1 0x3 SWAP7 SWAP4 PUSH1 0x1 SWAP4 DUP4 PUSH0 MLOAD PUSH1 0x20 PUSH2 0x2169 PUSH0 CODECOPY PUSH0 MLOAD SWAP1 PUSH0 MSTORE SWAP15 SWAP16 SWAP9 LT PUSH2 0xFFB JUMPI POP POP POP DUP2 SHL ADD SWAP1 SSTORE PUSH2 0x7DB JUMP JUMPDEST ADD MLOAD PUSH0 NOT DUP4 DUP10 SHL PUSH1 0xF8 AND SHR NOT AND SWAP1 SSTORE DUP16 DUP1 DUP1 PUSH2 0x8B0 JUMP JUMPDEST DUP5 DUP5 ADD MLOAD DUP7 SSTORE DUP16 SWAP13 POP PUSH1 0x1 SWAP1 SWAP6 ADD SWAP5 SWAP4 DUP5 ADD SWAP4 SWAP1 DUP2 ADD SWAP1 PUSH2 0xFC0 JUMP JUMPDEST DUP3 PUSH0 MSTORE DUP11 PUSH0 KECCAK256 PUSH1 0x1F DUP4 ADD PUSH1 0x5 SHR DUP2 ADD SWAP13 DUP13 DUP5 LT PUSH2 0x1067 JUMPI JUMPDEST PUSH1 0x1F ADD PUSH1 0x5 SHR ADD SWAP12 JUMPDEST DUP13 DUP2 LT PUSH2 0x105C JUMPI POP PUSH2 0xEE1 JUMP JUMPDEST PUSH0 DUP2 SSTORE PUSH1 0x1 ADD PUSH2 0x104F JUMP JUMPDEST SWAP1 SWAP13 POP DUP13 SWAP1 PUSH2 0x1046 JUMP JUMPDEST CALLVALUE PUSH2 0x1BA JUMPI PUSH1 0x20 CALLDATASIZE PUSH1 0x3 NOT ADD SLT PUSH2 0x1BA JUMPI PUSH1 0x20 PUSH2 0x109C PUSH1 0x4 CALLDATALOAD PUSH0 MSTORE PUSH1 0x7 PUSH1 0x20 MSTORE PUSH1 0x1 PUSH1 0x40 PUSH0 KECCAK256 ADD SLOAD SWAP1 JUMP JUMPDEST PUSH1 0x40 MLOAD SWAP1 DUP2 MSTORE RETURN JUMPDEST CALLVALUE PUSH2 0x1BA JUMPI PUSH2 0x258 PUSH2 0x10B5 CALLDATASIZE PUSH2 0x138F JUMP JUMPDEST SWAP2 PUSH2 0x161A JUMP JUMPDEST CALLVALUE PUSH2 0x1BA JUMPI PUSH0 CALLDATASIZE PUSH1 0x3 NOT ADD SLT PUSH2 0x1BA JUMPI PUSH1 0x20 PUSH1 0x8 SLOAD PUSH1 0x40 MLOAD SWAP1 DUP2 MSTORE RETURN JUMPDEST CALLVALUE PUSH2 0x1BA JUMPI PUSH1 0x40 CALLDATASIZE PUSH1 0x3 NOT ADD SLT PUSH2 0x1BA JUMPI PUSH2 0x10F1 PUSH2 0x1363 JUMP JUMPDEST PUSH1 0x24 CALLDATALOAD PUSH2 0x10FD DUP2 PUSH2 0x1895 JUMP JUMPDEST CALLER ISZERO ISZERO DUP1 PUSH2 0x11AF JUMPI JUMPDEST DUP1 PUSH2 0x1182 JUMPI JUMPDEST PUSH2 0x116F JUMPI DUP2 SWAP1 PUSH1 0x1 PUSH1 0x1 PUSH1 0xA0 SHL SUB DUP5 DUP2 AND SWAP2 AND PUSH32 0x8C5BE1E5EBEC7D5BD14F71427D1E84F3DD0314C0F7B2291E5B200AC8C7C3B925 PUSH0 DUP1 LOG4 PUSH0 SWAP1 DUP2 MSTORE PUSH1 0x4 PUSH1 0x20 MSTORE PUSH1 0x40 SWAP1 KECCAK256 DUP1 SLOAD PUSH1 0x1 PUSH1 0x1 PUSH1 0xA0 SHL SUB NOT AND PUSH1 0x1 PUSH1 0x1 PUSH1 0xA0 SHL SUB SWAP1 SWAP3 AND SWAP2 SWAP1 SWAP2 OR SWAP1 SSTORE STOP JUMPDEST PUSH4 0xA9FBF51F PUSH1 0xE0 SHL PUSH0 MSTORE CALLER PUSH1 0x4 MSTORE PUSH1 0x24 PUSH0 REVERT JUMPDEST POP PUSH1 0x1 PUSH1 0x1 PUSH1 0xA0 SHL SUB DUP2 AND PUSH0 SWAP1 DUP2 MSTORE PUSH1 0x5 PUSH1 0x20 SWAP1 DUP2 MSTORE PUSH1 0x40 DUP1 DUP4 KECCAK256 CALLER DUP5 MSTORE SWAP1 SWAP2 MSTORE SWAP1 KECCAK256 SLOAD PUSH1 0xFF AND ISZERO PUSH2 0x110C JUMP JUMPDEST POP PUSH1 0x1 PUSH1 0x1 PUSH1 0xA0 SHL SUB DUP2 AND CALLER EQ ISZERO PUSH2 0x1106 JUMP JUMPDEST CALLVALUE PUSH2 0x1BA JUMPI PUSH1 0x20 CALLDATASIZE PUSH1 0x3 NOT ADD SLT PUSH2 0x1BA JUMPI PUSH1 0x4 CALLDATALOAD PUSH2 0x11DF DUP2 PUSH2 0x1895 JUMP JUMPDEST POP PUSH0 MSTORE PUSH1 0x4 PUSH1 0x20 MSTORE PUSH1 0x20 PUSH1 0x1 DUP1 PUSH1 0xA0 SHL SUB PUSH1 0x40 PUSH0 KECCAK256 SLOAD AND PUSH1 0x40 MLOAD SWAP1 DUP2 MSTORE RETURN JUMPDEST CALLVALUE PUSH2 0x1BA JUMPI PUSH0 CALLDATASIZE PUSH1 0x3 NOT ADD SLT PUSH2 0x1BA JUMPI PUSH1 0x40 MLOAD PUSH0 PUSH0 SLOAD PUSH2 0x121D DUP2 PUSH2 0x14A0 JUMP JUMPDEST DUP1 DUP5 MSTORE SWAP1 PUSH1 0x1 DUP2 AND SWAP1 DUP2 ISZERO PUSH2 0x5D0 JUMPI POP PUSH1 0x1 EQ PUSH2 0x1244 JUMPI PUSH2 0x2C7 DUP4 PUSH2 0x2B3 DUP2 DUP6 SUB DUP3 PUSH2 0x13E5 JUMP JUMPDEST PUSH0 DUP1 DUP1 MSTORE PUSH32 0x290DECD9548B62A8D60345A988386FC84BA6BC95484008F6362F93160EF3E563 SWAP4 SWAP3 POP SWAP1 JUMPDEST DUP1 DUP3 LT PUSH2 0x1286 JUMPI POP SWAP1 SWAP2 POP DUP2 ADD PUSH1 0x20 ADD PUSH2 0x2B3 PUSH2 0x562 JUMP JUMPDEST SWAP2 SWAP3 PUSH1 0x1 DUP2 PUSH1 0x20 SWAP3 SLOAD DUP4 DUP6 DUP9 ADD ADD MSTORE ADD SWAP2 ADD SWAP1 SWAP3 SWAP2 PUSH2 0x126E JUMP JUMPDEST CALLVALUE PUSH2 0x1BA JUMPI PUSH1 0x20 CALLDATASIZE PUSH1 0x3 NOT ADD SLT PUSH2 0x1BA JUMPI PUSH1 0x4 CALLDATALOAD SWAP1 PUSH4 0xFFFFFFFF PUSH1 0xE0 SHL DUP3 AND DUP1 SWAP3 SUB PUSH2 0x1BA JUMPI PUSH1 0x20 SWAP2 PUSH4 0x7965DB0B PUSH1 0xE0 SHL DUP2 EQ SWAP1 DUP2 ISZERO PUSH2 0x12E2 JUMPI JUMPDEST POP ISZERO ISZERO DUP2 MSTORE RETURN JUMPDEST PUSH4 0x24832483 PUSH1 0xE1 SHL DUP2 EQ SWAP2 POP DUP2 ISZERO PUSH2 0x12FC JUMPI JUMPDEST POP DUP4 PUSH2 0x12DB JUMP JUMPDEST PUSH4 0x80AC58CD PUSH1 0xE0 SHL DUP2 EQ SWAP2 POP DUP2 ISZERO PUSH2 0x132E JUMPI JUMPDEST DUP2 ISZERO PUSH2 0x131D JUMPI JUMPDEST POP DUP4 PUSH2 0x12F5 JUMP JUMPDEST PUSH4 0x1FFC9A7 PUSH1 0xE0 SHL EQ SWAP1 POP DUP4 PUSH2 0x1316 JUMP JUMPDEST PUSH4 0x5B5E139F PUSH1 0xE0 SHL DUP2 EQ SWAP2 POP PUSH2 0x130F JUMP JUMPDEST DUP1 MLOAD DUP1 DUP4 MSTORE PUSH1 0x20 SWAP3 SWAP2 DUP2 SWAP1 DUP5 ADD DUP5 DUP5 ADD MCOPY PUSH0 DUP3 DUP3 ADD DUP5 ADD MSTORE PUSH1 0x1F ADD PUSH1 0x1F NOT AND ADD ADD SWAP1 JUMP JUMPDEST PUSH1 0x4 CALLDATALOAD SWAP1 PUSH1 0x1 PUSH1 0x1 PUSH1 0xA0 SHL SUB DUP3 AND DUP3 SUB PUSH2 0x1BA JUMPI JUMP JUMPDEST PUSH1 0x24 CALLDATALOAD SWAP1 PUSH1 0x1 PUSH1 0x1 PUSH1 0xA0 SHL SUB DUP3 AND DUP3 SUB PUSH2 0x1BA JUMPI JUMP JUMPDEST PUSH1 0x60 SWAP1 PUSH1 0x3 NOT ADD SLT PUSH2 0x1BA JUMPI PUSH1 0x4 CALLDATALOAD PUSH1 0x1 PUSH1 0x1 PUSH1 0xA0 SHL SUB DUP2 AND DUP2 SUB PUSH2 0x1BA JUMPI SWAP1 PUSH1 0x24 CALLDATALOAD PUSH1 0x1 PUSH1 0x1 PUSH1 0xA0 SHL SUB DUP2 AND DUP2 SUB PUSH2 0x1BA JUMPI SWAP1 PUSH1 0x44 CALLDATALOAD SWAP1 JUMP JUMPDEST PUSH1 0x80 DUP2 ADD SWAP1 DUP2 LT PUSH8 0xFFFFFFFFFFFFFFFF DUP3 GT OR PUSH2 0x94A JUMPI PUSH1 0x40 MSTORE JUMP JUMPDEST SWAP1 PUSH1 0x1F DUP1 NOT SWAP2 ADD AND DUP2 ADD SWAP1 DUP2 LT PUSH8 0xFFFFFFFFFFFFFFFF DUP3 GT OR PUSH2 0x94A JUMPI PUSH1 0x40 MSTORE JUMP JUMPDEST PUSH8 0xFFFFFFFFFFFFFFFF DUP2 GT PUSH2 0x94A JUMPI PUSH1 0x1F ADD PUSH1 0x1F NOT AND PUSH1 0x20 ADD SWAP1 JUMP JUMPDEST SWAP3 SWAP2 SWAP3 PUSH2 0x142F DUP3 PUSH2 0x1407 JUMP JUMPDEST SWAP2 PUSH2 0x143D PUSH1 0x40 MLOAD SWAP4 DUP5 PUSH2 0x13E5 JUMP JUMPDEST DUP3 SWAP5 DUP2 DUP5 MSTORE DUP2 DUP4 ADD GT PUSH2 0x1BA JUMPI DUP3 DUP2 PUSH1 0x20 SWAP4 DUP5 PUSH0 SWAP7 ADD CALLDATACOPY ADD ADD MSTORE JUMP JUMPDEST SWAP1 DUP1 PUSH1 0x1F DUP4 ADD SLT ISZERO PUSH2 0x1BA JUMPI DUP2 PUSH1 0x20 PUSH2 0x1474 SWAP4 CALLDATALOAD SWAP2 ADD PUSH2 0x1423 JUMP JUMPDEST SWAP1 JUMP JUMPDEST DUP1 SLOAD DUP3 LT ISZERO PUSH2 0x148C JUMPI PUSH0 MSTORE PUSH1 0x20 PUSH0 KECCAK256 ADD SWAP1 PUSH0 SWAP1 JUMP JUMPDEST PUSH4 0x4E487B71 PUSH1 0xE0 SHL PUSH0 MSTORE PUSH1 0x32 PUSH1 0x4 MSTORE PUSH1 0x24 PUSH0 REVERT JUMPDEST SWAP1 PUSH1 0x1 DUP3 DUP2 SHR SWAP3 AND DUP1 ISZERO PUSH2 0x14CE JUMPI JUMPDEST PUSH1 0x20 DUP4 LT EQ PUSH2 0x14BA JUMPI JUMP JUMPDEST PUSH4 0x4E487B71 PUSH1 0xE0 SHL PUSH0 MSTORE PUSH1 0x22 PUSH1 0x4 MSTORE PUSH1 0x24 PUSH0 REVERT JUMPDEST SWAP2 PUSH1 0x7F AND SWAP2 PUSH2 0x14AF JUMP JUMPDEST PUSH1 0x40 MLOAD SWAP1 PUSH0 DUP3 PUSH1 0x9 SLOAD SWAP2 PUSH2 0x14EB DUP4 PUSH2 0x14A0 JUMP JUMPDEST DUP1 DUP4 MSTORE SWAP3 PUSH1 0x1 DUP2 AND SWAP1 DUP2 ISZERO PUSH2 0x155D JUMPI POP PUSH1 0x1 EQ PUSH2 0x1511 JUMPI JUMPDEST PUSH2 0x150F SWAP3 POP SUB DUP4 PUSH2 0x13E5 JUMP JUMPDEST JUMP JUMPDEST POP PUSH1 0x9 PUSH0 SWAP1 DUP2 MSTORE SWAP1 SWAP2 PUSH0 MLOAD PUSH1 0x20 PUSH2 0x2149 PUSH0 CODECOPY PUSH0 MLOAD SWAP1 PUSH0 MSTORE JUMPDEST DUP2 DUP4 LT PUSH2 0x1541 JUMPI POP POP SWAP1 PUSH1 0x20 PUSH2 0x150F SWAP3 DUP3 ADD ADD PUSH2 0x1503 JUMP JUMPDEST PUSH1 0x20 SWAP2 SWAP4 POP DUP1 PUSH1 0x1 SWAP2 SLOAD DUP4 DUP6 DUP10 ADD ADD MSTORE ADD SWAP2 ADD SWAP1 SWAP2 DUP5 SWAP3 PUSH2 0x1529 JUMP JUMPDEST PUSH1 0x20 SWAP3 POP PUSH2 0x150F SWAP5 SWAP2 POP PUSH1 0xFF NOT AND DUP3 DUP5 ADD MSTORE ISZERO ISZERO PUSH1 0x5 SHL DUP3 ADD ADD PUSH2 0x1503 JUMP JUMPDEST SWAP1 PUSH1 0x40 MLOAD SWAP2 DUP3 PUSH0 DUP3 SLOAD SWAP3 PUSH2 0x158F DUP5 PUSH2 0x14A0 JUMP JUMPDEST DUP1 DUP5 MSTORE SWAP4 PUSH1 0x1 DUP2 AND SWAP1 DUP2 ISZERO PUSH2 0x15F8 JUMPI POP PUSH1 0x1 EQ PUSH2 0x15B4 JUMPI JUMPDEST POP PUSH2 0x150F SWAP3 POP SUB DUP4 PUSH2 0x13E5 JUMP JUMPDEST SWAP1 POP PUSH0 SWAP3 SWAP2 SWAP3 MSTORE PUSH1 0x20 PUSH0 KECCAK256 SWAP1 PUSH0 SWAP2 JUMPDEST DUP2 DUP4 LT PUSH2 0x15DC JUMPI POP POP SWAP1 PUSH1 0x20 PUSH2 0x150F SWAP3 DUP3 ADD ADD PUSH0 PUSH2 0x15A7 JUMP JUMPDEST PUSH1 0x20 SWAP2 SWAP4 POP DUP1 PUSH1 0x1 SWAP2 SLOAD DUP4 DUP6 DUP10 ADD ADD MSTORE ADD SWAP2 ADD SWAP1 SWAP2 DUP5 SWAP3 PUSH2 0x15C3 JUMP JUMPDEST SWAP1 POP PUSH1 0x20 SWAP3 POP PUSH2 0x150F SWAP5 SWAP2 POP PUSH1 0xFF NOT AND DUP3 DUP5 ADD MSTORE ISZERO ISZERO PUSH1 0x5 SHL DUP3 ADD ADD PUSH0 PUSH2 0x15A7 JUMP JUMPDEST PUSH1 0x1 PUSH1 0x1 PUSH1 0xA0 SHL SUB SWAP1 SWAP2 AND SWAP2 SWAP1 DUP3 ISZERO PUSH2 0x17A7 JUMPI PUSH0 DUP3 DUP2 MSTORE PUSH1 0x2 PUSH1 0x20 MSTORE PUSH1 0x40 SWAP1 KECCAK256 SLOAD PUSH1 0x1 PUSH1 0x1 PUSH1 0xA0 SHL SUB AND SWAP3 DUP3 SWAP1 CALLER ISZERO ISZERO DUP1 PUSH2 0x1712 JUMPI JUMPDEST POP DUP5 PUSH2 0x16DF JUMPI JUMPDEST DUP1 PUSH0 MSTORE PUSH1 0x3 PUSH1 0x20 MSTORE PUSH1 0x40 PUSH0 KECCAK256 PUSH1 0x1 DUP2 SLOAD ADD SWAP1 SSTORE DUP2 PUSH0 MSTORE PUSH1 0x2 PUSH1 0x20 MSTORE PUSH1 0x40 PUSH0 KECCAK256 DUP2 PUSH12 0xFFFFFFFFFFFFFFFFFFFFFFFF PUSH1 0xA0 SHL DUP3 SLOAD AND OR SWAP1 SSTORE DUP5 PUSH32 0xDDF252AD1BE2C89B69C2B068FC378DAA952BA7F163C4A11628F55A4DF523B3EF PUSH0 DUP1 LOG4 PUSH1 0x1 PUSH1 0x1 PUSH1 0xA0 SHL SUB AND DUP1 DUP4 SUB PUSH2 0x16C7 JUMPI POP POP POP JUMP JUMPDEST PUSH4 0x64283D7B PUSH1 0xE0 SHL PUSH0 MSTORE PUSH1 0x4 MSTORE PUSH1 0x24 MSTORE PUSH1 0x44 MSTORE PUSH1 0x64 PUSH0 REVERT JUMPDEST PUSH0 DUP3 DUP2 MSTORE PUSH1 0x4 PUSH1 0x20 MSTORE PUSH1 0x40 SWAP1 KECCAK256 DUP1 SLOAD PUSH1 0x1 PUSH1 0x1 PUSH1 0xA0 SHL SUB NOT AND SWAP1 SSTORE DUP5 PUSH0 MSTORE PUSH1 0x3 PUSH1 0x20 MSTORE PUSH1 0x40 PUSH0 KECCAK256 PUSH0 NOT DUP2 SLOAD ADD SWAP1 SSTORE PUSH2 0x1657 JUMP JUMPDEST SWAP1 SWAP2 POP DUP1 PUSH2 0x1756 JUMPI JUMPDEST ISZERO PUSH2 0x1728 JUMPI DUP3 SWAP1 PUSH0 PUSH2 0x1650 JUMP JUMPDEST DUP3 DUP5 PUSH2 0x1740 JUMPI PUSH4 0x7E273289 PUSH1 0xE0 SHL PUSH0 MSTORE PUSH1 0x4 MSTORE PUSH1 0x24 PUSH0 REVERT JUMPDEST PUSH4 0x177E802F PUSH1 0xE0 SHL PUSH0 MSTORE CALLER PUSH1 0x4 MSTORE PUSH1 0x24 MSTORE PUSH1 0x44 PUSH0 REVERT JUMPDEST POP CALLER DUP5 EQ DUP1 ISZERO PUSH2 0x1785 JUMPI JUMPDEST DUP1 PUSH2 0x171B JUMPI POP PUSH0 DUP4 DUP2 MSTORE PUSH1 0x4 PUSH1 0x20 MSTORE PUSH1 0x40 SWAP1 KECCAK256 SLOAD PUSH1 0x1 PUSH1 0x1 PUSH1 0xA0 SHL SUB AND CALLER EQ PUSH2 0x171B JUMP JUMPDEST POP PUSH0 DUP5 DUP2 MSTORE PUSH1 0x5 PUSH1 0x20 SWAP1 DUP2 MSTORE PUSH1 0x40 DUP1 DUP4 KECCAK256 CALLER DUP5 MSTORE SWAP1 SWAP2 MSTORE SWAP1 KECCAK256 SLOAD PUSH1 0xFF AND PUSH2 0x1761 JUMP JUMPDEST PUSH4 0x32505749 PUSH1 0xE1 SHL PUSH0 MSTORE PUSH0 PUSH1 0x4 MSTORE PUSH1 0x24 PUSH0 REVERT JUMPDEST ISZERO PUSH2 0x17C1 JUMPI JUMP JUMPDEST PUSH1 0x40 MLOAD PUSH3 0x461BCD PUSH1 0xE5 SHL DUP2 MSTORE PUSH1 0x20 PUSH1 0x4 DUP3 ADD MSTORE PUSH1 0x11 PUSH1 0x24 DUP3 ADD MSTORE PUSH17 0x125B9D985B1A59081C9958DA5C1A595B9D PUSH1 0x7A SHL PUSH1 0x44 DUP3 ADD MSTORE PUSH1 0x64 SWAP1 REVERT JUMPDEST ISZERO PUSH2 0x1801 JUMPI JUMP JUMPDEST PUSH1 0x40 MLOAD PUSH3 0x461BCD PUSH1 0xE5 SHL DUP2 MSTORE PUSH1 0x20 PUSH1 0x4 DUP3 ADD MSTORE PUSH1 0x11 PUSH1 0x24 DUP3 ADD MSTORE PUSH17 0x496E76616C696420706173732074797065 PUSH1 0x78 SHL PUSH1 0x44 DUP3 ADD MSTORE PUSH1 0x64 SWAP1 REVERT JUMPDEST PUSH0 NOT DUP2 EQ PUSH2 0x1848 JUMPI PUSH1 0x1 ADD SWAP1 JUMP JUMPDEST PUSH4 0x4E487B71 PUSH1 0xE0 SHL PUSH0 MSTORE PUSH1 0x11 PUSH1 0x4 MSTORE PUSH1 0x24 PUSH0 REVERT JUMPDEST DUP1 SLOAD PUSH9 0x10000000000000000 DUP2 LT ISZERO PUSH2 0x94A JUMPI PUSH2 0x187E SWAP2 PUSH1 0x1 DUP3 ADD DUP2 SSTORE PUSH2 0x1477 JUMP JUMPDEST DUP2 SWAP3 SWAP2 SLOAD SWAP1 PUSH1 0x3 SHL SWAP2 DUP3 SHL SWAP2 PUSH0 NOT SWAP1 SHL NOT AND OR SWAP1 SSTORE JUMP JUMPDEST PUSH0 DUP2 DUP2 MSTORE PUSH1 0x2 PUSH1 0x20 MSTORE PUSH1 0x40 SWAP1 KECCAK256 SLOAD PUSH1 0x1 PUSH1 0x1 PUSH1 0xA0 SHL SUB AND SWAP1 DUP2 ISZERO PUSH2 0x18B7 JUMPI POP SWAP1 JUMP JUMPDEST PUSH4 0x7E273289 PUSH1 0xE0 SHL PUSH0 MSTORE PUSH1 0x4 MSTORE PUSH1 0x24 PUSH0 REVERT JUMPDEST CALLER PUSH0 SWAP1 DUP2 MSTORE PUSH32 0xA4BFD7AFE708E2E87E7F0E2AD9B4D545417E0F795F57B5C5AB5D799C565A04F4 PUSH1 0x20 MSTORE PUSH1 0x40 SWAP1 KECCAK256 SLOAD PUSH1 0xFF AND ISZERO PUSH2 0x1901 JUMPI JUMP JUMPDEST PUSH4 0xE2517D3F PUSH1 0xE0 SHL PUSH0 MSTORE CALLER PUSH1 0x4 MSTORE PUSH32 0x9F2DF0FED2C77648DE5860A4CC508CD0818C85B8B8A1AB4CEEEF8D981C8956A6 PUSH1 0x24 MSTORE PUSH1 0x44 PUSH0 REVERT JUMPDEST PUSH0 DUP2 DUP2 MSTORE PUSH1 0x7 PUSH1 0x20 SWAP1 DUP2 MSTORE PUSH1 0x40 DUP1 DUP4 KECCAK256 CALLER DUP5 MSTORE SWAP1 SWAP2 MSTORE SWAP1 KECCAK256 SLOAD PUSH1 0xFF AND ISZERO PUSH2 0x195C JUMPI POP JUMP JUMPDEST PUSH4 0xE2517D3F PUSH1 0xE0 SHL PUSH0 MSTORE CALLER PUSH1 0x4 MSTORE PUSH1 0x24 MSTORE PUSH1 0x44 PUSH0 REVERT JUMPDEST SWAP1 PUSH1 0x20 SWAP1 PUSH1 0x40 MLOAD SWAP1 PUSH2 0x1984 DUP4 DUP4 PUSH2 0x13E5 JUMP JUMPDEST PUSH0 DUP3 MSTORE PUSH1 0x1 PUSH1 0x1 PUSH1 0xA0 SHL SUB DUP5 AND SWAP4 DUP5 ISZERO PUSH2 0x17A7 JUMPI PUSH0 DUP3 DUP2 MSTORE PUSH1 0x2 DUP6 MSTORE PUSH1 0x40 SWAP1 KECCAK256 SLOAD PUSH1 0x1 PUSH1 0x1 PUSH1 0xA0 SHL SUB AND DUP1 ISZERO ISZERO SWAP1 DUP2 PUSH2 0x1B4E JUMPI JUMPDEST DUP7 PUSH0 MSTORE PUSH1 0x3 DUP7 MSTORE PUSH1 0x40 PUSH0 KECCAK256 PUSH1 0x1 DUP2 SLOAD ADD SWAP1 SSTORE DUP4 PUSH0 MSTORE PUSH1 0x2 DUP7 MSTORE PUSH1 0x40 PUSH0 KECCAK256 DUP8 PUSH12 0xFFFFFFFFFFFFFFFFFFFFFFFF PUSH1 0xA0 SHL DUP3 SLOAD AND OR SWAP1 SSTORE DUP4 DUP8 DUP3 PUSH32 0xDDF252AD1BE2C89B69C2B068FC378DAA952BA7F163C4A11628F55A4DF523B3EF PUSH0 DUP1 LOG4 POP PUSH2 0x1B3B JUMPI EXTCODESIZE PUSH2 0x1A24 JUMPI JUMPDEST POP POP POP POP JUMP JUMPDEST SWAP2 PUSH2 0x1A61 SWAP2 DUP2 SWAP5 SWAP6 SWAP4 PUSH1 0x40 MLOAD SWAP4 DUP5 SWAP3 DUP4 SWAP3 PUSH4 0xA85BD01 PUSH1 0xE1 SHL DUP5 MSTORE CALLER PUSH1 0x4 DUP6 ADD MSTORE PUSH0 PUSH1 0x24 DUP6 ADD MSTORE PUSH1 0x44 DUP5 ADD MSTORE PUSH1 0x80 PUSH1 0x64 DUP5 ADD MSTORE PUSH1 0x84 DUP4 ADD SWAP1 PUSH2 0x133F JUMP JUMPDEST SUB DUP2 PUSH0 DUP9 GAS CALL PUSH0 SWAP2 DUP2 PUSH2 0x1AFB JUMPI JUMPDEST POP PUSH2 0x1AC4 JUMPI POP POP RETURNDATASIZE ISZERO PUSH2 0x1ABC JUMPI RETURNDATASIZE SWAP1 PUSH2 0x1A87 DUP3 PUSH2 0x1407 JUMP JUMPDEST SWAP2 PUSH2 0x1A95 PUSH1 0x40 MLOAD SWAP4 DUP5 PUSH2 0x13E5 JUMP JUMPDEST DUP3 MSTORE RETURNDATASIZE PUSH0 DUP3 DUP5 ADD RETURNDATACOPY JUMPDEST DUP2 MLOAD SWAP2 DUP3 PUSH2 0x1AB9 JUMPI DUP4 PUSH4 0x32505749 PUSH1 0xE1 SHL PUSH0 MSTORE PUSH1 0x4 MSTORE PUSH1 0x24 PUSH0 REVERT JUMPDEST ADD REVERT JUMPDEST PUSH1 0x60 SWAP1 PUSH2 0x1A9E JUMP JUMPDEST SWAP1 SWAP3 SWAP2 POP PUSH1 0x1 PUSH1 0x1 PUSH1 0xE0 SHL SUB NOT AND PUSH4 0x757A42FF PUSH1 0xE1 SHL ADD PUSH2 0x1AE9 JUMPI POP PUSH0 DUP1 DUP1 DUP1 PUSH2 0x1A1E JUMP JUMPDEST PUSH4 0x32505749 PUSH1 0xE1 SHL PUSH0 MSTORE PUSH1 0x4 MSTORE PUSH1 0x24 PUSH0 REVERT JUMPDEST SWAP1 SWAP2 POP DUP4 DUP2 DUP2 RETURNDATASIZE DUP4 GT PUSH2 0x1B34 JUMPI JUMPDEST PUSH2 0x1B13 DUP2 DUP4 PUSH2 0x13E5 JUMP JUMPDEST DUP2 ADD SUB SLT PUSH2 0x1BA JUMPI MLOAD PUSH1 0x1 PUSH1 0x1 PUSH1 0xE0 SHL SUB NOT DUP2 AND DUP2 SUB PUSH2 0x1BA JUMPI SWAP1 PUSH0 PUSH2 0x1A6F JUMP JUMPDEST POP RETURNDATASIZE PUSH2 0x1B09 JUMP JUMPDEST PUSH4 0x39E35637 PUSH1 0xE1 SHL PUSH0 MSTORE PUSH0 PUSH1 0x4 MSTORE PUSH1 0x24 PUSH0 REVERT JUMPDEST PUSH0 DUP5 DUP2 MSTORE PUSH1 0x4 PUSH1 0x20 MSTORE PUSH1 0x40 DUP1 DUP3 KECCAK256 DUP1 SLOAD PUSH1 0x1 PUSH1 0x1 PUSH1 0xA0 SHL SUB NOT AND SWAP1 SSTORE DUP3 DUP3 MSTORE PUSH1 0x3 DUP9 MSTORE SWAP1 KECCAK256 DUP1 SLOAD PUSH0 NOT ADD SWAP1 SSTORE PUSH2 0x19B8 JUMP JUMPDEST SWAP2 SWAP1 SWAP2 DUP1 PUSH0 MSTORE PUSH1 0x6 PUSH1 0x20 MSTORE PUSH1 0x40 PUSH0 KECCAK256 DUP4 MLOAD PUSH8 0xFFFFFFFFFFFFFFFF DUP2 GT PUSH2 0x94A JUMPI PUSH2 0x1BA9 DUP3 SLOAD PUSH2 0x14A0 JUMP JUMPDEST PUSH1 0x1F DUP2 GT PUSH2 0x1CA1 JUMPI JUMPDEST POP PUSH1 0x20 PUSH1 0x1F DUP3 GT PUSH1 0x1 EQ PUSH2 0x1C19 JUMPI SWAP1 DUP1 PUSH1 0x20 SWAP5 SWAP4 SWAP3 PUSH32 0xF8E1A15ABA9398E019F0B49DF1A4FDE98EE17AE345CB5F6B5E2C27F5033E8CE7 SWAP7 SWAP8 PUSH0 SWAP3 PUSH2 0x1C0E JUMPI JUMPDEST POP POP DUP2 PUSH1 0x1 SHL SWAP2 PUSH0 NOT SWAP1 PUSH1 0x3 SHL SHR NOT AND OR SWAP1 SSTORE JUMPDEST PUSH1 0x40 MLOAD SWAP1 DUP2 MSTORE LOG1 JUMP JUMPDEST ADD MLOAD SWAP1 POP PUSH0 DUP1 PUSH2 0x1BF1 JUMP JUMPDEST PUSH1 0x1F NOT DUP3 AND SWAP6 DUP4 PUSH0 MSTORE DUP2 PUSH0 KECCAK256 SWAP7 PUSH0 JUMPDEST DUP2 DUP2 LT PUSH2 0x1C89 JUMPI POP SWAP7 PUSH1 0x1 SWAP3 DUP5 SWAP3 PUSH1 0x20 SWAP8 SWAP7 SWAP6 PUSH32 0xF8E1A15ABA9398E019F0B49DF1A4FDE98EE17AE345CB5F6B5E2C27F5033E8CE7 SWAP10 SWAP11 LT PUSH2 0x1C71 JUMPI JUMPDEST POP POP POP DUP2 SHL ADD SWAP1 SSTORE PUSH2 0x1C05 JUMP JUMPDEST ADD MLOAD PUSH0 NOT PUSH1 0xF8 DUP5 PUSH1 0x3 SHL AND SHR NOT AND SWAP1 SSTORE PUSH0 DUP1 DUP1 PUSH2 0x1C64 JUMP JUMPDEST DUP4 DUP4 ADD MLOAD DUP10 SSTORE PUSH1 0x1 SWAP1 SWAP9 ADD SWAP8 PUSH1 0x20 SWAP4 DUP5 ADD SWAP4 ADD PUSH2 0x1C28 JUMP JUMPDEST DUP3 PUSH0 MSTORE PUSH1 0x20 PUSH0 KECCAK256 PUSH1 0x1F DUP4 ADD PUSH1 0x5 SHR DUP2 ADD SWAP2 PUSH1 0x20 DUP5 LT PUSH2 0x1CDC JUMPI JUMPDEST PUSH1 0x1F ADD PUSH1 0x5 SHR ADD SWAP1 JUMPDEST DUP2 DUP2 LT PUSH2 0x1CD1 JUMPI POP PUSH2 0x1BB2 JUMP JUMPDEST PUSH0 DUP2 SSTORE PUSH1 0x1 ADD PUSH2 0x1CC4 JUMP JUMPDEST SWAP1 SWAP2 POP DUP2 SWAP1 PUSH2 0x1CBB JUMP JUMPDEST PUSH0 DUP2 DUP2 MSTORE PUSH1 0x7 PUSH1 0x20 SWAP1 DUP2 MSTORE PUSH1 0x40 DUP1 DUP4 KECCAK256 PUSH1 0x1 PUSH1 0x1 PUSH1 0xA0 SHL SUB DUP7 AND DUP5 MSTORE SWAP1 SWAP2 MSTORE SWAP1 KECCAK256 SLOAD PUSH1 0xFF AND PUSH2 0x1D6C JUMPI PUSH0 DUP2 DUP2 MSTORE PUSH1 0x7 PUSH1 0x20 SWAP1 DUP2 MSTORE PUSH1 0x40 DUP1 DUP4 KECCAK256 PUSH1 0x1 PUSH1 0x1 PUSH1 0xA0 SHL SUB SWAP6 SWAP1 SWAP6 AND DUP1 DUP5 MSTORE SWAP5 SWAP1 SWAP2 MSTORE DUP2 KECCAK256 DUP1 SLOAD PUSH1 0xFF NOT AND PUSH1 0x1 OR SWAP1 SSTORE CALLER SWAP3 SWAP2 SWAP1 PUSH32 0x2F8788117E7EFF1D82E926EC794901D17C78024A50270940304540A733656F0D SWAP1 DUP1 LOG4 PUSH1 0x1 SWAP1 JUMP JUMPDEST POP POP PUSH0 SWAP1 JUMP JUMPDEST PUSH0 DUP2 DUP2 MSTORE PUSH1 0x7 PUSH1 0x20 SWAP1 DUP2 MSTORE PUSH1 0x40 DUP1 DUP4 KECCAK256 PUSH1 0x1 PUSH1 0x1 PUSH1 0xA0 SHL SUB DUP7 AND DUP5 MSTORE SWAP1 SWAP2 MSTORE SWAP1 KECCAK256 SLOAD PUSH1 0xFF AND ISZERO PUSH2 0x1D6C JUMPI PUSH0 DUP2 DUP2 MSTORE PUSH1 0x7 PUSH1 0x20 SWAP1 DUP2 MSTORE PUSH1 0x40 DUP1 DUP4 KECCAK256 PUSH1 0x1 PUSH1 0x1 PUSH1 0xA0 SHL SUB SWAP6 SWAP1 SWAP6 AND DUP1 DUP5 MSTORE SWAP5 SWAP1 SWAP2 MSTORE DUP2 KECCAK256 DUP1 SLOAD PUSH1 0xFF NOT AND SWAP1 SSTORE CALLER SWAP3 SWAP2 SWAP1 PUSH32 0xF6391F5C32D9C69D2A47EA670B442974B53935D1EDC7FD64EB21E047A839171B SWAP1 DUP1 LOG4 PUSH1 0x1 SWAP1 JUMP JUMPDEST DUP3 EXTCODESIZE PUSH2 0x1E04 JUMPI JUMPDEST POP POP POP POP POP JUMP JUMPDEST PUSH1 0x40 MLOAD PUSH4 0xA85BD01 PUSH1 0xE1 SHL DUP2 MSTORE PUSH1 0x1 PUSH1 0x1 PUSH1 0xA0 SHL SUB SWAP2 DUP3 AND PUSH1 0x4 DUP3 ADD MSTORE SWAP2 DUP2 AND PUSH1 0x24 DUP4 ADD MSTORE PUSH1 0x44 DUP3 ADD SWAP4 SWAP1 SWAP4 MSTORE PUSH1 0x80 PUSH1 0x64 DUP3 ADD MSTORE SWAP2 AND SWAP2 PUSH1 0x20 SWAP1 DUP3 SWAP1 DUP2 SWAP1 PUSH2 0x1E50 SWAP1 PUSH1 0x84 DUP4 ADD SWAP1 PUSH2 0x133F JUMP JUMPDEST SUB DUP2 PUSH0 DUP7 GAS CALL PUSH0 SWAP2 DUP2 PUSH2 0x1ED5 JUMPI JUMPDEST POP PUSH2 0x1EB3 JUMPI POP RETURNDATASIZE ISZERO PUSH2 0x1EAC JUMPI RETURNDATASIZE PUSH2 0x1E74 DUP2 PUSH2 0x1407 JUMP JUMPDEST SWAP1 PUSH2 0x1E82 PUSH1 0x40 MLOAD SWAP3 DUP4 PUSH2 0x13E5 JUMP JUMPDEST DUP2 MSTORE RETURNDATASIZE PUSH0 PUSH1 0x20 DUP4 ADD RETURNDATACOPY JUMPDEST DUP1 MLOAD SWAP1 DUP2 PUSH2 0x1EA7 JUMPI DUP3 PUSH4 0x32505749 PUSH1 0xE1 SHL PUSH0 MSTORE PUSH1 0x4 MSTORE PUSH1 0x24 PUSH0 REVERT JUMPDEST PUSH1 0x20 ADD REVERT JUMPDEST PUSH1 0x60 PUSH2 0x1E8C JUMP JUMPDEST PUSH1 0x1 PUSH1 0x1 PUSH1 0xE0 SHL SUB NOT AND PUSH4 0x757A42FF PUSH1 0xE1 SHL ADD PUSH2 0x1AE9 JUMPI POP PUSH0 DUP1 DUP1 DUP1 DUP1 PUSH2 0x1DFD JUMP JUMPDEST SWAP1 SWAP2 POP PUSH1 0x20 DUP2 RETURNDATASIZE PUSH1 0x20 GT PUSH2 0x1F12 JUMPI JUMPDEST DUP2 PUSH2 0x1EF1 PUSH1 0x20 SWAP4 DUP4 PUSH2 0x13E5 JUMP JUMPDEST DUP2 ADD SUB SLT PUSH2 0x1BA JUMPI MLOAD PUSH1 0x1 PUSH1 0x1 PUSH1 0xE0 SHL SUB NOT DUP2 AND DUP2 SUB PUSH2 0x1BA JUMPI SWAP1 PUSH0 PUSH2 0x1E5E JUMP JUMPDEST RETURNDATASIZE SWAP2 POP PUSH2 0x1EE4 JUMP JUMPDEST PUSH2 0x150F SWAP1 PUSH1 0x20 DUP1 DUP1 SWAP6 SWAP5 PUSH1 0x40 MLOAD SWAP7 DUP5 DUP9 SWAP6 MLOAD SWAP2 DUP3 SWAP2 ADD DUP5 DUP8 ADD MCOPY DUP5 ADD SWAP1 DUP3 DUP3 ADD PUSH0 DUP2 MSTORE DUP2 MLOAD SWAP4 DUP5 SWAP3 ADD SWAP1 MCOPY ADD ADD PUSH0 DUP2 MSTORE SUB PUSH1 0x1F NOT DUP2 ADD DUP5 MSTORE DUP4 PUSH2 0x13E5 JUMP JUMPDEST PUSH2 0x1F61 DUP2 PUSH2 0x1895 JUMP JUMPDEST POP PUSH2 0x1F6A PUSH2 0x14D8 JUMP JUMPDEST DUP2 PUSH0 MSTORE PUSH1 0x6 PUSH1 0x20 MSTORE PUSH2 0x1F7E PUSH1 0x40 PUSH0 KECCAK256 PUSH2 0x157C JUMP JUMPDEST SWAP1 DUP1 MLOAD ISZERO PUSH2 0x2142 JUMPI DUP2 MLOAD PUSH2 0x2138 JUMPI POP POP PUSH2 0x1F97 DUP2 PUSH2 0x1895 JUMP JUMPDEST POP PUSH2 0x1FA0 PUSH2 0x14D8 JUMP JUMPDEST DUP1 MLOAD SWAP1 SWAP2 SWAP1 ISZERO PUSH2 0x2122 JUMPI DUP1 DUP2 PUSH0 SWAP3 PUSH19 0x184F03E93FF9F4DAA797ED6E38ED64BF6A1F01 PUSH1 0x40 SHL DUP2 LT ISZERO PUSH2 0x20FC JUMPI JUMPDEST POP DUP1 PUSH14 0x4EE2D6D415B85ACEF8100000000 PUSH1 0xA SWAP3 LT ISZERO PUSH2 0x20E1 JUMPI JUMPDEST PUSH7 0x2386F26FC10000 DUP2 LT ISZERO PUSH2 0x20CD JUMPI JUMPDEST PUSH4 0x5F5E100 DUP2 LT ISZERO PUSH2 0x20BC JUMPI JUMPDEST PUSH2 0x2710 DUP2 LT ISZERO PUSH2 0x20AD JUMPI JUMPDEST PUSH1 0x64 DUP2 LT ISZERO PUSH2 0x209F JUMPI JUMPDEST LT ISZERO PUSH2 0x2094 JUMPI JUMPDEST PUSH1 0xA PUSH1 0x21 PUSH1 0x1 DUP5 ADD SWAP4 PUSH2 0x2033 DUP6 PUSH2 0x1407 JUMP JUMPDEST SWAP5 PUSH2 0x2041 PUSH1 0x40 MLOAD SWAP7 DUP8 PUSH2 0x13E5 JUMP JUMPDEST DUP1 DUP7 MSTORE PUSH2 0x2050 PUSH1 0x1F NOT SWAP2 PUSH2 0x1407 JUMP JUMPDEST ADD CALLDATASIZE PUSH1 0x20 DUP8 ADD CALLDATACOPY DUP5 ADD ADD JUMPDEST PUSH0 NOT ADD SWAP2 PUSH16 0x181899199A1A9B1B9C1CB0B131B232B3 PUSH1 0x81 SHL DUP3 DUP3 MOD BYTE DUP4 MSTORE8 DIV SWAP1 DUP2 ISZERO PUSH2 0x2089 JUMPI PUSH1 0xA SWAP1 PUSH2 0x205B JUMP JUMPDEST POP POP PUSH2 0x1474 SWAP2 PUSH2 0x1F1A JUMP JUMPDEST PUSH1 0x1 SWAP1 SWAP2 ADD SWAP1 PUSH2 0x2021 JUMP JUMPDEST PUSH1 0x64 PUSH1 0x2 SWAP2 DIV SWAP4 ADD SWAP3 PUSH2 0x201A JUMP JUMPDEST PUSH2 0x2710 PUSH1 0x4 SWAP2 DIV SWAP4 ADD SWAP3 PUSH2 0x2010 JUMP JUMPDEST PUSH4 0x5F5E100 PUSH1 0x8 SWAP2 DIV SWAP4 ADD SWAP3 PUSH2 0x2005 JUMP JUMPDEST PUSH7 0x2386F26FC10000 PUSH1 0x10 SWAP2 DIV SWAP4 ADD SWAP3 PUSH2 0x1FF8 JUMP JUMPDEST PUSH14 0x4EE2D6D415B85ACEF8100000000 PUSH1 0x20 SWAP2 DIV SWAP4 ADD SWAP3 PUSH2 0x1FE8 JUMP JUMPDEST PUSH1 0x40 SWAP4 POP PUSH19 0x184F03E93FF9F4DAA797ED6E38ED64BF6A1F01 PUSH1 0x40 SHL SWAP1 DIV SWAP1 POP PUSH1 0xA PUSH2 0x1FCD JUMP JUMPDEST POP POP PUSH1 0x40 MLOAD PUSH2 0x2132 PUSH1 0x20 DUP3 PUSH2 0x13E5 JUMP JUMPDEST PUSH0 DUP2 MSTORE SWAP1 JUMP JUMPDEST PUSH2 0x1474 SWAP3 POP PUSH2 0x1F1A JUMP JUMPDEST POP SWAP1 POP SWAP1 JUMP INVALID PUSH15 0x1540171B6C0C960B71A7020D9F6007 PUSH32 0x6AF931A8BBF590DA0223DACF75C7AFF2E23D0B2E0F1FED13BD95C077635DCBF4 INVALID 0xD RETURNDATASIZE CALLDATACOPY 0xAA 0xCC SWAP4 PUSH7 0x9F4512B61CA87D LOG2 PUSH5 0x6970667358 0x22 SLT KECCAK256 SWAP11 CALLDATALOAD DIV DUP7 DUP5 0xAB SWAP13 0x22 DUP9 0xF9 SMOD 0xB3 RETURNDATASIZE 0xBD PUSH2 0x378 0xEF TLOAD DUP5 0xC7 SELFDESTRUCT LOG0 0xD0 0xDA 0x22 0xC8 CALLDATALOAD 0xB0 0xA8 0xCF DIV PUSH5 0x736F6C6343 STOP ADDMOD SHL STOP CALLER 0x2F DUP8 DUP9 GT PUSH31 0x7EFF1D82E926EC794901D17C78024A50270940304540A733656F0D6D525720 0x4E 0xBE PUSH30 0x88FD91AE87941CB2DD9D8062B64AE5A2BD2D28EC40B9FBF6DFA4BFD7AFE7 ADDMOD 0xE2 0xE8 PUSH31 0x7F0E2AD9B4D545417E0F795F57B5C5AB5D799C565A04F40000000000000000 "},"methodIdentifiers":{"DEFAULT_ADMIN_ROLE()":"a217fddf","MINTER_ROLE()":"d5391393","approve(address,uint256)":"095ea7b3","balanceOf(address)":"70a08231","deactivatePass(uint256)":"536565c4","getApproved(uint256)":"081812fc","getRoleAdmin(bytes32)":"248a9ca3","getUserPassCount(address)":"90b057a0","getUserPasses(address)":"bc38d48c","grantRole(bytes32,address)":"2f2ff15d","hasAccess(address,uint256)":"c6530e41","hasPassType(address,uint256)":"f1caa2f8","hasRole(bytes32,address)":"91d14854","isApprovedForAll(address,address)":"e985e9c5","mintPass(address,uint256,string)":"2ba1b5e3","mintPassWithProduct(address,uint256,string,string)":"7f1226dc","name()":"06fdde03","ownerOf(uint256)":"6352211e","passMetadata(uint256)":"9ba9b29d","renounceRole(bytes32,address)":"36568abe","revokeRole(bytes32,address)":"d547741f","safeTransferFrom(address,address,uint256)":"42842e0e","safeTransferFrom(address,address,uint256,bytes)":"b88d4fde","setApprovalForAll(address,bool)":"a22cb465","setBaseURI(string)":"55f804b3","supportsInterface(bytes4)":"01ffc9a7","symbol()":"95d89b41","tokenURI(uint256)":"c87b56dd","totalSupply()":"18160ddd","transferFrom(address,address,uint256)":"23b872dd","userPasses(address,uint256)":"550989a0"}}}}}