{
  "_format": "hh3-artifact-1",
  "contractName": "PaymentSettlement",
  "sourceName": "contracts/PaymentSettlement.sol",
  "abi": [
    {
      "inputs": [
        {
          "internalType": "address",
          "name": "_usdc",
          "type": "address"
        },
        {
          "internalType": "address",
          "name": "_merchant",
          "type": "address"
        }
      ],
      "stateMutability": "nonpayable",
      "type": "constructor"
    },
    {
      "inputs": [],
      "name": "EnforcedPause",
      "type": "error"
    },
    {
      "inputs": [],
      "name": "ExpectedPause",
      "type": "error"
    },
    {
      "inputs": [
        {
          "internalType": "address",
          "name": "owner",
          "type": "address"
        }
      ],
      "name": "OwnableInvalidOwner",
      "type": "error"
    },
    {
      "inputs": [
        {
          "internalType": "address",
          "name": "account",
          "type": "address"
        }
      ],
      "name": "OwnableUnauthorizedAccount",
      "type": "error"
    },
    {
      "inputs": [],
      "name": "ReentrancyGuardReentrantCall",
      "type": "error"
    },
    {
      "anonymous": false,
      "inputs": [
        {
          "indexed": true,
          "internalType": "address",
          "name": "oldMerchant",
          "type": "address"
        },
        {
          "indexed": true,
          "internalType": "address",
          "name": "newMerchant",
          "type": "address"
        }
      ],
      "name": "MerchantUpdated",
      "type": "event"
    },
    {
      "anonymous": false,
      "inputs": [
        {
          "indexed": true,
          "internalType": "address",
          "name": "merchant",
          "type": "address"
        },
        {
          "indexed": false,
          "internalType": "uint256",
          "name": "amount",
          "type": "uint256"
        },
        {
          "indexed": false,
          "internalType": "uint256",
          "name": "timestamp",
          "type": "uint256"
        }
      ],
      "name": "MerchantWithdrawn",
      "type": "event"
    },
    {
      "anonymous": false,
      "inputs": [
        {
          "indexed": true,
          "internalType": "address",
          "name": "previousOwner",
          "type": "address"
        },
        {
          "indexed": true,
          "internalType": "address",
          "name": "newOwner",
          "type": "address"
        }
      ],
      "name": "OwnershipTransferred",
      "type": "event"
    },
    {
      "anonymous": false,
      "inputs": [
        {
          "indexed": false,
          "internalType": "address",
          "name": "account",
          "type": "address"
        }
      ],
      "name": "Paused",
      "type": "event"
    },
    {
      "anonymous": false,
      "inputs": [
        {
          "indexed": true,
          "internalType": "bytes32",
          "name": "invoiceId",
          "type": "bytes32"
        },
        {
          "indexed": true,
          "internalType": "address",
          "name": "buyer",
          "type": "address"
        },
        {
          "indexed": true,
          "internalType": "address",
          "name": "merchant",
          "type": "address"
        },
        {
          "indexed": false,
          "internalType": "string",
          "name": "productId",
          "type": "string"
        },
        {
          "indexed": false,
          "internalType": "uint256",
          "name": "amount",
          "type": "uint256"
        },
        {
          "indexed": false,
          "internalType": "uint256",
          "name": "timestamp",
          "type": "uint256"
        }
      ],
      "name": "PaymentSettled",
      "type": "event"
    },
    {
      "anonymous": false,
      "inputs": [
        {
          "indexed": false,
          "internalType": "address",
          "name": "account",
          "type": "address"
        }
      ],
      "name": "Unpaused",
      "type": "event"
    },
    {
      "inputs": [
        {
          "internalType": "address",
          "name": "merchantAddress",
          "type": "address"
        }
      ],
      "name": "getMerchantPaymentCount",
      "outputs": [
        {
          "internalType": "uint256",
          "name": "",
          "type": "uint256"
        }
      ],
      "stateMutability": "view",
      "type": "function"
    },
    {
      "inputs": [
        {
          "internalType": "address",
          "name": "merchantAddress",
          "type": "address"
        }
      ],
      "name": "getMerchantPayments",
      "outputs": [
        {
          "internalType": "bytes32[]",
          "name": "",
          "type": "bytes32[]"
        }
      ],
      "stateMutability": "view",
      "type": "function"
    },
    {
      "inputs": [
        {
          "internalType": "bytes32",
          "name": "invoiceId",
          "type": "bytes32"
        }
      ],
      "name": "getPayment",
      "outputs": [
        {
          "components": [
            {
              "internalType": "address",
              "name": "buyer",
              "type": "address"
            },
            {
              "internalType": "string",
              "name": "productId",
              "type": "string"
            },
            {
              "internalType": "uint256",
              "name": "amount",
              "type": "uint256"
            },
            {
              "internalType": "uint256",
              "name": "timestamp",
              "type": "uint256"
            },
            {
              "internalType": "bool",
              "name": "settled",
              "type": "bool"
            }
          ],
          "internalType": "struct PaymentSettlement.Payment",
          "name": "",
          "type": "tuple"
        }
      ],
      "stateMutability": "view",
      "type": "function"
    },
    {
      "inputs": [],
      "name": "merchant",
      "outputs": [
        {
          "internalType": "address",
          "name": "",
          "type": "address"
        }
      ],
      "stateMutability": "view",
      "type": "function"
    },
    {
      "inputs": [
        {
          "internalType": "address",
          "name": "",
          "type": "address"
        }
      ],
      "name": "merchantBalances",
      "outputs": [
        {
          "internalType": "uint256",
          "name": "",
          "type": "uint256"
        }
      ],
      "stateMutability": "view",
      "type": "function"
    },
    {
      "inputs": [
        {
          "internalType": "address",
          "name": "",
          "type": "address"
        },
        {
          "internalType": "uint256",
          "name": "",
          "type": "uint256"
        }
      ],
      "name": "merchantPayments",
      "outputs": [
        {
          "internalType": "bytes32",
          "name": "",
          "type": "bytes32"
        }
      ],
      "stateMutability": "view",
      "type": "function"
    },
    {
      "inputs": [],
      "name": "owner",
      "outputs": [
        {
          "internalType": "address",
          "name": "",
          "type": "address"
        }
      ],
      "stateMutability": "view",
      "type": "function"
    },
    {
      "inputs": [],
      "name": "pause",
      "outputs": [],
      "stateMutability": "nonpayable",
      "type": "function"
    },
    {
      "inputs": [],
      "name": "paused",
      "outputs": [
        {
          "internalType": "bool",
          "name": "",
          "type": "bool"
        }
      ],
      "stateMutability": "view",
      "type": "function"
    },
    {
      "inputs": [],
      "name": "paymentCount",
      "outputs": [
        {
          "internalType": "uint256",
          "name": "",
          "type": "uint256"
        }
      ],
      "stateMutability": "view",
      "type": "function"
    },
    {
      "inputs": [
        {
          "internalType": "bytes32",
          "name": "",
          "type": "bytes32"
        }
      ],
      "name": "payments",
      "outputs": [
        {
          "internalType": "address",
          "name": "buyer",
          "type": "address"
        },
        {
          "internalType": "string",
          "name": "productId",
          "type": "string"
        },
        {
          "internalType": "uint256",
          "name": "amount",
          "type": "uint256"
        },
        {
          "internalType": "uint256",
          "name": "timestamp",
          "type": "uint256"
        },
        {
          "internalType": "bool",
          "name": "settled",
          "type": "bool"
        }
      ],
      "stateMutability": "view",
      "type": "function"
    },
    {
      "inputs": [
        {
          "internalType": "address",
          "name": "buyer",
          "type": "address"
        },
        {
          "internalType": "string",
          "name": "productId",
          "type": "string"
        },
        {
          "internalType": "uint256",
          "name": "amount",
          "type": "uint256"
        }
      ],
      "name": "receivePayment",
      "outputs": [
        {
          "internalType": "bytes32",
          "name": "",
          "type": "bytes32"
        }
      ],
      "stateMutability": "nonpayable",
      "type": "function"
    },
    {
      "inputs": [],
      "name": "renounceOwnership",
      "outputs": [],
      "stateMutability": "nonpayable",
      "type": "function"
    },
    {
      "inputs": [],
      "name": "totalSettled",
      "outputs": [
        {
          "internalType": "uint256",
          "name": "",
          "type": "uint256"
        }
      ],
      "stateMutability": "view",
      "type": "function"
    },
    {
      "inputs": [
        {
          "internalType": "address",
          "name": "newOwner",
          "type": "address"
        }
      ],
      "name": "transferOwnership",
      "outputs": [],
      "stateMutability": "nonpayable",
      "type": "function"
    },
    {
      "inputs": [],
      "name": "unpause",
      "outputs": [],
      "stateMutability": "nonpayable",
      "type": "function"
    },
    {
      "inputs": [
        {
          "internalType": "address",
          "name": "newMerchant",
          "type": "address"
        }
      ],
      "name": "updateMerchant",
      "outputs": [],
      "stateMutability": "nonpayable",
      "type": "function"
    },
    {
      "inputs": [],
      "name": "usdc",
      "outputs": [
        {
          "internalType": "contract IERC20",
          "name": "",
          "type": "address"
        }
      ],
      "stateMutability": "view",
      "type": "function"
    }
  ],
  "bytecode": "0x6080346101ae57601f61115c38819003918201601f19168301916001600160401b038311848410176101b25780849260409485528339810103126101ae57610052602061004b836101c6565b92016101c6565b331561019b575f8054336001600160a01b0319821681178355604051949290916001600160a01b0316907f8be0079c531659141344cd1fd0a4f28419497f9722a3daafe3b4186f6b6457e09080a360017f9b779b17422d0df92223018b32b4d1fa46e071723d6817e2486d003becc55f00556001600160a01b031691821561015957506001600160a01b03169081156101145760018060a01b0319600154161760015560018060a01b03196005541617600555604051610f8190816101db8239f35b60405162461bcd60e51b815260206004820152601860248201527f496e76616c6964206d65726368616e74206164647265737300000000000000006044820152606490fd5b62461bcd60e51b815260206004820152601460248201527f496e76616c6964205553444320616464726573730000000000000000000000006044820152606490fd5b631e4fbdf760e01b5f525f60045260245ffd5b5f80fd5b634e487b7160e01b5f52604160045260245ffd5b51906001600160a01b03821682036101ae5756fe60806040526004361015610011575f80fd5b5f3560e01c80630716326d14610d035780630937e68a14610ce65780630a44556014610cae5780633e413bee14610c865780633f4ba83a14610c1a57806355e5e4cf146105815780635c975abb1461055d578063715018a6146105065780637f3f1601146104ce5780638456cb591461046e5780638da5cb5b1461044757806399e5d739146103ef578063a356a1281461033b578063a5ff765114610313578063b7986b5b1461026a578063e66eefc814610185578063eace4c91146101685763f2fde38b146100df575f80fd5b34610164576020366003190112610164576100f8610ebc565b610100610f08565b6001600160a01b03168015610151575f80546001600160a01b03198116831782556001600160a01b0316907f8be0079c531659141344cd1fd0a4f28419497f9722a3daafe3b4186f6b6457e09080a3005b631e4fbdf760e01b5f525f60045260245ffd5b5f80fd5b34610164575f366003190112610164576020600654604051908152f35b34610164576020366003190112610164575f60806040516101a581610dba565b8281526060602082015282604082015282606082015201526004355f52600260205260405f206040516101d781610dba565b81546001600160a01b031681526101f060018301610df8565b91602082019283526002810154906040830191825260ff600460038301549260608601938452015416906080840191151582526102516040519586956020875260018060a01b0390511660208701525160a0604087015260c0860190610e98565b9251606085015251608084015251151560a08301520390f35b3461016457602036600319011261016457610283610ebc565b61028b610f08565b6001600160a01b031680156102dc57600554816001600160a01b0382167fc71a864d3f4bc0559344ce15f55b5e6a03a716ac1b44d4108555b3fc5cd827525f80a36001600160a01b03191617600555005b60405162461bcd60e51b815260206004820152600f60248201526e496e76616c6964206164647265737360881b6044820152606490fd5b34610164575f366003190112610164576005546040516001600160a01b039091168152602090f35b34610164576020366003190112610164576001600160a01b0361035c610ebc565b165f52600360205260405f20604051806020835491828152019081935f5260205f20905f5b8181106103d95750505081610397910382610dd6565b604051918291602083019060208452518091526040830191905f5b8181106103c0575050500390f35b82518452859450602093840193909201916001016103b2565b8254845260209093019260019283019201610381565b3461016457604036600319011261016457610408610ebc565b6001600160a01b03165f908152600360205260409020805460243591908210156101645760209161043891610ed2565b90549060031b1c604051908152f35b34610164575f366003190112610164575f546040516001600160a01b039091168152602090f35b34610164575f36600319011261016457610486610f08565b61048e610f2e565b5f805460ff60a01b1916600160a01b1790556040513381527f62e78cea01bee320cd4e420270b5ea74000d11b0c9f74754ebdbfc544b05a25890602090a1005b34610164576020366003190112610164576001600160a01b036104ef610ebc565b165f526004602052602060405f2054604051908152f35b34610164575f3660031901126101645761051e610f08565b5f80546001600160a01b0319811682556001600160a01b03167f8be0079c531659141344cd1fd0a4f28419497f9722a3daafe3b4186f6b6457e08280a3005b34610164575f36600319011261016457602060ff5f5460a01c166040519015158152f35b346101645760603660031901126101645761059a610ebc565b60243567ffffffffffffffff811161016457366023820112156101645780600401359167ffffffffffffffff83116101645760248201916024843692010111610164576044359060027f9b779b17422d0df92223018b32b4d1fa46e071723d6817e2486d003becc55f005414610c0b5760027f9b779b17422d0df92223018b32b4d1fa46e071723d6817e2486d003becc55f0055610636610f2e565b6001600160a01b038116908115610bd6578215610b9c578415610b635760405160208101916bffffffffffffffffffffffff199060601b168252858560348301376106936020603483898101428382015203018084520182610dd6565b51902092835f52600260205260ff600460405f20015416610b2c57600154604051636eb1769f60e11b81523360048201523060248201526001600160a01b0390911690602081604481855afa8015610aae5785915f91610af7575b5010610ab95760205f91606460018060a01b036005541660405194859384926323b872dd60e01b845233600485015260248401528960448401525af1908115610aae575f91610a73575b5015610a3c5760405161074a81610dba565b828152604051601f8701601f1916916107666020840183610dd6565b878252878460208401375f6020898401015260208101918252604081018681526060820190428252608083019360018552895f52600260205260405f209360018060a01b039051166bffffffffffffffffffffffff60a01b85541617845560018401905180519067ffffffffffffffff821161096f576107e68354610d82565b601f81116109f7575b50602090601f831160011461098e5760049695949392915f9183610983575b50508160011b915f199060031b1c19161790555b516002830155516003820155019051151560ff8019835416911617905560018060a01b03600554165f52600360205260405f2080546801000000000000000081101561096f5761087791600182018155610ed2565b81549060031b9087821b915f19901b191617905560018060a01b03600554165f52600460205260405f206108ac858254610efb565b90556108ba84600654610efb565b600655600754955f19871461095b57608086937fa56d242956b567f2686d356a67a1cd5d2162684e589f4cd3c8b80df51224838093600160209a0160075560018060a01b0360055416975f84866040519788966060885281606089015283880137850101528a8301524260408301528101030190a460017f9b779b17422d0df92223018b32b4d1fa46e071723d6817e2486d003becc55f0055604051908152f35b634e487b7160e01b5f52601160045260245ffd5b634e487b7160e01b5f52604160045260245ffd5b015190508e8061080e565b90601f19831691845f52815f20925f5b8181106109df575091600193918560049a9998979694106109c7575b505050811b019055610822565b01515f1960f88460031b161c191690558e80806109ba565b9293602060018192878601518155019501930161099e565b835f5260205f20601f840160051c81019160208510610a32575b601f0160051c01905b818110610a2757506107ef565b5f8155600101610a1a565b9091508190610a11565b60405162461bcd60e51b815260206004820152600f60248201526e151c985b9cd9995c8819985a5b1959608a1b6044820152606490fd5b90506020813d602011610aa6575b81610a8e60209383610dd6565b81010312610164575180151581036101645786610738565b3d9150610a81565b6040513d5f823e3d90fd5b60405162461bcd60e51b8152602060048201526016602482015275496e73756666696369656e7420616c6c6f77616e636560501b6044820152606490fd5b9150506020813d602011610b24575b81610b1360209383610dd6565b8101031261016457849051886106ee565b3d9150610b06565b60405162461bcd60e51b815260206004820152600f60248201526e105b1c9958591e481cd95d1d1b1959608a1b6044820152606490fd5b60405162461bcd60e51b8152602060048201526011602482015270125b9d985b1a59081c1c9bd91d58dd1259607a1b6044820152606490fd5b60405162461bcd60e51b81526020600482015260126024820152710416d6f756e74206d757374206265203e20360741b6044820152606490fd5b60405162461bcd60e51b815260206004820152600d60248201526c24b73b30b634b210313abcb2b960991b6044820152606490fd5b633ee5aeb560e01b5f5260045ffd5b34610164575f36600319011261016457610c32610f08565b5f5460ff8160a01c1615610c775760ff60a01b19165f556040513381527f5db9ee0a495bf2e6ff9c91a7834c1ba4fdd244a5e8aa4e537bd38aeae4b073aa90602090a1005b638dfc202b60e01b5f5260045ffd5b34610164575f366003190112610164576001546040516001600160a01b039091168152602090f35b34610164576020366003190112610164576001600160a01b03610ccf610ebc565b165f526003602052602060405f2054604051908152f35b34610164575f366003190112610164576020600754604051908152f35b34610164576020366003190112610164576004355f90815260026020526040902080546001600160a01b0316610d3b60018301610df8565b9160028101549060ff600460038301549201541690610d6c604051958695865260a0602087015260a0860190610e98565b9260408501526060840152151560808301520390f35b90600182811c92168015610db0575b6020831014610d9c57565b634e487b7160e01b5f52602260045260245ffd5b91607f1691610d91565b60a0810190811067ffffffffffffffff82111761096f57604052565b90601f8019910116810190811067ffffffffffffffff82111761096f57604052565b9060405191825f825492610e0b84610d82565b8084529360018116908115610e765750600114610e32575b50610e3092500383610dd6565b565b90505f9291925260205f20905f915b818310610e5a575050906020610e30928201015f610e23565b6020919350806001915483858901015201910190918492610e41565b905060209250610e3094915060ff191682840152151560051b8201015f610e23565b805180835260209291819084018484015e5f828201840152601f01601f1916010190565b600435906001600160a01b038216820361016457565b8054821015610ee7575f5260205f2001905f90565b634e487b7160e01b5f52603260045260245ffd5b9190820180921161095b57565b5f546001600160a01b03163303610f1b57565b63118cdaa760e01b5f523360045260245ffd5b60ff5f5460a01c16610f3c57565b63d93c066560e01b5f5260045ffdfea2646970667358221220c61c19fb43fac38dd399a68a03c5a74d9f6c27b5b7f8846da90cbf530293129764736f6c634300081b0033",
  "linkReferences": {},
  "deployedLinkReferences": {},
  "immutableReferences": {},
  "inputSourceName": "project/contracts/PaymentSettlement.sol",
  "buildInfoId": "solc-0_8_27-652bf110d085ce2620bbe00c620152101321b9de"
}