{
  "_format": "hh3-artifact-1",
  "contractName": "AccessPassNFT",
  "sourceName": "contracts/AccessPassNFT.sol",
  "abi": [
    {
      "inputs": [
        {
          "internalType": "address",
          "name": "defaultAdmin",
          "type": "address"
        },
        {
          "internalType": "address",
          "name": "minter",
          "type": "address"
        },
        {
          "internalType": "string",
          "name": "baseURI",
          "type": "string"
        }
      ],
      "stateMutability": "nonpayable",
      "type": "constructor"
    },
    {
      "inputs": [],
      "name": "AccessControlBadConfirmation",
      "type": "error"
    },
    {
      "inputs": [
        {
          "internalType": "address",
          "name": "account",
          "type": "address"
        },
        {
          "internalType": "bytes32",
          "name": "neededRole",
          "type": "bytes32"
        }
      ],
      "name": "AccessControlUnauthorizedAccount",
      "type": "error"
    },
    {
      "inputs": [
        {
          "internalType": "address",
          "name": "sender",
          "type": "address"
        },
        {
          "internalType": "uint256",
          "name": "tokenId",
          "type": "uint256"
        },
        {
          "internalType": "address",
          "name": "owner",
          "type": "address"
        }
      ],
      "name": "ERC721IncorrectOwner",
      "type": "error"
    },
    {
      "inputs": [
        {
          "internalType": "address",
          "name": "operator",
          "type": "address"
        },
        {
          "internalType": "uint256",
          "name": "tokenId",
          "type": "uint256"
        }
      ],
      "name": "ERC721InsufficientApproval",
      "type": "error"
    },
    {
      "inputs": [
        {
          "internalType": "address",
          "name": "approver",
          "type": "address"
        }
      ],
      "name": "ERC721InvalidApprover",
      "type": "error"
    },
    {
      "inputs": [
        {
          "internalType": "address",
          "name": "operator",
          "type": "address"
        }
      ],
      "name": "ERC721InvalidOperator",
      "type": "error"
    },
    {
      "inputs": [
        {
          "internalType": "address",
          "name": "owner",
          "type": "address"
        }
      ],
      "name": "ERC721InvalidOwner",
      "type": "error"
    },
    {
      "inputs": [
        {
          "internalType": "address",
          "name": "receiver",
          "type": "address"
        }
      ],
      "name": "ERC721InvalidReceiver",
      "type": "error"
    },
    {
      "inputs": [
        {
          "internalType": "address",
          "name": "sender",
          "type": "address"
        }
      ],
      "name": "ERC721InvalidSender",
      "type": "error"
    },
    {
      "inputs": [
        {
          "internalType": "uint256",
          "name": "tokenId",
          "type": "uint256"
        }
      ],
      "name": "ERC721NonexistentToken",
      "type": "error"
    },
    {
      "anonymous": false,
      "inputs": [
        {
          "indexed": true,
          "internalType": "address",
          "name": "owner",
          "type": "address"
        },
        {
          "indexed": true,
          "internalType": "address",
          "name": "approved",
          "type": "address"
        },
        {
          "indexed": true,
          "internalType": "uint256",
          "name": "tokenId",
          "type": "uint256"
        }
      ],
      "name": "Approval",
      "type": "event"
    },
    {
      "anonymous": false,
      "inputs": [
        {
          "indexed": true,
          "internalType": "address",
          "name": "owner",
          "type": "address"
        },
        {
          "indexed": true,
          "internalType": "address",
          "name": "operator",
          "type": "address"
        },
        {
          "indexed": false,
          "internalType": "bool",
          "name": "approved",
          "type": "bool"
        }
      ],
      "name": "ApprovalForAll",
      "type": "event"
    },
    {
      "anonymous": false,
      "inputs": [
        {
          "indexed": false,
          "internalType": "string",
          "name": "newBaseURI",
          "type": "string"
        }
      ],
      "name": "BaseURIUpdated",
      "type": "event"
    },
    {
      "anonymous": false,
      "inputs": [
        {
          "indexed": false,
          "internalType": "uint256",
          "name": "_fromTokenId",
          "type": "uint256"
        },
        {
          "indexed": false,
          "internalType": "uint256",
          "name": "_toTokenId",
          "type": "uint256"
        }
      ],
      "name": "BatchMetadataUpdate",
      "type": "event"
    },
    {
      "anonymous": false,
      "inputs": [
        {
          "indexed": false,
          "internalType": "uint256",
          "name": "_tokenId",
          "type": "uint256"
        }
      ],
      "name": "MetadataUpdate",
      "type": "event"
    },
    {
      "anonymous": false,
      "inputs": [
        {
          "indexed": true,
          "internalType": "uint256",
          "name": "tokenId",
          "type": "uint256"
        }
      ],
      "name": "PassDeactivated",
      "type": "event"
    },
    {
      "anonymous": false,
      "inputs": [
        {
          "indexed": true,
          "internalType": "uint256",
          "name": "tokenId",
          "type": "uint256"
        },
        {
          "indexed": true,
          "internalType": "address",
          "name": "recipient",
          "type": "address"
        },
        {
          "indexed": false,
          "internalType": "uint256",
          "name": "passType",
          "type": "uint256"
        },
        {
          "indexed": false,
          "internalType": "string",
          "name": "productId",
          "type": "string"
        },
        {
          "indexed": false,
          "internalType": "string",
          "name": "metadataURI",
          "type": "string"
        }
      ],
      "name": "PassMinted",
      "type": "event"
    },
    {
      "anonymous": false,
      "inputs": [
        {
          "indexed": true,
          "internalType": "bytes32",
          "name": "role",
          "type": "bytes32"
        },
        {
          "indexed": true,
          "internalType": "bytes32",
          "name": "previousAdminRole",
          "type": "bytes32"
        },
        {
          "indexed": true,
          "internalType": "bytes32",
          "name": "newAdminRole",
          "type": "bytes32"
        }
      ],
      "name": "RoleAdminChanged",
      "type": "event"
    },
    {
      "anonymous": false,
      "inputs": [
        {
          "indexed": true,
          "internalType": "bytes32",
          "name": "role",
          "type": "bytes32"
        },
        {
          "indexed": true,
          "internalType": "address",
          "name": "account",
          "type": "address"
        },
        {
          "indexed": true,
          "internalType": "address",
          "name": "sender",
          "type": "address"
        }
      ],
      "name": "RoleGranted",
      "type": "event"
    },
    {
      "anonymous": false,
      "inputs": [
        {
          "indexed": true,
          "internalType": "bytes32",
          "name": "role",
          "type": "bytes32"
        },
        {
          "indexed": true,
          "internalType": "address",
          "name": "account",
          "type": "address"
        },
        {
          "indexed": true,
          "internalType": "address",
          "name": "sender",
          "type": "address"
        }
      ],
      "name": "RoleRevoked",
      "type": "event"
    },
    {
      "anonymous": false,
      "inputs": [
        {
          "indexed": true,
          "internalType": "address",
          "name": "from",
          "type": "address"
        },
        {
          "indexed": true,
          "internalType": "address",
          "name": "to",
          "type": "address"
        },
        {
          "indexed": true,
          "internalType": "uint256",
          "name": "tokenId",
          "type": "uint256"
        }
      ],
      "name": "Transfer",
      "type": "event"
    },
    {
      "inputs": [],
      "name": "DEFAULT_ADMIN_ROLE",
      "outputs": [
        {
          "internalType": "bytes32",
          "name": "",
          "type": "bytes32"
        }
      ],
      "stateMutability": "view",
      "type": "function"
    },
    {
      "inputs": [],
      "name": "MINTER_ROLE",
      "outputs": [
        {
          "internalType": "bytes32",
          "name": "",
          "type": "bytes32"
        }
      ],
      "stateMutability": "view",
      "type": "function"
    },
    {
      "inputs": [
        {
          "internalType": "address",
          "name": "to",
          "type": "address"
        },
        {
          "internalType": "uint256",
          "name": "tokenId",
          "type": "uint256"
        }
      ],
      "name": "approve",
      "outputs": [],
      "stateMutability": "nonpayable",
      "type": "function"
    },
    {
      "inputs": [
        {
          "internalType": "address",
          "name": "owner",
          "type": "address"
        }
      ],
      "name": "balanceOf",
      "outputs": [
        {
          "internalType": "uint256",
          "name": "",
          "type": "uint256"
        }
      ],
      "stateMutability": "view",
      "type": "function"
    },
    {
      "inputs": [
        {
          "internalType": "uint256",
          "name": "tokenId",
          "type": "uint256"
        }
      ],
      "name": "deactivatePass",
      "outputs": [],
      "stateMutability": "nonpayable",
      "type": "function"
    },
    {
      "inputs": [
        {
          "internalType": "uint256",
          "name": "tokenId",
          "type": "uint256"
        }
      ],
      "name": "getApproved",
      "outputs": [
        {
          "internalType": "address",
          "name": "",
          "type": "address"
        }
      ],
      "stateMutability": "view",
      "type": "function"
    },
    {
      "inputs": [
        {
          "internalType": "bytes32",
          "name": "role",
          "type": "bytes32"
        }
      ],
      "name": "getRoleAdmin",
      "outputs": [
        {
          "internalType": "bytes32",
          "name": "",
          "type": "bytes32"
        }
      ],
      "stateMutability": "view",
      "type": "function"
    },
    {
      "inputs": [
        {
          "internalType": "address",
          "name": "user",
          "type": "address"
        }
      ],
      "name": "getUserPassCount",
      "outputs": [
        {
          "internalType": "uint256",
          "name": "",
          "type": "uint256"
        }
      ],
      "stateMutability": "view",
      "type": "function"
    },
    {
      "inputs": [
        {
          "internalType": "address",
          "name": "user",
          "type": "address"
        }
      ],
      "name": "getUserPasses",
      "outputs": [
        {
          "internalType": "uint256[]",
          "name": "",
          "type": "uint256[]"
        }
      ],
      "stateMutability": "view",
      "type": "function"
    },
    {
      "inputs": [
        {
          "internalType": "bytes32",
          "name": "role",
          "type": "bytes32"
        },
        {
          "internalType": "address",
          "name": "account",
          "type": "address"
        }
      ],
      "name": "grantRole",
      "outputs": [],
      "stateMutability": "nonpayable",
      "type": "function"
    },
    {
      "inputs": [
        {
          "internalType": "address",
          "name": "user",
          "type": "address"
        },
        {
          "internalType": "uint256",
          "name": "passType",
          "type": "uint256"
        }
      ],
      "name": "hasAccess",
      "outputs": [
        {
          "internalType": "bool",
          "name": "",
          "type": "bool"
        }
      ],
      "stateMutability": "view",
      "type": "function"
    },
    {
      "inputs": [
        {
          "internalType": "address",
          "name": "",
          "type": "address"
        },
        {
          "internalType": "uint256",
          "name": "",
          "type": "uint256"
        }
      ],
      "name": "hasPassType",
      "outputs": [
        {
          "internalType": "bool",
          "name": "",
          "type": "bool"
        }
      ],
      "stateMutability": "view",
      "type": "function"
    },
    {
      "inputs": [
        {
          "internalType": "bytes32",
          "name": "role",
          "type": "bytes32"
        },
        {
          "internalType": "address",
          "name": "account",
          "type": "address"
        }
      ],
      "name": "hasRole",
      "outputs": [
        {
          "internalType": "bool",
          "name": "",
          "type": "bool"
        }
      ],
      "stateMutability": "view",
      "type": "function"
    },
    {
      "inputs": [
        {
          "internalType": "address",
          "name": "owner",
          "type": "address"
        },
        {
          "internalType": "address",
          "name": "operator",
          "type": "address"
        }
      ],
      "name": "isApprovedForAll",
      "outputs": [
        {
          "internalType": "bool",
          "name": "",
          "type": "bool"
        }
      ],
      "stateMutability": "view",
      "type": "function"
    },
    {
      "inputs": [
        {
          "internalType": "address",
          "name": "to",
          "type": "address"
        },
        {
          "internalType": "uint256",
          "name": "passType",
          "type": "uint256"
        },
        {
          "internalType": "string",
          "name": "metadataURI",
          "type": "string"
        }
      ],
      "name": "mintPass",
      "outputs": [
        {
          "internalType": "uint256",
          "name": "",
          "type": "uint256"
        }
      ],
      "stateMutability": "nonpayable",
      "type": "function"
    },
    {
      "inputs": [
        {
          "internalType": "address",
          "name": "to",
          "type": "address"
        },
        {
          "internalType": "uint256",
          "name": "passType",
          "type": "uint256"
        },
        {
          "internalType": "string",
          "name": "productId",
          "type": "string"
        },
        {
          "internalType": "string",
          "name": "metadataURI",
          "type": "string"
        }
      ],
      "name": "mintPassWithProduct",
      "outputs": [
        {
          "internalType": "uint256",
          "name": "",
          "type": "uint256"
        }
      ],
      "stateMutability": "nonpayable",
      "type": "function"
    },
    {
      "inputs": [],
      "name": "name",
      "outputs": [
        {
          "internalType": "string",
          "name": "",
          "type": "string"
        }
      ],
      "stateMutability": "view",
      "type": "function"
    },
    {
      "inputs": [
        {
          "internalType": "uint256",
          "name": "tokenId",
          "type": "uint256"
        }
      ],
      "name": "ownerOf",
      "outputs": [
        {
          "internalType": "address",
          "name": "",
          "type": "address"
        }
      ],
      "stateMutability": "view",
      "type": "function"
    },
    {
      "inputs": [
        {
          "internalType": "uint256",
          "name": "",
          "type": "uint256"
        }
      ],
      "name": "passMetadata",
      "outputs": [
        {
          "internalType": "uint256",
          "name": "passType",
          "type": "uint256"
        },
        {
          "internalType": "string",
          "name": "productId",
          "type": "string"
        },
        {
          "internalType": "uint256",
          "name": "mintedAt",
          "type": "uint256"
        },
        {
          "internalType": "bool",
          "name": "active",
          "type": "bool"
        }
      ],
      "stateMutability": "view",
      "type": "function"
    },
    {
      "inputs": [
        {
          "internalType": "bytes32",
          "name": "role",
          "type": "bytes32"
        },
        {
          "internalType": "address",
          "name": "callerConfirmation",
          "type": "address"
        }
      ],
      "name": "renounceRole",
      "outputs": [],
      "stateMutability": "nonpayable",
      "type": "function"
    },
    {
      "inputs": [
        {
          "internalType": "bytes32",
          "name": "role",
          "type": "bytes32"
        },
        {
          "internalType": "address",
          "name": "account",
          "type": "address"
        }
      ],
      "name": "revokeRole",
      "outputs": [],
      "stateMutability": "nonpayable",
      "type": "function"
    },
    {
      "inputs": [
        {
          "internalType": "address",
          "name": "from",
          "type": "address"
        },
        {
          "internalType": "address",
          "name": "to",
          "type": "address"
        },
        {
          "internalType": "uint256",
          "name": "tokenId",
          "type": "uint256"
        }
      ],
      "name": "safeTransferFrom",
      "outputs": [],
      "stateMutability": "nonpayable",
      "type": "function"
    },
    {
      "inputs": [
        {
          "internalType": "address",
          "name": "from",
          "type": "address"
        },
        {
          "internalType": "address",
          "name": "to",
          "type": "address"
        },
        {
          "internalType": "uint256",
          "name": "tokenId",
          "type": "uint256"
        },
        {
          "internalType": "bytes",
          "name": "data",
          "type": "bytes"
        }
      ],
      "name": "safeTransferFrom",
      "outputs": [],
      "stateMutability": "nonpayable",
      "type": "function"
    },
    {
      "inputs": [
        {
          "internalType": "address",
          "name": "operator",
          "type": "address"
        },
        {
          "internalType": "bool",
          "name": "approved",
          "type": "bool"
        }
      ],
      "name": "setApprovalForAll",
      "outputs": [],
      "stateMutability": "nonpayable",
      "type": "function"
    },
    {
      "inputs": [
        {
          "internalType": "string",
          "name": "newBaseURI",
          "type": "string"
        }
      ],
      "name": "setBaseURI",
      "outputs": [],
      "stateMutability": "nonpayable",
      "type": "function"
    },
    {
      "inputs": [
        {
          "internalType": "bytes4",
          "name": "interfaceId",
          "type": "bytes4"
        }
      ],
      "name": "supportsInterface",
      "outputs": [
        {
          "internalType": "bool",
          "name": "",
          "type": "bool"
        }
      ],
      "stateMutability": "view",
      "type": "function"
    },
    {
      "inputs": [],
      "name": "symbol",
      "outputs": [
        {
          "internalType": "string",
          "name": "",
          "type": "string"
        }
      ],
      "stateMutability": "view",
      "type": "function"
    },
    {
      "inputs": [
        {
          "internalType": "uint256",
          "name": "tokenId",
          "type": "uint256"
        }
      ],
      "name": "tokenURI",
      "outputs": [
        {
          "internalType": "string",
          "name": "",
          "type": "string"
        }
      ],
      "stateMutability": "view",
      "type": "function"
    },
    {
      "inputs": [],
      "name": "totalSupply",
      "outputs": [
        {
          "internalType": "uint256",
          "name": "",
          "type": "uint256"
        }
      ],
      "stateMutability": "view",
      "type": "function"
    },
    {
      "inputs": [
        {
          "internalType": "address",
          "name": "from",
          "type": "address"
        },
        {
          "internalType": "address",
          "name": "to",
          "type": "address"
        },
        {
          "internalType": "uint256",
          "name": "tokenId",
          "type": "uint256"
        }
      ],
      "name": "transferFrom",
      "outputs": [],
      "stateMutability": "nonpayable",
      "type": "function"
    },
    {
      "inputs": [
        {
          "internalType": "address",
          "name": "",
          "type": "address"
        },
        {
          "internalType": "uint256",
          "name": "",
          "type": "uint256"
        }
      ],
      "name": "userPasses",
      "outputs": [
        {
          "internalType": "uint256",
          "name": "",
          "type": "uint256"
        }
      ],
      "stateMutability": "view",
      "type": "function"
    }
  ],
  "bytecode": "0x6080604052346104ff576128648038038061001981610503565b92833981016060828203126104ff5761003182610528565b9161003e60208201610528565b604082015190916001600160401b0382116104ff570182601f820112156104ff578051906001600160401b03821161032257610083601f8301601f1916602001610503565b93828552602083830101116104ff57815f9260208093018387015e840101526100ac6040610503565b92601584527f436861696e6c657373204163636573732050617373000000000000000000000060208501526100e16040610503565b600381526204341560ec1b6020820152845190946001600160401b038211610322575f5490600182811c921680156104f5575b60208310146103045781601f849311610488575b50602090601f8311600114610425575f9261041a575b50508160011b915f199060031b1c1916175f555b83516001600160401b03811161032257600154600181811c91168015610410575b602082101461030457601f81116103ad575b506020601f82116001146103415790806101bf93926101c596975f92610336575b50508160011b915f199060031b1c19161760015561053c565b506105b2565b5080516001600160401b03811161032257600954600181811c91168015610318575b602082101461030457601f81116102a1575b50602091601f8211600114610241579181925f92610236575b50508160011b915f199060031b1c1916176009555b6040516121be90816106468239f35b015190505f80610212565b601f1982169260095f52805f20915f5b85811061028957508360019510610271575b505050811b01600955610227565b01515f1960f88460031b161c191690555f8080610263565b91926020600181928685015181550194019201610251565b60095f527f6e1540171b6c0c960b71a7020d9f60077f6af931a8bbf590da0223dacf75c7af601f830160051c810191602084106102fa575b601f0160051c01905b8181106102ef57506101f9565b5f81556001016102e2565b90915081906102d9565b634e487b7160e01b5f52602260045260245ffd5b90607f16906101e7565b634e487b7160e01b5f52604160045260245ffd5b015190505f806101a6565b601f1982169560015f52815f20965f5b81811061039557509660019284926101bf96956101c5999a1061037d575b505050811b0160015561053c565b01515f1960f88460031b161c191690555f808061036f565b83830151895560019098019760209384019301610351565b60015f527fb10e2d527612073b26eecdfd717e6a320cf44b4afac2b0732d9fcbe2b7fa0cf6601f830160051c81019160208410610406575b601f0160051c01905b8181106103fb5750610185565b5f81556001016103ee565b90915081906103e5565b90607f1690610173565b015190505f8061013e565b5f8080528281209350601f198516905b8181106104705750908460019594939210610458575b505050811b015f55610152565b01515f1960f88460031b161c191690555f808061044b565b92936020600181928786015181550195019301610435565b5f80529091507f290decd9548b62a8d60345a988386fc84ba6bc95484008f6362f93160ef3e563601f840160051c810191602085106104eb575b90601f859493920160051c01905b8181106104dd5750610128565b5f81558493506001016104d0565b90915081906104c2565b91607f1691610114565b5f80fd5b6040519190601f01601f191682016001600160401b0381118382101761032257604052565b51906001600160a01b03821682036104ff57565b6001600160a01b0381165f9081525f5160206128245f395f51905f52602052604090205460ff166105ad576001600160a01b03165f8181525f5160206128245f395f51905f5260205260408120805460ff191660011790553391905f5160206128045f395f51905f528180a4600190565b505f90565b6001600160a01b0381165f9081525f5160206128445f395f51905f52602052604090205460ff166105ad576001600160a01b03165f8181525f5160206128445f395f51905f5260205260408120805460ff191660011790553391907f9f2df0fed2c77648de5860a4cc508cd0818c85b8b8a1ab4ceeef8d981c8956a6905f5160206128045f395f51905f529080a460019056fe6080806040526004361015610012575f80fd5b5f3560e01c90816301ffc9a7146112a05750806306fdde03146111fe578063081812fc146111c2578063095ea7b3146110d857806318160ddd146110bb57806323b872dd146110a4578063248a9ca3146110715780632ba1b5e314610de35780632f2ff15d14610da557806336568abe14610d6157806342842e0e14610d32578063536565c414610c81578063550989a014610c2957806355f804b314610a185780636352211e146109e857806370a08231146109975780637f1226dc1461067557806390b057a01461063d57806391d14854146105f457806395d89b411461052a5780639ba9b29d146104c2578063a217fddf146104a8578063a22cb465146103eb578063b88d4fde1461037f578063bc38d48c146102cb578063c6530e4114610171578063c87b56dd14610294578063d53913931461025a578063d547741f14610215578063e985e9c5146101be5763f1caa2f814610171575f80fd5b346101ba5760403660031901126101ba576001600160a01b03610192611363565b165f52600c60205260405f206024355f52602052602060ff60405f2054166040519015158152f35b5f80fd5b346101ba5760403660031901126101ba576101d7611363565b6101df611379565b9060018060a01b03165f52600560205260405f209060018060a01b03165f52602052602060ff60405f2054166040519015158152f35b346101ba5760403660031901126101ba57610258600435610234611379565b9061025361024e825f526007602052600160405f20015490565b611938565b611d72565b005b346101ba575f3660031901126101ba5760206040517f9f2df0fed2c77648de5860a4cc508cd0818c85b8b8a1ab4ceeef8d981c8956a68152f35b346101ba5760203660031901126101ba576102c76102b3600435611f58565b60405191829160208352602083019061133f565b0390f35b346101ba5760203660031901126101ba576001600160a01b036102ec611363565b165f52600b60205260405f20604051806020835491828152019081935f5260205f20905f5b81811061036957505050816103279103826113e5565b604051918291602083019060208452518091526040830191905f5b818110610350575050500390f35b8251845285945060209384019390920191600101610342565b8254845260209093019260019283019201610311565b346101ba5760803660031901126101ba57610398611363565b6103a0611379565b906044356064359267ffffffffffffffff84116101ba57366023850112156101ba576103d9610258943690602481600401359101611423565b926103e583838361161a565b33611df6565b346101ba5760403660031901126101ba57610404611363565b60243590811515908183036101ba573315610495576001600160a01b03169182156104825761045490335f52600560205260405f20845f5260205260405f209060ff801983541691151516179055565b6040519081527f17307eab39ab6107e8899845ad3d59bd9653f200f220920489ca2b5937696c3160203392a3005b82630b61174360e31b5f5260045260245ffd5b63a9fbf51f60e01b5f525f60045260245ffd5b346101ba575f3660031901126101ba5760206040515f8152f35b346101ba5760203660031901126101ba576004355f52600a60205260405f2080546104ef6001830161157c565b9160ff6003600283015492015416610519604051948594855260806020860152608085019061133f565b916040840152151560608301520390f35b346101ba575f3660031901126101ba576040515f60015461054a816114a0565b80845290600181169081156105d05750600114610572575b6102c7836102b3818503826113e5565b60015f9081527fb10e2d527612073b26eecdfd717e6a320cf44b4afac2b0732d9fcbe2b7fa0cf6939250905b8082106105b6575090915081016020016102b3610562565b91926001816020925483858801015201910190929161059e565b60ff191660208086019190915291151560051b840190910191506102b39050610562565b346101ba5760403660031901126101ba5761060d611379565b6004355f52600760205260405f209060018060a01b03165f52602052602060ff60405f2054166040519015158152f35b346101ba5760203660031901126101ba576001600160a01b0361065e611363565b165f52600b602052602060405f2054604051908152f35b346101ba5760803660031901126101ba5761068e611363565b6024359060443567ffffffffffffffff81116101ba576106b2903690600401611459565b9160643567ffffffffffffffff81116101ba576106d3903690600401611459565b6106db6118c9565b6001600160a01b038316916106f18315156117ba565b6106fc8115156117fa565b84511561095e5761071c61071160085461183a565b809581600855611972565b6107268285611b7f565b60405191610733836113c9565b8183526020830186815260408401428152606085019160018352875f52600a60205260405f209551865560018601905180519067ffffffffffffffff821161094a5761077f83546114a0565b601f8111610905575b509160209a9593918a9795938c90601f831160011461086957935f5160206121695f395f51905f52999a93836003946108539998946107f7985f9261085e575b50508160011b915f1990871b1c19161790555b51600284015551151591019060ff801983541691151516179055565b865f52600b895261080b8660405f2061185c565b865f52600c895260405f20835f52895260405f20600160ff19825416179055610845604051948594855260608b860152606085019061133f565b90838203604085015261133f565b0390a3604051908152f35b015190505f806107c8565b999493929190601f1982169a835f52815f209b5f5b8181106108d45750835f5160206121695f395f51905f529c9d6108539a999794600397946107f79a97600195106108bd575b505050811b0190556107db565b01515f1983891b60f8161c191690555f80806108b0565b939597999b509091939597999b8f600181928786015181550195019301908e9b9997959392919c9a9896949c61087e565b835f5260205f20601f840160051c81019160208510610940575b601f0160051c01905b8181106109355750610788565b5f8155600101610928565b909150819061091f565b634e487b7160e01b5f52604160045260245ffd5b60405162461bcd60e51b8152602060048201526011602482015270125b9d985b1a59081c1c9bd91d58dd1259607a1b6044820152606490fd5b346101ba5760203660031901126101ba576001600160a01b036109b8611363565b1680156109d5575f526003602052602060405f2054604051908152f35b6322718ad960e21b5f525f60045260245ffd5b346101ba5760203660031901126101ba576020610a06600435611895565b6040516001600160a01b039091168152f35b346101ba5760203660031901126101ba5760043567ffffffffffffffff81116101ba57610a49903690600401611459565b335f9081527f6d5257204ebe7d88fd91ae87941cb2dd9d8062b64ae5a2bd2d28ec40b9fbf6df602052604090205460ff1615610c1257805167ffffffffffffffff811161094a57610a9b6009546114a0565b601f8111610baa575b506020601f8211600114610b18579181610b08927f6741b2fc379fad678116fe3d4d4b9a1a184ab53ba36b86ad0fa66340b1ab41ad945f91610b0d575b508160011b915f199060031b1c19161760095560405191829160208352602083019061133f565b0390a1005b905082015185610ae1565b601f1982169060095f525f5160206121495f395f51905f52915f5b818110610b925750927f6741b2fc379fad678116fe3d4d4b9a1a184ab53ba36b86ad0fa66340b1ab41ad949260019282610b089610610b7a575b5050811b016009556102b3565b8401515f1960f88460031b161c191690558580610b6d565b91926020600181928689015181550194019201610b33565b60095f52601f820160051c5f5160206121495f395f51905f52019060208310610bfd575b601f0160051c5f5160206121495f395f51905f5201905b818110610bf25750610aa4565b5f8155600101610be5565b5f5160206121495f395f51905f529150610bce565b63e2517d3f60e01b5f52336004525f60245260445ffd5b346101ba5760403660031901126101ba57610c42611363565b6001600160a01b03165f908152600b60205260409020805460243591908210156101ba57602091610c7291611477565b90549060031b1c604051908152f35b346101ba5760203660031901126101ba57600435610c9d6118c9565b5f818152600260205260409020546001600160a01b031615610cf657805f52600a602052600360405f200160ff1981541690557f626e480980b0a9ed440b6d5cb0632ba9db896768f3bf78fc167de63b7658cf765f80a2005b60405162461bcd60e51b8152602060048201526014602482015273151bdad95b88191bd95cc81b9bdd08195e1a5cdd60621b6044820152606490fd5b346101ba57610258610d433661138f565b9060405192610d536020856113e5565b5f84526103e583838361161a565b346101ba5760403660031901126101ba57610d7a611379565b336001600160a01b03821603610d965761025890600435611d72565b63334bd91960e11b5f5260045ffd5b346101ba5760403660031901126101ba57610258600435610dc4611379565b90610dde61024e825f526007602052600160405f20015490565b611ce6565b346101ba5760603660031901126101ba57610dfc611363565b6024359060443567ffffffffffffffff81116101ba57610e20903690600401611459565b90610e296118c9565b6001600160a01b038116610e3e8115156117ba565b610e498415156117fa565b610e62610e5760085461183a565b809381600855611972565b610e6c8383611b7f565b604051610e78816113c9565b84815260209360405195610e8c86886113e5565b5f87528583019687526040830192428452606081019360018552865f52600a885260405f209151825560018201985198895167ffffffffffffffff811161094a57610ed782546114a0565b9a601f8c1161102e575b899a9b505f99979899508b90601f8311600114610fae5792825f5160206121695f395f51905f52999a93610f489796936003965f92610fa35750508160011b915f1990871b1c191617905551600284015551151591019060ff801983541691151516179055565b845f52600b8752610f5c8460405f2061185c565b845f52600c875260405f20815f52875260405f20600160ff1982541617905561085360405192839283526060898401525f606084015260806040840152608083019061133f565b015190508f806107c8565b5f8481528d8120929190601f198516908f5b82821061101257505093610f4897969360039693600193835f5160206121695f395f51905f529e9f9810610ffb57505050811b0190556107db565b01515f1983891b60f8161c191690558f80806108b0565b8484015186558f9c506001909501949384019390810190610fc0565b825f528a5f20601f830160051c81019c8c8410611067575b601f0160051c019b5b8c811061105c5750610ee1565b5f815560010161104f565b909c508c90611046565b346101ba5760203660031901126101ba57602061109c6004355f526007602052600160405f20015490565b604051908152f35b346101ba576102586110b53661138f565b9161161a565b346101ba575f3660031901126101ba576020600854604051908152f35b346101ba5760403660031901126101ba576110f1611363565b6024356110fd81611895565b331515806111af575b80611182575b61116f5781906001600160a01b0384811691167f8c5be1e5ebec7d5bd14f71427d1e84f3dd0314c0f7b2291e5b200ac8c7c3b9255f80a45f90815260046020526040902080546001600160a01b0319166001600160a01b03909216919091179055005b63a9fbf51f60e01b5f523360045260245ffd5b506001600160a01b0381165f90815260056020908152604080832033845290915290205460ff161561110c565b506001600160a01b038116331415611106565b346101ba5760203660031901126101ba576004356111df81611895565b505f526004602052602060018060a01b0360405f205416604051908152f35b346101ba575f3660031901126101ba576040515f5f5461121d816114a0565b80845290600181169081156105d05750600114611244576102c7836102b3818503826113e5565b5f8080527f290decd9548b62a8d60345a988386fc84ba6bc95484008f6362f93160ef3e563939250905b808210611286575090915081016020016102b3610562565b91926001816020925483858801015201910190929161126e565b346101ba5760203660031901126101ba576004359063ffffffff60e01b82168092036101ba57602091637965db0b60e01b81149081156112e2575b5015158152f35b632483248360e11b8114915081156112fc575b50836112db565b6380ac58cd60e01b81149150811561132e575b811561131d575b50836112f5565b6301ffc9a760e01b14905083611316565b635b5e139f60e01b8114915061130f565b805180835260209291819084018484015e5f828201840152601f01601f1916010190565b600435906001600160a01b03821682036101ba57565b602435906001600160a01b03821682036101ba57565b60609060031901126101ba576004356001600160a01b03811681036101ba57906024356001600160a01b03811681036101ba579060443590565b6080810190811067ffffffffffffffff82111761094a57604052565b90601f8019910116810190811067ffffffffffffffff82111761094a57604052565b67ffffffffffffffff811161094a57601f01601f191660200190565b92919261142f82611407565b9161143d60405193846113e5565b8294818452818301116101ba578281602093845f960137010152565b9080601f830112156101ba5781602061147493359101611423565b90565b805482101561148c575f5260205f2001905f90565b634e487b7160e01b5f52603260045260245ffd5b90600182811c921680156114ce575b60208310146114ba57565b634e487b7160e01b5f52602260045260245ffd5b91607f16916114af565b604051905f82600954916114eb836114a0565b808352926001811690811561155d5750600114611511575b61150f925003836113e5565b565b5060095f90815290915f5160206121495f395f51905f525b81831061154157505090602061150f92820101611503565b6020919350806001915483858901015201910190918492611529565b6020925061150f94915060ff191682840152151560051b820101611503565b9060405191825f82549261158f846114a0565b80845293600181169081156115f857506001146115b4575b5061150f925003836113e5565b90505f9291925260205f20905f915b8183106115dc57505090602061150f928201015f6115a7565b60209193508060019154838589010152019101909184926115c3565b90506020925061150f94915060ff191682840152151560051b8201015f6115a7565b6001600160a01b03909116919082156117a7575f828152600260205260409020546001600160a01b031692829033151580611712575b50846116df575b805f52600360205260405f2060018154019055815f52600260205260405f20816bffffffffffffffffffffffff60a01b825416179055847fddf252ad1be2c89b69c2b068fc378daa952ba7f163c4a11628f55a4df523b3ef5f80a46001600160a01b03168083036116c757505050565b6364283d7b60e01b5f5260045260245260445260645ffd5b5f82815260046020526040902080546001600160a01b0319169055845f52600360205260405f205f198154019055611657565b90915080611756575b156117285782905f611650565b828461174057637e27328960e01b5f5260045260245ffd5b63177e802f60e01b5f523360045260245260445ffd5b503384148015611785575b8061171b57505f838152600460205260409020546001600160a01b0316331461171b565b505f84815260056020908152604080832033845290915290205460ff16611761565b633250574960e11b5f525f60045260245ffd5b156117c157565b60405162461bcd60e51b8152602060048201526011602482015270125b9d985b1a59081c9958da5c1a595b9d607a1b6044820152606490fd5b1561180157565b60405162461bcd60e51b8152602060048201526011602482015270496e76616c69642070617373207479706560781b6044820152606490fd5b5f1981146118485760010190565b634e487b7160e01b5f52601160045260245ffd5b80546801000000000000000081101561094a5761187e91600182018155611477565b819291549060031b91821b915f19901b1916179055565b5f818152600260205260409020546001600160a01b03169081156118b7575090565b637e27328960e01b5f5260045260245ffd5b335f9081527fa4bfd7afe708e2e87e7f0e2ad9b4d545417e0f795f57b5c5ab5d799c565a04f4602052604090205460ff161561190157565b63e2517d3f60e01b5f52336004527f9f2df0fed2c77648de5860a4cc508cd0818c85b8b8a1ab4ceeef8d981c8956a660245260445ffd5b5f81815260076020908152604080832033845290915290205460ff161561195c5750565b63e2517d3f60e01b5f523360045260245260445ffd5b906020906040519061198483836113e5565b5f82526001600160a01b0384169384156117a7575f8281526002855260409020546001600160a01b03168015159081611b4e575b865f526003865260405f2060018154019055835f526002865260405f20876bffffffffffffffffffffffff60a01b8254161790558387827fddf252ad1be2c89b69c2b068fc378daa952ba7f163c4a11628f55a4df523b3ef5f80a450611b3b573b611a24575b50505050565b91611a6191819495936040519384928392630a85bd0160e11b84523360048501525f6024850152604484015260806064840152608483019061133f565b03815f885af15f9181611afb575b50611ac45750503d15611abc573d90611a8782611407565b91611a9560405193846113e5565b82523d5f8284013e5b81519182611ab95783633250574960e11b5f5260045260245ffd5b01fd5b606090611a9e565b909291506001600160e01b03191663757a42ff60e11b01611ae957505f808080611a1e565b633250574960e11b5f5260045260245ffd5b9091508381813d8311611b34575b611b1381836113e5565b810103126101ba57516001600160e01b0319811681036101ba57905f611a6f565b503d611b09565b6339e3563760e11b5f525f60045260245ffd5b5f8481526004602052604080822080546001600160a01b031916905582825260038852902080545f190190556119b8565b919091805f52600660205260405f20835167ffffffffffffffff811161094a57611ba982546114a0565b601f8111611ca1575b506020601f8211600114611c1957908060209493927ff8e1a15aba9398e019f0b49df1a4fde98ee17ae345cb5f6b5e2c27f5033e8ce796975f92611c0e575b50508160011b915f199060031b1c19161790555b604051908152a1565b015190505f80611bf1565b601f19821695835f52815f20965f5b818110611c89575096600192849260209796957ff8e1a15aba9398e019f0b49df1a4fde98ee17ae345cb5f6b5e2c27f5033e8ce7999a10611c71575b505050811b019055611c05565b01515f1960f88460031b161c191690555f8080611c64565b83830151895560019098019760209384019301611c28565b825f5260205f20601f830160051c81019160208410611cdc575b601f0160051c01905b818110611cd15750611bb2565b5f8155600101611cc4565b9091508190611cbb565b5f8181526007602090815260408083206001600160a01b038616845290915290205460ff16611d6c575f8181526007602090815260408083206001600160a01b0395909516808452949091528120805460ff19166001179055339291907f2f8788117e7eff1d82e926ec794901d17c78024a50270940304540a733656f0d9080a4600190565b50505f90565b5f8181526007602090815260408083206001600160a01b038616845290915290205460ff1615611d6c575f8181526007602090815260408083206001600160a01b0395909516808452949091528120805460ff19169055339291907ff6391f5c32d9c69d2a47ea670b442974b53935d1edc7fd64eb21e047a839171b9080a4600190565b823b611e04575b5050505050565b604051630a85bd0160e11b81526001600160a01b039182166004820152918116602483015260448201939093526080606482015291169160209082908190611e5090608483019061133f565b03815f865af15f9181611ed5575b50611eb357503d15611eac573d611e7481611407565b90611e8260405192836113e5565b81523d5f602083013e5b80519081611ea75782633250574960e11b5f5260045260245ffd5b602001fd5b6060611e8c565b6001600160e01b03191663757a42ff60e11b01611ae957505f80808080611dfd565b9091506020813d602011611f12575b81611ef1602093836113e5565b810103126101ba57516001600160e01b0319811681036101ba57905f611e5e565b3d9150611ee4565b61150f906020808095946040519684889551918291018487015e8401908282015f8152815193849201905e01015f815203601f1981018452836113e5565b611f6181611895565b50611f6a6114d8565b815f526006602052611f7e60405f2061157c565b90805115612142578151612138575050611f9781611895565b50611fa06114d8565b8051909190156121225780815f9272184f03e93ff9f4daa797ed6e38ed64bf6a1f0160401b8110156120fc575b50806d04ee2d6d415b85acef8100000000600a9210156120e1575b662386f26fc100008110156120cd575b6305f5e1008110156120bc575b6127108110156120ad575b606481101561209f575b1015612094575b600a6021600184019361203385611407565b9461204160405196876113e5565b808652612050601f1991611407565b013660208701378401015b5f1901916f181899199a1a9b1b9c1cb0b131b232b360811b8282061a83530490811561208957600a9061205b565b505061147491611f1a565b600190910190612021565b60646002910493019261201a565b61271060049104930192612010565b6305f5e10060089104930192612005565b662386f26fc1000060109104930192611ff8565b6d04ee2d6d415b85acef810000000060209104930192611fe8565b6040935072184f03e93ff9f4daa797ed6e38ed64bf6a1f0160401b90049050600a611fcd565b50506040516121326020826113e5565b5f815290565b6114749250611f1a565b5090509056fe6e1540171b6c0c960b71a7020d9f60077f6af931a8bbf590da0223dacf75c7aff2e23d0b2e0f1fed13bd95c077635dcbf4fe0d3d37aacc93669f4512b61ca87da26469706673582212209a35048684ab9c2288f907b33dbd610378ef5c84c7ffa0d0da22c835b0a8cf0464736f6c634300081b00332f8788117e7eff1d82e926ec794901d17c78024a50270940304540a733656f0d6d5257204ebe7d88fd91ae87941cb2dd9d8062b64ae5a2bd2d28ec40b9fbf6dfa4bfd7afe708e2e87e7f0e2ad9b4d545417e0f795f57b5c5ab5d799c565a04f4",
  "linkReferences": {},
  "deployedLinkReferences": {},
  "immutableReferences": {},
  "inputSourceName": "project/contracts/AccessPassNFT.sol",
  "buildInfoId": "solc-0_8_27-d86f8ddba2d7b65ab6a9bcbb0d63bb66d2317154"
}